{"contracts/GenrateImagesFunctionConsumer.sol":{"GenerateImagesFunctionsConsumer":{"abi":[{"inputs":[{"internalType":"address","name":"router","type":"address"}],"stateMutability":"nonpayable","type":"constructor"},{"inputs":[],"name":"EmptyArgs","type":"error"},{"inputs":[],"name":"EmptySource","type":"error"},{"inputs":[],"name":"NoInlineSecrets","type":"error"},{"inputs":[],"name":"OnlyRouterCanFulfill","type":"error"},{"inputs":[{"internalType":"bytes32","name":"requestId","type":"bytes32"}],"name":"UnexpectedRequestID","type":"error"},{"anonymous":false,"inputs":[{"indexed":false,"internalType":"string","name":"latestResult","type":"string"}],"name":"Attributes","type":"event"},{"anonymous":false,"inputs":[{"indexed":true,"internalType":"bytes32","name":"requestId","type":"bytes32"},{"indexed":false,"internalType":"bytes","name":"result","type":"bytes"},{"indexed":false,"internalType":"bytes","name":"err","type":"bytes"}],"name":"OCRResponse","type":"event"},{"anonymous":false,"inputs":[{"indexed":true,"internalType":"address","name":"from","type":"address"},{"indexed":true,"internalType":"address","name":"to","type":"address"}],"name":"OwnershipTransferRequested","type":"event"},{"anonymous":false,"inputs":[{"indexed":true,"internalType":"address","name":"from","type":"address"},{"indexed":true,"internalType":"address","name":"to","type":"address"}],"name":"OwnershipTransferred","type":"event"},{"anonymous":false,"inputs":[{"indexed":true,"internalType":"bytes32","name":"id","type":"bytes32"}],"name":"RequestFulfilled","type":"event"},{"anonymous":false,"inputs":[{"indexed":true,"internalType":"bytes32","name":"id","type":"bytes32"}],"name":"RequestSent","type":"event"},{"inputs":[],"name":"acceptOwnership","outputs":[],"stateMutability":"nonpayable","type":"function"},{"inputs":[],"name":"callbackGasLimit","outputs":[{"internalType":"uint32","name":"","type":"uint32"}],"stateMutability":"view","type":"function"},{"inputs":[],"name":"donId","outputs":[{"internalType":"bytes32","name":"","type":"bytes32"}],"stateMutability":"view","type":"function"},{"inputs":[{"internalType":"string","name":"_prompt","type":"string"},{"internalType":"string","name":"_size","type":"string"}],"name":"getAttribute","outputs":[],"stateMutability":"nonpayable","type":"function"},{"inputs":[{"internalType":"bytes32","name":"requestId","type":"bytes32"},{"internalType":"bytes","name":"response","type":"bytes"},{"internalType":"bytes","name":"err","type":"bytes"}],"name":"handleOracleFulfillment","outputs":[],"stateMutability":"nonpayable","type":"function"},{"inputs":[],"name":"latestError","outputs":[{"internalType":"bytes","name":"","type":"bytes"}],"stateMutability":"view","type":"function"},{"inputs":[],"name":"latestRequestId","outputs":[{"internalType":"bytes32","name":"","type":"bytes32"}],"stateMutability":"view","type":"function"},{"inputs":[],"name":"latestResponse","outputs":[{"internalType":"bytes","name":"","type":"bytes"}],"stateMutability":"view","type":"function"},{"inputs":[],"name":"latestResult","outputs":[{"internalType":"string","name":"","type":"string"}],"stateMutability":"view","type":"function"},{"inputs":[],"name":"owner","outputs":[{"internalType":"address","name":"","type":"address"}],"stateMutability":"view","type":"function"},{"inputs":[],"name":"source","outputs":[{"internalType":"string","name":"","type":"string"}],"stateMutability":"view","type":"function"},{"inputs":[],"name":"subscriptionId","outputs":[{"internalType":"uint64","name":"","type":"uint64"}],"stateMutability":"view","type":"function"},{"inputs":[{"internalType":"address","name":"to","type":"address"}],"name":"transferOwnership","outputs":[],"stateMutability":"nonpayable","type":"function"},{"inputs":[{"internalType":"string","name":"_source","type":"string"},{"internalType":"uint64","name":"_subscriptionId","type":"uint64"},{"internalType":"uint32","name":"_callbackGasLimit","type":"uint32"},{"internalType":"bytes32","name":"_donId","type":"bytes32"}],"name":"updateRequest","outputs":[],"stateMutability":"nonpayable","type":"function"}],"evm":{"bytecode":{"linkReferences":{},"object":"60a06040523480156200001157600080fd5b5060405162001bb538038062001bb5833981016040819052620000349162000180565b6001600160a01b0381166080523380600081620000985760405162461bcd60e51b815260206004820152601860248201527f43616e6e6f7420736574206f776e657220746f207a65726f000000000000000060448201526064015b60405180910390fd5b600080546001600160a01b0319166001600160a01b0384811691909117909155811615620000cb57620000cb81620000d5565b50505050620001b2565b336001600160a01b038216036200012f5760405162461bcd60e51b815260206004820152601760248201527f43616e6e6f74207472616e7366657220746f2073656c6600000000000000000060448201526064016200008f565b600180546001600160a01b0319166001600160a01b0383811691821790925560008054604051929316917fed8889f560326eb138920d842192f0eb3dd22b4f139c87a2c57538e05bae12789190a350565b6000602082840312156200019357600080fd5b81516001600160a01b0381168114620001ab57600080fd5b9392505050565b6080516119e0620001d56000396000818161021b0152610c8a01526119e06000f3fe608060405234801561001057600080fd5b50600436106100ea5760003560e01c80638da5cb5b1161008c578063bef3a2f011610066578063bef3a2f0146101da578063bf2d0daf146101e2578063f2fde38b146101f5578063fffeb84e1461020857600080fd5b80638da5cb5b146101a35780638dbe7b9d146101be578063ae0ccd2e146101c757600080fd5b806324f74697116100c857806324f746971461014d57806367e828bf1461017e5780636a2ea57e1461019357806379ba50971461019b57600080fd5b806309c1ba2e146100ef5780630ca76175146101215780631aa46f5914610136575b600080fd5b6003546101039067ffffffffffffffff1681565b60405167ffffffffffffffff90911681526020015b60405180910390f35b61013461012f3660046112a8565b610210565b005b61013f60055481565b604051908152602001610118565b6003546101699068010000000000000000900463ffffffff1681565b60405163ffffffff9091168152602001610118565b6101866102ad565b6040516101189190611365565b61018661033b565b610134610348565b6000546040516001600160a01b039091168152602001610118565b61013f60045481565b6101346101d5366004611391565b61040b565b610186610467565b6101346101f0366004611432565b610474565b610134610203366004611496565b610483565b610186610497565b336001600160a01b037f00000000000000000000000000000000000000000000000000000000000000001614610272576040517fc6829f8300000000000000000000000000000000000000000000000000000000815260040160405180910390fd5b61027d8383836104a4565b60405183907f85e1543bf2f84fe80c6badbce3648c8539ad1df4d2b3d822938ca0538be727e690600090a2505050565b600280546102ba906114bf565b80601f01602080910402602001604051908101604052809291908181526020018280546102e6906114bf565b80156103335780601f1061030857610100808354040283529160200191610333565b820191906000526020600020905b81548152906001019060200180831161031657829003601f168201915b505050505081565b600880546102ba906114bf565b6001546001600160a01b031633146103a75760405162461bcd60e51b815260206004820152601660248201527f4d7573742062652070726f706f736564206f776e65720000000000000000000060448201526064015b60405180910390fd5b600080543373ffffffffffffffffffffffffffffffffffffffff19808316821784556001805490911690556040516001600160a01b0390921692909183917f8be0079c531659141344cd1fd0a4f28419497f9722a3daafe3b4186f6b6457e091a350565b610413610564565b6002610420858783611547565b506003805463ffffffff90931668010000000000000000026bffffffffffffffffffffffff1990931667ffffffffffffffff90941693909317919091179091556004555050565b600680546102ba906114bf565b61047e82826105c0565b505050565b61048b610564565b61049481610776565b50565b600780546102ba906114bf565b60066104b08382611608565b5060076104bd8282611608565b50827f7bab0ec163b5c132c72b8146ac4d6e067e82ed58f8b131150aa71c925891156283836040516104f09291906116c8565b60405180910390a28160405160200161050991906116f6565b604051602081830303815290604052600890816105269190611608565b507f52d7bd047435a6a678d62544f6963d4a396087e6d16e5a9cec313501967f603360086040516105579190611712565b60405180910390a1505050565b6000546001600160a01b031633146105be5760405162461bcd60e51b815260206004820152601660248201527f4f6e6c792063616c6c61626c65206279206f776e657200000000000000000000604482015260640161039e565b565b60006105ca610564565b61060b6040805160e0810190915280600081526020016000815260200160008152602001606081526020016060815260200160608152602001606081525090565b6106ad6000806002805461061e906114bf565b80601f016020809104026020016040519081016040528092919081815260200182805461064a906114bf565b80156106975780601f1061066c57610100808354040283529160200191610697565b820191906000526020600020905b81548152906001019060200180831161067a57829003601f168201915b50505050508461082c909392919063ffffffff16565b604080516001808252818301909252600091816020015b60608152602001906001900390816106c457905050905084816000815181106106ef576106ef61179d565b6020026020010181905250838160018151811061070e5761070e61179d565b602002602001018190525060018151111561072d5761072d82826108c3565b600061076561073b84610906565b60035460045467ffffffffffffffff82169168010000000000000000900463ffffffff1690610c85565b600581905593505050505b92915050565b336001600160a01b038216036107ce5760405162461bcd60e51b815260206004820152601760248201527f43616e6e6f74207472616e7366657220746f2073656c66000000000000000000604482015260640161039e565b6001805473ffffffffffffffffffffffffffffffffffffffff19166001600160a01b0383811691821790925560008054604051929316917fed8889f560326eb138920d842192f0eb3dd22b4f139c87a2c57538e05bae12789190a350565b8051600003610867576040517f22ce3edd00000000000000000000000000000000000000000000000000000000815260040160405180910390fd5b8383600281111561087a5761087a6117b3565b9081600281111561088d5761088d6117b3565b905250604084018280156108a3576108a36117b3565b908180156108b3576108b36117b3565b9052506060909301929092525050565b80516000036108fe576040517ffe936cb700000000000000000000000000000000000000000000000000000000815260040160405180910390fd5b60a090910152565b60606000610915610100610d57565b905061095f6040518060400160405280600c81526020017f636f64654c6f636174696f6e000000000000000000000000000000000000000081525082610d7890919063ffffffff16565b825161097d906002811115610976576109766117b3565b8290610d91565b60408051808201909152600881527f6c616e677561676500000000000000000000000000000000000000000000000060208201526109bc908290610d78565b60408301516109d3908015610976576109766117b3565b60408051808201909152600681527f736f7572636500000000000000000000000000000000000000000000000000006020820152610a12908290610d78565b6060830151610a22908290610d78565b60a08301515115610acf5760408051808201909152600481527f61726773000000000000000000000000000000000000000000000000000000006020820152610a6c908290610d78565b610a7581610dce565b60005b8360a0015151811015610ac557610ab58460a001518281518110610a9e57610a9e61179d565b602002602001015183610d7890919063ffffffff16565b610abe816117df565b9050610a78565b50610acf81610df2565b60808301515115610bd057600083602001516002811115610af257610af26117b3565b03610b29576040517fa80d31f700000000000000000000000000000000000000000000000000000000815260040160405180910390fd5b60408051808201909152600f81527f736563726574734c6f636174696f6e00000000000000000000000000000000006020820152610b68908290610d78565b610b8183602001516002811115610976576109766117b3565b60408051808201909152600781527f73656372657473000000000000000000000000000000000000000000000000006020820152610bc0908290610d78565b6080830151610bd0908290610e10565b60c08301515115610c7d5760408051808201909152600981527f62797465734172677300000000000000000000000000000000000000000000006020820152610c1a908290610d78565b610c2381610dce565b60005b8360c0015151811015610c7357610c638460c001518281518110610c4c57610c4c61179d565b602002602001015183610e1090919063ffffffff16565b610c6c816117df565b9050610c26565b50610c7d81610df2565b515192915050565b6000807f00000000000000000000000000000000000000000000000000000000000000006001600160a01b031663461d27628688600188886040518663ffffffff1660e01b8152600401610cdd9594939291906117f8565b6020604051808303816000875af1158015610cfc573d6000803e3d6000fd5b505050506040513d601f19601f82011682018060405250810190610d209190611842565b60405190915081907f1131472297a800fee664d1d89cfa8f7676ff07189ecc53f80bbb5f4969099db890600090a295945050505050565b610d5f6111d0565b8051610d6b9083610e1d565b5060006020820152919050565b610d858260038351610e94565b815161047e9082610fbb565b8151610d9e9060c2610fe3565b50610dca8282604051602001610db691815260200190565b604051602081830303815290604052610e10565b5050565b610dd981600461104c565b600181602001818151610dec919061185b565b90525050565b610dfd81600761104c565b600181602001818151610dec919061186e565b610d858260028351610e94565b604080518082019091526060815260006020820152610e3d602083611881565b15610e6557610e4d602083611881565b610e5890602061186e565b610e62908361185b565b91505b602080840183905260405180855260008152908184010181811015610e8957600080fd5b604052509192915050565b60178167ffffffffffffffff1611610ec1578251610ebb9060e0600585901b168317610fe3565b50505050565b60ff8167ffffffffffffffff1611610f03578251610eea906018611fe0600586901b1617610fe3565b508251610ebb9067ffffffffffffffff83166001611063565b61ffff8167ffffffffffffffff1611610f46578251610f2d906019611fe0600586901b1617610fe3565b508251610ebb9067ffffffffffffffff83166002611063565b63ffffffff8167ffffffffffffffff1611610f8b578251610f7290601a611fe0600586901b1617610fe3565b508251610ebb9067ffffffffffffffff83166004611063565b8251610fa290601b611fe0600586901b1617610fe3565b508251610ebb9067ffffffffffffffff83166008611063565b604080518082019091526060815260006020820152610fdc838384516110e8565b9392505050565b604080518082019091526060815260006020820152825151600061100882600161185b565b90508460200151821061102957611029856110248360026118a3565b6111b9565b8451602083820101858153508051821115611042578181525b5093949350505050565b815161047e90601f611fe0600585901b1617610fe3565b6040805180820190915260608152600060208201528351516000611087828561185b565b905085602001518111156110a4576110a4866110248360026118a3565b600060016110b48661010061199e565b6110be919061186e565b905086518281018783198251161781525080518311156110dc578281525b50959695505050505050565b604080518082019091526060815260006020820152825182111561110b57600080fd5b835151600061111a848361185b565b9050856020015181111561113757611137866110248360026118a3565b855180518382016020019160009180851115611151578482525b505050602086015b60208610611191578051825261117060208361185b565b915061117d60208261185b565b905061118a60208761186e565b9550611159565b51815160001960208890036101000a0190811690199190911617905250849150509392505050565b81516111c58383610e1d565b50610ebb8382610fbb565b60405180604001604052806111f8604051806040016040528060608152602001600081525090565b8152602001600081525090565b634e487b7160e01b600052604160045260246000fd5b600082601f83011261122c57600080fd5b813567ffffffffffffffff8082111561124757611247611205565b604051601f8301601f19908116603f0116810190828211818310171561126f5761126f611205565b8160405283815286602085880101111561128857600080fd5b836020870160208301376000602085830101528094505050505092915050565b6000806000606084860312156112bd57600080fd5b83359250602084013567ffffffffffffffff808211156112dc57600080fd5b6112e88783880161121b565b935060408601359150808211156112fe57600080fd5b5061130b8682870161121b565b9150509250925092565b60005b83811015611330578181015183820152602001611318565b50506000910152565b60008151808452611351816020860160208601611315565b601f01601f19169290920160200192915050565b602081526000610fdc6020830184611339565b803563ffffffff8116811461138c57600080fd5b919050565b6000806000806000608086880312156113a957600080fd5b853567ffffffffffffffff808211156113c157600080fd5b818801915088601f8301126113d557600080fd5b8135818111156113e457600080fd5b8960208285010111156113f657600080fd5b6020928301975095509087013590808216821461141257600080fd5b50925061142160408701611378565b949793965091946060013592915050565b6000806040838503121561144557600080fd5b823567ffffffffffffffff8082111561145d57600080fd5b6114698683870161121b565b9350602085013591508082111561147f57600080fd5b5061148c8582860161121b565b9150509250929050565b6000602082840312156114a857600080fd5b81356001600160a01b0381168114610fdc57600080fd5b600181811c908216806114d357607f821691505b6020821081036114f357634e487b7160e01b600052602260045260246000fd5b50919050565b601f82111561047e57600081815260208120601f850160051c810160208610156115205750805b601f850160051c820191505b8181101561153f5782815560010161152c565b505050505050565b67ffffffffffffffff83111561155f5761155f611205565b6115738361156d83546114bf565b836114f9565b6000601f8411600181146115a7576000851561158f5750838201355b600019600387901b1c1916600186901b178355611601565b600083815260209020601f19861690835b828110156115d857868501358255602094850194600190920191016115b8565b50868210156115f55760001960f88860031b161c19848701351681555b505060018560011b0183555b5050505050565b815167ffffffffffffffff81111561162257611622611205565b6116368161163084546114bf565b846114f9565b602080601f83116001811461166b57600084156116535750858301515b600019600386901b1c1916600185901b17855561153f565b600085815260208120601f198616915b8281101561169a5788860151825594840194600190910190840161167b565b50858210156116b85787850151600019600388901b60f8161c191681555b5050505050600190811b01905550565b6040815260006116db6040830185611339565b82810360208401526116ed8185611339565b95945050505050565b60008251611708818460208701611315565b9190910192915050565b6000602080835260008454611726816114bf565b8084870152604060018084166000811461174757600181146117615761178f565b60ff1985168984015283151560051b89018301955061178f565b896000528660002060005b858110156117875781548b820186015290830190880161176c565b8a0184019650505b509398975050505050505050565b634e487b7160e01b600052603260045260246000fd5b634e487b7160e01b600052602160045260246000fd5b634e487b7160e01b600052601160045260246000fd5b6000600182016117f1576117f16117c9565b5060010190565b67ffffffffffffffff8616815260a06020820152600061181b60a0830187611339565b61ffff9590951660408301525063ffffffff92909216606083015260809091015292915050565b60006020828403121561185457600080fd5b5051919050565b80820180821115610770576107706117c9565b81810381811115610770576107706117c9565b60008261189e57634e487b7160e01b600052601260045260246000fd5b500690565b8082028115828204841417610770576107706117c9565b600181815b808511156118f55781600019048211156118db576118db6117c9565b808516156118e857918102915b93841c93908002906118bf565b509250929050565b60008261190c57506001610770565b8161191957506000610770565b816001811461192f576002811461193957611955565b6001915050610770565b60ff84111561194a5761194a6117c9565b50506001821b610770565b5060208310610133831016604e8410600b8410161715611978575081810a610770565b61198283836118ba565b8060001904821115611996576119966117c9565b029392505050565b6000610fdc83836118fd56fea2646970667358221220c0533436b630b9c6635e5d3dbfbab8b56247e30163006064525f165d13e188e464736f6c63430008130033","opcodes":"PUSH1 0xA0 PUSH1 0x40 MSTORE CALLVALUE DUP1 ISZERO PUSH3 0x11 JUMPI PUSH1 0x0 DUP1 REVERT JUMPDEST POP PUSH1 0x40 MLOAD PUSH3 0x1BB5 CODESIZE SUB DUP1 PUSH3 0x1BB5 DUP4 CODECOPY DUP2 ADD PUSH1 0x40 DUP2 SWAP1 MSTORE PUSH3 0x34 SWAP2 PUSH3 0x180 JUMP JUMPDEST PUSH1 0x1 PUSH1 0x1 PUSH1 0xA0 SHL SUB DUP2 AND PUSH1 0x80 MSTORE CALLER DUP1 PUSH1 0x0 DUP2 PUSH3 0x98 JUMPI PUSH1 0x40 MLOAD PUSH3 0x461BCD PUSH1 0xE5 SHL DUP2 MSTORE PUSH1 0x20 PUSH1 0x4 DUP3 ADD MSTORE PUSH1 0x18 PUSH1 0x24 DUP3 ADD MSTORE PUSH32 0x43616E6E6F7420736574206F776E657220746F207A65726F0000000000000000 PUSH1 0x44 DUP3 ADD MSTORE PUSH1 0x64 ADD JUMPDEST PUSH1 0x40 MLOAD DUP1 SWAP2 SUB SWAP1 REVERT JUMPDEST PUSH1 0x0 DUP1 SLOAD PUSH1 0x1 PUSH1 0x1 PUSH1 0xA0 SHL SUB NOT AND PUSH1 0x1 PUSH1 0x1 PUSH1 0xA0 SHL SUB DUP5 DUP2 AND SWAP2 SWAP1 SWAP2 OR SWAP1 SWAP2 SSTORE DUP2 AND ISZERO PUSH3 0xCB JUMPI PUSH3 0xCB DUP2 PUSH3 0xD5 JUMP JUMPDEST POP POP POP POP PUSH3 0x1B2 JUMP JUMPDEST CALLER PUSH1 0x1 PUSH1 0x1 PUSH1 0xA0 SHL SUB DUP3 AND SUB PUSH3 0x12F JUMPI PUSH1 0x40 MLOAD PUSH3 0x461BCD PUSH1 0xE5 SHL DUP2 MSTORE PUSH1 0x20 PUSH1 0x4 DUP3 ADD MSTORE PUSH1 0x17 PUSH1 0x24 DUP3 ADD MSTORE PUSH32 0x43616E6E6F74207472616E7366657220746F2073656C66000000000000000000 PUSH1 0x44 DUP3 ADD MSTORE PUSH1 0x64 ADD PUSH3 0x8F JUMP JUMPDEST PUSH1 0x1 DUP1 SLOAD PUSH1 0x1 PUSH1 0x1 PUSH1 0xA0 SHL SUB NOT AND PUSH1 0x1 PUSH1 0x1 PUSH1 0xA0 SHL SUB DUP4 DUP2 AND SWAP2 DUP3 OR SWAP1 SWAP3 SSTORE PUSH1 0x0 DUP1 SLOAD PUSH1 0x40 MLOAD SWAP3 SWAP4 AND SWAP2 PUSH32 0xED8889F560326EB138920D842192F0EB3DD22B4F139C87A2C57538E05BAE1278 SWAP2 SWAP1 LOG3 POP JUMP JUMPDEST PUSH1 0x0 PUSH1 0x20 DUP3 DUP5 SUB SLT ISZERO PUSH3 0x193 JUMPI PUSH1 0x0 DUP1 REVERT JUMPDEST DUP2 MLOAD PUSH1 0x1 PUSH1 0x1 PUSH1 0xA0 SHL SUB DUP2 AND DUP2 EQ PUSH3 0x1AB JUMPI PUSH1 0x0 DUP1 REVERT JUMPDEST SWAP4 SWAP3 POP POP POP JUMP JUMPDEST PUSH1 0x80 MLOAD PUSH2 0x19E0 PUSH3 0x1D5 PUSH1 0x0 CODECOPY PUSH1 0x0 DUP2 DUP2 PUSH2 0x21B ADD MSTORE PUSH2 0xC8A ADD MSTORE PUSH2 0x19E0 PUSH1 0x0 RETURN INVALID PUSH1 0x80 PUSH1 0x40 MSTORE CALLVALUE DUP1 ISZERO PUSH2 0x10 JUMPI PUSH1 0x0 DUP1 REVERT JUMPDEST POP PUSH1 0x4 CALLDATASIZE LT PUSH2 0xEA JUMPI PUSH1 0x0 CALLDATALOAD PUSH1 0xE0 SHR DUP1 PUSH4 0x8DA5CB5B GT PUSH2 0x8C JUMPI DUP1 PUSH4 0xBEF3A2F0 GT PUSH2 0x66 JUMPI DUP1 PUSH4 0xBEF3A2F0 EQ PUSH2 0x1DA JUMPI DUP1 PUSH4 0xBF2D0DAF EQ PUSH2 0x1E2 JUMPI DUP1 PUSH4 0xF2FDE38B EQ PUSH2 0x1F5 JUMPI DUP1 PUSH4 0xFFFEB84E EQ PUSH2 0x208 JUMPI PUSH1 0x0 DUP1 REVERT JUMPDEST DUP1 PUSH4 0x8DA5CB5B EQ PUSH2 0x1A3 JUMPI DUP1 PUSH4 0x8DBE7B9D EQ PUSH2 0x1BE JUMPI DUP1 PUSH4 0xAE0CCD2E EQ PUSH2 0x1C7 JUMPI PUSH1 0x0 DUP1 REVERT JUMPDEST DUP1 PUSH4 0x24F74697 GT PUSH2 0xC8 JUMPI DUP1 PUSH4 0x24F74697 EQ PUSH2 0x14D JUMPI DUP1 PUSH4 0x67E828BF EQ PUSH2 0x17E JUMPI DUP1 PUSH4 0x6A2EA57E EQ PUSH2 0x193 JUMPI DUP1 PUSH4 0x79BA5097 EQ PUSH2 0x19B JUMPI PUSH1 0x0 DUP1 REVERT JUMPDEST DUP1 PUSH4 0x9C1BA2E EQ PUSH2 0xEF JUMPI DUP1 PUSH4 0xCA76175 EQ PUSH2 0x121 JUMPI DUP1 PUSH4 0x1AA46F59 EQ PUSH2 0x136 JUMPI JUMPDEST PUSH1 0x0 DUP1 REVERT JUMPDEST PUSH1 0x3 SLOAD PUSH2 0x103 SWAP1 PUSH8 0xFFFFFFFFFFFFFFFF AND DUP2 JUMP JUMPDEST PUSH1 0x40 MLOAD PUSH8 0xFFFFFFFFFFFFFFFF SWAP1 SWAP2 AND DUP2 MSTORE PUSH1 0x20 ADD JUMPDEST PUSH1 0x40 MLOAD DUP1 SWAP2 SUB SWAP1 RETURN JUMPDEST PUSH2 0x134 PUSH2 0x12F CALLDATASIZE PUSH1 0x4 PUSH2 0x12A8 JUMP JUMPDEST PUSH2 0x210 JUMP JUMPDEST STOP JUMPDEST PUSH2 0x13F PUSH1 0x5 SLOAD DUP2 JUMP JUMPDEST PUSH1 0x40 MLOAD SWAP1 DUP2 MSTORE PUSH1 0x20 ADD PUSH2 0x118 JUMP JUMPDEST PUSH1 0x3 SLOAD PUSH2 0x169 SWAP1 PUSH9 0x10000000000000000 SWAP1 DIV PUSH4 0xFFFFFFFF AND DUP2 JUMP JUMPDEST PUSH1 0x40 MLOAD PUSH4 0xFFFFFFFF SWAP1 SWAP2 AND DUP2 MSTORE PUSH1 0x20 ADD PUSH2 0x118 JUMP JUMPDEST PUSH2 0x186 PUSH2 0x2AD JUMP JUMPDEST PUSH1 0x40 MLOAD PUSH2 0x118 SWAP2 SWAP1 PUSH2 0x1365 JUMP JUMPDEST PUSH2 0x186 PUSH2 0x33B JUMP JUMPDEST PUSH2 0x134 PUSH2 0x348 JUMP JUMPDEST PUSH1 0x0 SLOAD PUSH1 0x40 MLOAD PUSH1 0x1 PUSH1 0x1 PUSH1 0xA0 SHL SUB SWAP1 SWAP2 AND DUP2 MSTORE PUSH1 0x20 ADD PUSH2 0x118 JUMP JUMPDEST PUSH2 0x13F PUSH1 0x4 SLOAD DUP2 JUMP JUMPDEST PUSH2 0x134 PUSH2 0x1D5 CALLDATASIZE PUSH1 0x4 PUSH2 0x1391 JUMP JUMPDEST PUSH2 0x40B JUMP JUMPDEST PUSH2 0x186 PUSH2 0x467 JUMP JUMPDEST PUSH2 0x134 PUSH2 0x1F0 CALLDATASIZE PUSH1 0x4 PUSH2 0x1432 JUMP JUMPDEST PUSH2 0x474 JUMP JUMPDEST PUSH2 0x134 PUSH2 0x203 CALLDATASIZE PUSH1 0x4 PUSH2 0x1496 JUMP JUMPDEST PUSH2 0x483 JUMP JUMPDEST PUSH2 0x186 PUSH2 0x497 JUMP JUMPDEST CALLER PUSH1 0x1 PUSH1 0x1 PUSH1 0xA0 SHL SUB PUSH32 0x0 AND EQ PUSH2 0x272 JUMPI PUSH1 0x40 MLOAD PUSH32 0xC6829F8300000000000000000000000000000000000000000000000000000000 DUP2 MSTORE PUSH1 0x4 ADD PUSH1 0x40 MLOAD DUP1 SWAP2 SUB SWAP1 REVERT JUMPDEST PUSH2 0x27D DUP4 DUP4 DUP4 PUSH2 0x4A4 JUMP JUMPDEST PUSH1 0x40 MLOAD DUP4 SWAP1 PUSH32 0x85E1543BF2F84FE80C6BADBCE3648C8539AD1DF4D2B3D822938CA0538BE727E6 SWAP1 PUSH1 0x0 SWAP1 LOG2 POP POP POP JUMP JUMPDEST PUSH1 0x2 DUP1 SLOAD PUSH2 0x2BA SWAP1 PUSH2 0x14BF JUMP JUMPDEST DUP1 PUSH1 0x1F ADD PUSH1 0x20 DUP1 SWAP2 DIV MUL PUSH1 0x20 ADD PUSH1 0x40 MLOAD SWAP1 DUP2 ADD PUSH1 0x40 MSTORE DUP1 SWAP3 SWAP2 SWAP1 DUP2 DUP2 MSTORE PUSH1 0x20 ADD DUP3 DUP1 SLOAD PUSH2 0x2E6 SWAP1 PUSH2 0x14BF JUMP JUMPDEST DUP1 ISZERO PUSH2 0x333 JUMPI DUP1 PUSH1 0x1F LT PUSH2 0x308 JUMPI PUSH2 0x100 DUP1 DUP4 SLOAD DIV MUL DUP4 MSTORE SWAP2 PUSH1 0x20 ADD SWAP2 PUSH2 0x333 JUMP JUMPDEST DUP3 ADD SWAP2 SWAP1 PUSH1 0x0 MSTORE PUSH1 0x20 PUSH1 0x0 KECCAK256 SWAP1 JUMPDEST DUP2 SLOAD DUP2 MSTORE SWAP1 PUSH1 0x1 ADD SWAP1 PUSH1 0x20 ADD DUP1 DUP4 GT PUSH2 0x316 JUMPI DUP3 SWAP1 SUB PUSH1 0x1F AND DUP3 ADD SWAP2 JUMPDEST POP POP POP POP POP DUP2 JUMP JUMPDEST PUSH1 0x8 DUP1 SLOAD PUSH2 0x2BA SWAP1 PUSH2 0x14BF JUMP JUMPDEST PUSH1 0x1 SLOAD PUSH1 0x1 PUSH1 0x1 PUSH1 0xA0 SHL SUB AND CALLER EQ PUSH2 0x3A7 JUMPI PUSH1 0x40 MLOAD PUSH3 0x461BCD PUSH1 0xE5 SHL DUP2 MSTORE PUSH1 0x20 PUSH1 0x4 DUP3 ADD MSTORE PUSH1 0x16 PUSH1 0x24 DUP3 ADD MSTORE PUSH32 0x4D7573742062652070726F706F736564206F776E657200000000000000000000 PUSH1 0x44 DUP3 ADD MSTORE PUSH1 0x64 ADD JUMPDEST PUSH1 0x40 MLOAD DUP1 SWAP2 SUB SWAP1 REVERT JUMPDEST PUSH1 0x0 DUP1 SLOAD CALLER PUSH20 0xFFFFFFFFFFFFFFFFFFFFFFFFFFFFFFFFFFFFFFFF NOT DUP1 DUP4 AND DUP3 OR DUP5 SSTORE PUSH1 0x1 DUP1 SLOAD SWAP1 SWAP2 AND SWAP1 SSTORE PUSH1 0x40 MLOAD PUSH1 0x1 PUSH1 0x1 PUSH1 0xA0 SHL SUB SWAP1 SWAP3 AND SWAP3 SWAP1 SWAP2 DUP4 SWAP2 PUSH32 0x8BE0079C531659141344CD1FD0A4F28419497F9722A3DAAFE3B4186F6B6457E0 SWAP2 LOG3 POP JUMP JUMPDEST PUSH2 0x413 PUSH2 0x564 JUMP JUMPDEST PUSH1 0x2 PUSH2 0x420 DUP6 DUP8 DUP4 PUSH2 0x1547 JUMP JUMPDEST POP PUSH1 0x3 DUP1 SLOAD PUSH4 0xFFFFFFFF SWAP1 SWAP4 AND PUSH9 0x10000000000000000 MUL PUSH12 0xFFFFFFFFFFFFFFFFFFFFFFFF NOT SWAP1 SWAP4 AND PUSH8 0xFFFFFFFFFFFFFFFF SWAP1 SWAP5 AND SWAP4 SWAP1 SWAP4 OR SWAP2 SWAP1 SWAP2 OR SWAP1 SWAP2 SSTORE PUSH1 0x4 SSTORE POP POP JUMP JUMPDEST PUSH1 0x6 DUP1 SLOAD PUSH2 0x2BA SWAP1 PUSH2 0x14BF JUMP JUMPDEST PUSH2 0x47E DUP3 DUP3 PUSH2 0x5C0 JUMP JUMPDEST POP POP POP JUMP JUMPDEST PUSH2 0x48B PUSH2 0x564 JUMP JUMPDEST PUSH2 0x494 DUP2 PUSH2 0x776 JUMP JUMPDEST POP JUMP JUMPDEST PUSH1 0x7 DUP1 SLOAD PUSH2 0x2BA SWAP1 PUSH2 0x14BF JUMP JUMPDEST PUSH1 0x6 PUSH2 0x4B0 DUP4 DUP3 PUSH2 0x1608 JUMP JUMPDEST POP PUSH1 0x7 PUSH2 0x4BD DUP3 DUP3 PUSH2 0x1608 JUMP JUMPDEST POP DUP3 PUSH32 0x7BAB0EC163B5C132C72B8146AC4D6E067E82ED58F8B131150AA71C9258911562 DUP4 DUP4 PUSH1 0x40 MLOAD PUSH2 0x4F0 SWAP3 SWAP2 SWAP1 PUSH2 0x16C8 JUMP JUMPDEST PUSH1 0x40 MLOAD DUP1 SWAP2 SUB SWAP1 LOG2 DUP2 PUSH1 0x40 MLOAD PUSH1 0x20 ADD PUSH2 0x509 SWAP2 SWAP1 PUSH2 0x16F6 JUMP JUMPDEST PUSH1 0x40 MLOAD PUSH1 0x20 DUP2 DUP4 SUB SUB DUP2 MSTORE SWAP1 PUSH1 0x40 MSTORE PUSH1 0x8 SWAP1 DUP2 PUSH2 0x526 SWAP2 SWAP1 PUSH2 0x1608 JUMP JUMPDEST POP PUSH32 0x52D7BD047435A6A678D62544F6963D4A396087E6D16E5A9CEC313501967F6033 PUSH1 0x8 PUSH1 0x40 MLOAD PUSH2 0x557 SWAP2 SWAP1 PUSH2 0x1712 JUMP JUMPDEST PUSH1 0x40 MLOAD DUP1 SWAP2 SUB SWAP1 LOG1 POP POP POP JUMP JUMPDEST PUSH1 0x0 SLOAD PUSH1 0x1 PUSH1 0x1 PUSH1 0xA0 SHL SUB AND CALLER EQ PUSH2 0x5BE JUMPI PUSH1 0x40 MLOAD PUSH3 0x461BCD PUSH1 0xE5 SHL DUP2 MSTORE PUSH1 0x20 PUSH1 0x4 DUP3 ADD MSTORE PUSH1 0x16 PUSH1 0x24 DUP3 ADD MSTORE PUSH32 0x4F6E6C792063616C6C61626C65206279206F776E657200000000000000000000 PUSH1 0x44 DUP3 ADD MSTORE PUSH1 0x64 ADD PUSH2 0x39E JUMP JUMPDEST JUMP JUMPDEST PUSH1 0x0 PUSH2 0x5CA PUSH2 0x564 JUMP JUMPDEST PUSH2 0x60B PUSH1 0x40 DUP1 MLOAD PUSH1 0xE0 DUP2 ADD SWAP1 SWAP2 MSTORE DUP1 PUSH1 0x0 DUP2 MSTORE PUSH1 0x20 ADD PUSH1 0x0 DUP2 MSTORE PUSH1 0x20 ADD PUSH1 0x0 DUP2 MSTORE PUSH1 0x20 ADD PUSH1 0x60 DUP2 MSTORE PUSH1 0x20 ADD PUSH1 0x60 DUP2 MSTORE PUSH1 0x20 ADD PUSH1 0x60 DUP2 MSTORE PUSH1 0x20 ADD PUSH1 0x60 DUP2 MSTORE POP SWAP1 JUMP JUMPDEST PUSH2 0x6AD PUSH1 0x0 DUP1 PUSH1 0x2 DUP1 SLOAD PUSH2 0x61E SWAP1 PUSH2 0x14BF JUMP JUMPDEST DUP1 PUSH1 0x1F ADD PUSH1 0x20 DUP1 SWAP2 DIV MUL PUSH1 0x20 ADD PUSH1 0x40 MLOAD SWAP1 DUP2 ADD PUSH1 0x40 MSTORE DUP1 SWAP3 SWAP2 SWAP1 DUP2 DUP2 MSTORE PUSH1 0x20 ADD DUP3 DUP1 SLOAD PUSH2 0x64A SWAP1 PUSH2 0x14BF JUMP JUMPDEST DUP1 ISZERO PUSH2 0x697 JUMPI DUP1 PUSH1 0x1F LT PUSH2 0x66C JUMPI PUSH2 0x100 DUP1 DUP4 SLOAD DIV MUL DUP4 MSTORE SWAP2 PUSH1 0x20 ADD SWAP2 PUSH2 0x697 JUMP JUMPDEST DUP3 ADD SWAP2 SWAP1 PUSH1 0x0 MSTORE PUSH1 0x20 PUSH1 0x0 KECCAK256 SWAP1 JUMPDEST DUP2 SLOAD DUP2 MSTORE SWAP1 PUSH1 0x1 ADD SWAP1 PUSH1 0x20 ADD DUP1 DUP4 GT PUSH2 0x67A JUMPI DUP3 SWAP1 SUB PUSH1 0x1F AND DUP3 ADD SWAP2 JUMPDEST POP POP POP POP POP DUP5 PUSH2 0x82C SWAP1 SWAP4 SWAP3 SWAP2 SWAP1 PUSH4 0xFFFFFFFF AND JUMP JUMPDEST PUSH1 0x40 DUP1 MLOAD PUSH1 0x1 DUP1 DUP3 MSTORE DUP2 DUP4 ADD SWAP1 SWAP3 MSTORE PUSH1 0x0 SWAP2 DUP2 PUSH1 0x20 ADD JUMPDEST PUSH1 0x60 DUP2 MSTORE PUSH1 0x20 ADD SWAP1 PUSH1 0x1 SWAP1 SUB SWAP1 DUP2 PUSH2 0x6C4 JUMPI SWAP1 POP POP SWAP1 POP DUP5 DUP2 PUSH1 0x0 DUP2 MLOAD DUP2 LT PUSH2 0x6EF JUMPI PUSH2 0x6EF PUSH2 0x179D JUMP JUMPDEST PUSH1 0x20 MUL PUSH1 0x20 ADD ADD DUP2 SWAP1 MSTORE POP DUP4 DUP2 PUSH1 0x1 DUP2 MLOAD DUP2 LT PUSH2 0x70E JUMPI PUSH2 0x70E PUSH2 0x179D JUMP JUMPDEST PUSH1 0x20 MUL PUSH1 0x20 ADD ADD DUP2 SWAP1 MSTORE POP PUSH1 0x1 DUP2 MLOAD GT ISZERO PUSH2 0x72D JUMPI PUSH2 0x72D DUP3 DUP3 PUSH2 0x8C3 JUMP JUMPDEST PUSH1 0x0 PUSH2 0x765 PUSH2 0x73B DUP5 PUSH2 0x906 JUMP JUMPDEST PUSH1 0x3 SLOAD PUSH1 0x4 SLOAD PUSH8 0xFFFFFFFFFFFFFFFF DUP3 AND SWAP2 PUSH9 0x10000000000000000 SWAP1 DIV PUSH4 0xFFFFFFFF AND SWAP1 PUSH2 0xC85 JUMP JUMPDEST PUSH1 0x5 DUP2 SWAP1 SSTORE SWAP4 POP POP POP POP JUMPDEST SWAP3 SWAP2 POP POP JUMP JUMPDEST CALLER PUSH1 0x1 PUSH1 0x1 PUSH1 0xA0 SHL SUB DUP3 AND SUB PUSH2 0x7CE JUMPI PUSH1 0x40 MLOAD PUSH3 0x461BCD PUSH1 0xE5 SHL DUP2 MSTORE PUSH1 0x20 PUSH1 0x4 DUP3 ADD MSTORE PUSH1 0x17 PUSH1 0x24 DUP3 ADD MSTORE PUSH32 0x43616E6E6F74207472616E7366657220746F2073656C66000000000000000000 PUSH1 0x44 DUP3 ADD MSTORE PUSH1 0x64 ADD PUSH2 0x39E JUMP JUMPDEST PUSH1 0x1 DUP1 SLOAD PUSH20 0xFFFFFFFFFFFFFFFFFFFFFFFFFFFFFFFFFFFFFFFF NOT AND PUSH1 0x1 PUSH1 0x1 PUSH1 0xA0 SHL SUB DUP4 DUP2 AND SWAP2 DUP3 OR SWAP1 SWAP3 SSTORE PUSH1 0x0 DUP1 SLOAD PUSH1 0x40 MLOAD SWAP3 SWAP4 AND SWAP2 PUSH32 0xED8889F560326EB138920D842192F0EB3DD22B4F139C87A2C57538E05BAE1278 SWAP2 SWAP1 LOG3 POP JUMP JUMPDEST DUP1 MLOAD PUSH1 0x0 SUB PUSH2 0x867 JUMPI PUSH1 0x40 MLOAD PUSH32 0x22CE3EDD00000000000000000000000000000000000000000000000000000000 DUP2 MSTORE PUSH1 0x4 ADD PUSH1 0x40 MLOAD DUP1 SWAP2 SUB SWAP1 REVERT JUMPDEST DUP4 DUP4 PUSH1 0x2 DUP2 GT ISZERO PUSH2 0x87A JUMPI PUSH2 0x87A PUSH2 0x17B3 JUMP JUMPDEST SWAP1 DUP2 PUSH1 0x2 DUP2 GT ISZERO PUSH2 0x88D JUMPI PUSH2 0x88D PUSH2 0x17B3 JUMP JUMPDEST SWAP1 MSTORE POP PUSH1 0x40 DUP5 ADD DUP3 DUP1 ISZERO PUSH2 0x8A3 JUMPI PUSH2 0x8A3 PUSH2 0x17B3 JUMP JUMPDEST SWAP1 DUP2 DUP1 ISZERO PUSH2 0x8B3 JUMPI PUSH2 0x8B3 PUSH2 0x17B3 JUMP JUMPDEST SWAP1 MSTORE POP PUSH1 0x60 SWAP1 SWAP4 ADD SWAP3 SWAP1 SWAP3 MSTORE POP POP JUMP JUMPDEST DUP1 MLOAD PUSH1 0x0 SUB PUSH2 0x8FE JUMPI PUSH1 0x40 MLOAD PUSH32 0xFE936CB700000000000000000000000000000000000000000000000000000000 DUP2 MSTORE PUSH1 0x4 ADD PUSH1 0x40 MLOAD DUP1 SWAP2 SUB SWAP1 REVERT JUMPDEST PUSH1 0xA0 SWAP1 SWAP2 ADD MSTORE JUMP JUMPDEST PUSH1 0x60 PUSH1 0x0 PUSH2 0x915 PUSH2 0x100 PUSH2 0xD57 JUMP JUMPDEST SWAP1 POP PUSH2 0x95F PUSH1 0x40 MLOAD DUP1 PUSH1 0x40 ADD PUSH1 0x40 MSTORE DUP1 PUSH1 0xC DUP2 MSTORE PUSH1 0x20 ADD PUSH32 0x636F64654C6F636174696F6E0000000000000000000000000000000000000000 DUP2 MSTORE POP DUP3 PUSH2 0xD78 SWAP1 SWAP2 SWAP1 PUSH4 0xFFFFFFFF AND JUMP JUMPDEST DUP3 MLOAD PUSH2 0x97D SWAP1 PUSH1 0x2 DUP2 GT ISZERO PUSH2 0x976 JUMPI PUSH2 0x976 PUSH2 0x17B3 JUMP JUMPDEST DUP3 SWAP1 PUSH2 0xD91 JUMP JUMPDEST PUSH1 0x40 DUP1 MLOAD DUP1 DUP3 ADD SWAP1 SWAP2 MSTORE PUSH1 0x8 DUP2 MSTORE PUSH32 0x6C616E6775616765000000000000000000000000000000000000000000000000 PUSH1 0x20 DUP3 ADD MSTORE PUSH2 0x9BC SWAP1 DUP3 SWAP1 PUSH2 0xD78 JUMP JUMPDEST PUSH1 0x40 DUP4 ADD MLOAD PUSH2 0x9D3 SWAP1 DUP1 ISZERO PUSH2 0x976 JUMPI PUSH2 0x976 PUSH2 0x17B3 JUMP JUMPDEST PUSH1 0x40 DUP1 MLOAD DUP1 DUP3 ADD SWAP1 SWAP2 MSTORE PUSH1 0x6 DUP2 MSTORE PUSH32 0x736F757263650000000000000000000000000000000000000000000000000000 PUSH1 0x20 DUP3 ADD MSTORE PUSH2 0xA12 SWAP1 DUP3 SWAP1 PUSH2 0xD78 JUMP JUMPDEST PUSH1 0x60 DUP4 ADD MLOAD PUSH2 0xA22 SWAP1 DUP3 SWAP1 PUSH2 0xD78 JUMP JUMPDEST PUSH1 0xA0 DUP4 ADD MLOAD MLOAD ISZERO PUSH2 0xACF JUMPI PUSH1 0x40 DUP1 MLOAD DUP1 DUP3 ADD SWAP1 SWAP2 MSTORE PUSH1 0x4 DUP2 MSTORE PUSH32 0x6172677300000000000000000000000000000000000000000000000000000000 PUSH1 0x20 DUP3 ADD MSTORE PUSH2 0xA6C SWAP1 DUP3 SWAP1 PUSH2 0xD78 JUMP JUMPDEST PUSH2 0xA75 DUP2 PUSH2 0xDCE JUMP JUMPDEST PUSH1 0x0 JUMPDEST DUP4 PUSH1 0xA0 ADD MLOAD MLOAD DUP2 LT ISZERO PUSH2 0xAC5 JUMPI PUSH2 0xAB5 DUP5 PUSH1 0xA0 ADD MLOAD DUP3 DUP2 MLOAD DUP2 LT PUSH2 0xA9E JUMPI PUSH2 0xA9E PUSH2 0x179D JUMP JUMPDEST PUSH1 0x20 MUL PUSH1 0x20 ADD ADD MLOAD DUP4 PUSH2 0xD78 SWAP1 SWAP2 SWAP1 PUSH4 0xFFFFFFFF AND JUMP JUMPDEST PUSH2 0xABE DUP2 PUSH2 0x17DF JUMP JUMPDEST SWAP1 POP PUSH2 0xA78 JUMP JUMPDEST POP PUSH2 0xACF DUP2 PUSH2 0xDF2 JUMP JUMPDEST PUSH1 0x80 DUP4 ADD MLOAD MLOAD ISZERO PUSH2 0xBD0 JUMPI PUSH1 0x0 DUP4 PUSH1 0x20 ADD MLOAD PUSH1 0x2 DUP2 GT ISZERO PUSH2 0xAF2 JUMPI PUSH2 0xAF2 PUSH2 0x17B3 JUMP JUMPDEST SUB PUSH2 0xB29 JUMPI PUSH1 0x40 MLOAD PUSH32 0xA80D31F700000000000000000000000000000000000000000000000000000000 DUP2 MSTORE PUSH1 0x4 ADD PUSH1 0x40 MLOAD DUP1 SWAP2 SUB SWAP1 REVERT JUMPDEST PUSH1 0x40 DUP1 MLOAD DUP1 DUP3 ADD SWAP1 SWAP2 MSTORE PUSH1 0xF DUP2 MSTORE PUSH32 0x736563726574734C6F636174696F6E0000000000000000000000000000000000 PUSH1 0x20 DUP3 ADD MSTORE PUSH2 0xB68 SWAP1 DUP3 SWAP1 PUSH2 0xD78 JUMP JUMPDEST PUSH2 0xB81 DUP4 PUSH1 0x20 ADD MLOAD PUSH1 0x2 DUP2 GT ISZERO PUSH2 0x976 JUMPI PUSH2 0x976 PUSH2 0x17B3 JUMP JUMPDEST PUSH1 0x40 DUP1 MLOAD DUP1 DUP3 ADD SWAP1 SWAP2 MSTORE PUSH1 0x7 DUP2 MSTORE PUSH32 0x7365637265747300000000000000000000000000000000000000000000000000 PUSH1 0x20 DUP3 ADD MSTORE PUSH2 0xBC0 SWAP1 DUP3 SWAP1 PUSH2 0xD78 JUMP JUMPDEST PUSH1 0x80 DUP4 ADD MLOAD PUSH2 0xBD0 SWAP1 DUP3 SWAP1 PUSH2 0xE10 JUMP JUMPDEST PUSH1 0xC0 DUP4 ADD MLOAD MLOAD ISZERO PUSH2 0xC7D JUMPI PUSH1 0x40 DUP1 MLOAD DUP1 DUP3 ADD SWAP1 SWAP2 MSTORE PUSH1 0x9 DUP2 MSTORE PUSH32 0x6279746573417267730000000000000000000000000000000000000000000000 PUSH1 0x20 DUP3 ADD MSTORE PUSH2 0xC1A SWAP1 DUP3 SWAP1 PUSH2 0xD78 JUMP JUMPDEST PUSH2 0xC23 DUP2 PUSH2 0xDCE JUMP JUMPDEST PUSH1 0x0 JUMPDEST DUP4 PUSH1 0xC0 ADD MLOAD MLOAD DUP2 LT ISZERO PUSH2 0xC73 JUMPI PUSH2 0xC63 DUP5 PUSH1 0xC0 ADD MLOAD DUP3 DUP2 MLOAD DUP2 LT PUSH2 0xC4C JUMPI PUSH2 0xC4C PUSH2 0x179D JUMP JUMPDEST PUSH1 0x20 MUL PUSH1 0x20 ADD ADD MLOAD DUP4 PUSH2 0xE10 SWAP1 SWAP2 SWAP1 PUSH4 0xFFFFFFFF AND JUMP JUMPDEST PUSH2 0xC6C DUP2 PUSH2 0x17DF JUMP JUMPDEST SWAP1 POP PUSH2 0xC26 JUMP JUMPDEST POP PUSH2 0xC7D DUP2 PUSH2 0xDF2 JUMP JUMPDEST MLOAD MLOAD SWAP3 SWAP2 POP POP JUMP JUMPDEST PUSH1 0x0 DUP1 PUSH32 0x0 PUSH1 0x1 PUSH1 0x1 PUSH1 0xA0 SHL SUB AND PUSH4 0x461D2762 DUP7 DUP9 PUSH1 0x1 DUP9 DUP9 PUSH1 0x40 MLOAD DUP7 PUSH4 0xFFFFFFFF AND PUSH1 0xE0 SHL DUP2 MSTORE PUSH1 0x4 ADD PUSH2 0xCDD SWAP6 SWAP5 SWAP4 SWAP3 SWAP2 SWAP1 PUSH2 0x17F8 JUMP JUMPDEST PUSH1 0x20 PUSH1 0x40 MLOAD DUP1 DUP4 SUB DUP2 PUSH1 0x0 DUP8 GAS CALL ISZERO DUP1 ISZERO PUSH2 0xCFC JUMPI RETURNDATASIZE PUSH1 0x0 DUP1 RETURNDATACOPY RETURNDATASIZE PUSH1 0x0 REVERT JUMPDEST POP POP POP POP PUSH1 0x40 MLOAD RETURNDATASIZE PUSH1 0x1F NOT PUSH1 0x1F DUP3 ADD AND DUP3 ADD DUP1 PUSH1 0x40 MSTORE POP DUP2 ADD SWAP1 PUSH2 0xD20 SWAP2 SWAP1 PUSH2 0x1842 JUMP JUMPDEST PUSH1 0x40 MLOAD SWAP1 SWAP2 POP DUP2 SWAP1 PUSH32 0x1131472297A800FEE664D1D89CFA8F7676FF07189ECC53F80BBB5F4969099DB8 SWAP1 PUSH1 0x0 SWAP1 LOG2 SWAP6 SWAP5 POP POP POP POP POP JUMP JUMPDEST PUSH2 0xD5F PUSH2 0x11D0 JUMP JUMPDEST DUP1 MLOAD PUSH2 0xD6B SWAP1 DUP4 PUSH2 0xE1D JUMP JUMPDEST POP PUSH1 0x0 PUSH1 0x20 DUP3 ADD MSTORE SWAP2 SWAP1 POP JUMP JUMPDEST PUSH2 0xD85 DUP3 PUSH1 0x3 DUP4 MLOAD PUSH2 0xE94 JUMP JUMPDEST DUP2 MLOAD PUSH2 0x47E SWAP1 DUP3 PUSH2 0xFBB JUMP JUMPDEST DUP2 MLOAD PUSH2 0xD9E SWAP1 PUSH1 0xC2 PUSH2 0xFE3 JUMP JUMPDEST POP PUSH2 0xDCA DUP3 DUP3 PUSH1 0x40 MLOAD PUSH1 0x20 ADD PUSH2 0xDB6 SWAP2 DUP2 MSTORE PUSH1 0x20 ADD SWAP1 JUMP JUMPDEST PUSH1 0x40 MLOAD PUSH1 0x20 DUP2 DUP4 SUB SUB DUP2 MSTORE SWAP1 PUSH1 0x40 MSTORE PUSH2 0xE10 JUMP JUMPDEST POP POP JUMP JUMPDEST PUSH2 0xDD9 DUP2 PUSH1 0x4 PUSH2 0x104C JUMP JUMPDEST PUSH1 0x1 DUP2 PUSH1 0x20 ADD DUP2 DUP2 MLOAD PUSH2 0xDEC SWAP2 SWAP1 PUSH2 0x185B JUMP JUMPDEST SWAP1 MSTORE POP POP JUMP JUMPDEST PUSH2 0xDFD DUP2 PUSH1 0x7 PUSH2 0x104C JUMP JUMPDEST PUSH1 0x1 DUP2 PUSH1 0x20 ADD DUP2 DUP2 MLOAD PUSH2 0xDEC SWAP2 SWAP1 PUSH2 0x186E JUMP JUMPDEST PUSH2 0xD85 DUP3 PUSH1 0x2 DUP4 MLOAD PUSH2 0xE94 JUMP JUMPDEST PUSH1 0x40 DUP1 MLOAD DUP1 DUP3 ADD SWAP1 SWAP2 MSTORE PUSH1 0x60 DUP2 MSTORE PUSH1 0x0 PUSH1 0x20 DUP3 ADD MSTORE PUSH2 0xE3D PUSH1 0x20 DUP4 PUSH2 0x1881 JUMP JUMPDEST ISZERO PUSH2 0xE65 JUMPI PUSH2 0xE4D PUSH1 0x20 DUP4 PUSH2 0x1881 JUMP JUMPDEST PUSH2 0xE58 SWAP1 PUSH1 0x20 PUSH2 0x186E JUMP JUMPDEST PUSH2 0xE62 SWAP1 DUP4 PUSH2 0x185B JUMP JUMPDEST SWAP2 POP JUMPDEST PUSH1 0x20 DUP1 DUP5 ADD DUP4 SWAP1 MSTORE PUSH1 0x40 MLOAD DUP1 DUP6 MSTORE PUSH1 0x0 DUP2 MSTORE SWAP1 DUP2 DUP5 ADD ADD DUP2 DUP2 LT ISZERO PUSH2 0xE89 JUMPI PUSH1 0x0 DUP1 REVERT JUMPDEST PUSH1 0x40 MSTORE POP SWAP2 SWAP3 SWAP2 POP POP JUMP JUMPDEST PUSH1 0x17 DUP2 PUSH8 0xFFFFFFFFFFFFFFFF AND GT PUSH2 0xEC1 JUMPI DUP3 MLOAD PUSH2 0xEBB SWAP1 PUSH1 0xE0 PUSH1 0x5 DUP6 SWAP1 SHL AND DUP4 OR PUSH2 0xFE3 JUMP JUMPDEST POP POP POP POP JUMP JUMPDEST PUSH1 0xFF DUP2 PUSH8 0xFFFFFFFFFFFFFFFF AND GT PUSH2 0xF03 JUMPI DUP3 MLOAD PUSH2 0xEEA SWAP1 PUSH1 0x18 PUSH2 0x1FE0 PUSH1 0x5 DUP7 SWAP1 SHL AND OR PUSH2 0xFE3 JUMP JUMPDEST POP DUP3 MLOAD PUSH2 0xEBB SWAP1 PUSH8 0xFFFFFFFFFFFFFFFF DUP4 AND PUSH1 0x1 PUSH2 0x1063 JUMP JUMPDEST PUSH2 0xFFFF DUP2 PUSH8 0xFFFFFFFFFFFFFFFF AND GT PUSH2 0xF46 JUMPI DUP3 MLOAD PUSH2 0xF2D SWAP1 PUSH1 0x19 PUSH2 0x1FE0 PUSH1 0x5 DUP7 SWAP1 SHL AND OR PUSH2 0xFE3 JUMP JUMPDEST POP DUP3 MLOAD PUSH2 0xEBB SWAP1 PUSH8 0xFFFFFFFFFFFFFFFF DUP4 AND PUSH1 0x2 PUSH2 0x1063 JUMP JUMPDEST PUSH4 0xFFFFFFFF DUP2 PUSH8 0xFFFFFFFFFFFFFFFF AND GT PUSH2 0xF8B JUMPI DUP3 MLOAD PUSH2 0xF72 SWAP1 PUSH1 0x1A PUSH2 0x1FE0 PUSH1 0x5 DUP7 SWAP1 SHL AND OR PUSH2 0xFE3 JUMP JUMPDEST POP DUP3 MLOAD PUSH2 0xEBB SWAP1 PUSH8 0xFFFFFFFFFFFFFFFF DUP4 AND PUSH1 0x4 PUSH2 0x1063 JUMP JUMPDEST DUP3 MLOAD PUSH2 0xFA2 SWAP1 PUSH1 0x1B PUSH2 0x1FE0 PUSH1 0x5 DUP7 SWAP1 SHL AND OR PUSH2 0xFE3 JUMP JUMPDEST POP DUP3 MLOAD PUSH2 0xEBB SWAP1 PUSH8 0xFFFFFFFFFFFFFFFF DUP4 AND PUSH1 0x8 PUSH2 0x1063 JUMP JUMPDEST PUSH1 0x40 DUP1 MLOAD DUP1 DUP3 ADD SWAP1 SWAP2 MSTORE PUSH1 0x60 DUP2 MSTORE PUSH1 0x0 PUSH1 0x20 DUP3 ADD MSTORE PUSH2 0xFDC DUP4 DUP4 DUP5 MLOAD PUSH2 0x10E8 JUMP JUMPDEST SWAP4 SWAP3 POP POP POP JUMP JUMPDEST PUSH1 0x40 DUP1 MLOAD DUP1 DUP3 ADD SWAP1 SWAP2 MSTORE PUSH1 0x60 DUP2 MSTORE PUSH1 0x0 PUSH1 0x20 DUP3 ADD MSTORE DUP3 MLOAD MLOAD PUSH1 0x0 PUSH2 0x1008 DUP3 PUSH1 0x1 PUSH2 0x185B JUMP JUMPDEST SWAP1 POP DUP5 PUSH1 0x20 ADD MLOAD DUP3 LT PUSH2 0x1029 JUMPI PUSH2 0x1029 DUP6 PUSH2 0x1024 DUP4 PUSH1 0x2 PUSH2 0x18A3 JUMP JUMPDEST PUSH2 0x11B9 JUMP JUMPDEST DUP5 MLOAD PUSH1 0x20 DUP4 DUP3 ADD ADD DUP6 DUP2 MSTORE8 POP DUP1 MLOAD DUP3 GT ISZERO PUSH2 0x1042 JUMPI DUP2 DUP2 MSTORE JUMPDEST POP SWAP4 SWAP5 SWAP4 POP POP POP POP JUMP JUMPDEST DUP2 MLOAD PUSH2 0x47E SWAP1 PUSH1 0x1F PUSH2 0x1FE0 PUSH1 0x5 DUP6 SWAP1 SHL AND OR PUSH2 0xFE3 JUMP JUMPDEST PUSH1 0x40 DUP1 MLOAD DUP1 DUP3 ADD SWAP1 SWAP2 MSTORE PUSH1 0x60 DUP2 MSTORE PUSH1 0x0 PUSH1 0x20 DUP3 ADD MSTORE DUP4 MLOAD MLOAD PUSH1 0x0 PUSH2 0x1087 DUP3 DUP6 PUSH2 0x185B JUMP JUMPDEST SWAP1 POP DUP6 PUSH1 0x20 ADD MLOAD DUP2 GT ISZERO PUSH2 0x10A4 JUMPI PUSH2 0x10A4 DUP7 PUSH2 0x1024 DUP4 PUSH1 0x2 PUSH2 0x18A3 JUMP JUMPDEST PUSH1 0x0 PUSH1 0x1 PUSH2 0x10B4 DUP7 PUSH2 0x100 PUSH2 0x199E JUMP JUMPDEST PUSH2 0x10BE SWAP2 SWAP1 PUSH2 0x186E JUMP JUMPDEST SWAP1 POP DUP7 MLOAD DUP3 DUP2 ADD DUP8 DUP4 NOT DUP3 MLOAD AND OR DUP2 MSTORE POP DUP1 MLOAD DUP4 GT ISZERO PUSH2 0x10DC JUMPI DUP3 DUP2 MSTORE JUMPDEST POP SWAP6 SWAP7 SWAP6 POP POP POP POP POP POP JUMP JUMPDEST PUSH1 0x40 DUP1 MLOAD DUP1 DUP3 ADD SWAP1 SWAP2 MSTORE PUSH1 0x60 DUP2 MSTORE PUSH1 0x0 PUSH1 0x20 DUP3 ADD MSTORE DUP3 MLOAD DUP3 GT ISZERO PUSH2 0x110B JUMPI PUSH1 0x0 DUP1 REVERT JUMPDEST DUP4 MLOAD MLOAD PUSH1 0x0 PUSH2 0x111A DUP5 DUP4 PUSH2 0x185B JUMP JUMPDEST SWAP1 POP DUP6 PUSH1 0x20 ADD MLOAD DUP2 GT ISZERO PUSH2 0x1137 JUMPI PUSH2 0x1137 DUP7 PUSH2 0x1024 DUP4 PUSH1 0x2 PUSH2 0x18A3 JUMP JUMPDEST DUP6 MLOAD DUP1 MLOAD DUP4 DUP3 ADD PUSH1 0x20 ADD SWAP2 PUSH1 0x0 SWAP2 DUP1 DUP6 GT ISZERO PUSH2 0x1151 JUMPI DUP5 DUP3 MSTORE JUMPDEST POP POP POP PUSH1 0x20 DUP7 ADD JUMPDEST PUSH1 0x20 DUP7 LT PUSH2 0x1191 JUMPI DUP1 MLOAD DUP3 MSTORE PUSH2 0x1170 PUSH1 0x20 DUP4 PUSH2 0x185B JUMP JUMPDEST SWAP2 POP PUSH2 0x117D PUSH1 0x20 DUP3 PUSH2 0x185B JUMP JUMPDEST SWAP1 POP PUSH2 0x118A PUSH1 0x20 DUP8 PUSH2 0x186E JUMP JUMPDEST SWAP6 POP PUSH2 0x1159 JUMP JUMPDEST MLOAD DUP2 MLOAD PUSH1 0x0 NOT PUSH1 0x20 DUP9 SWAP1 SUB PUSH2 0x100 EXP ADD SWAP1 DUP2 AND SWAP1 NOT SWAP2 SWAP1 SWAP2 AND OR SWAP1 MSTORE POP DUP5 SWAP2 POP POP SWAP4 SWAP3 POP POP POP JUMP JUMPDEST DUP2 MLOAD PUSH2 0x11C5 DUP4 DUP4 PUSH2 0xE1D JUMP JUMPDEST POP PUSH2 0xEBB DUP4 DUP3 PUSH2 0xFBB JUMP JUMPDEST PUSH1 0x40 MLOAD DUP1 PUSH1 0x40 ADD PUSH1 0x40 MSTORE DUP1 PUSH2 0x11F8 PUSH1 0x40 MLOAD DUP1 PUSH1 0x40 ADD PUSH1 0x40 MSTORE DUP1 PUSH1 0x60 DUP2 MSTORE PUSH1 0x20 ADD PUSH1 0x0 DUP2 MSTORE POP SWAP1 JUMP JUMPDEST DUP2 MSTORE PUSH1 0x20 ADD PUSH1 0x0 DUP2 MSTORE POP SWAP1 JUMP JUMPDEST PUSH4 0x4E487B71 PUSH1 0xE0 SHL PUSH1 0x0 MSTORE PUSH1 0x41 PUSH1 0x4 MSTORE PUSH1 0x24 PUSH1 0x0 REVERT JUMPDEST PUSH1 0x0 DUP3 PUSH1 0x1F DUP4 ADD SLT PUSH2 0x122C JUMPI PUSH1 0x0 DUP1 REVERT JUMPDEST DUP2 CALLDATALOAD PUSH8 0xFFFFFFFFFFFFFFFF DUP1 DUP3 GT ISZERO PUSH2 0x1247 JUMPI PUSH2 0x1247 PUSH2 0x1205 JUMP JUMPDEST PUSH1 0x40 MLOAD PUSH1 0x1F DUP4 ADD PUSH1 0x1F NOT SWAP1 DUP2 AND PUSH1 0x3F ADD AND DUP2 ADD SWAP1 DUP3 DUP3 GT DUP2 DUP4 LT OR ISZERO PUSH2 0x126F JUMPI PUSH2 0x126F PUSH2 0x1205 JUMP JUMPDEST DUP2 PUSH1 0x40 MSTORE DUP4 DUP2 MSTORE DUP7 PUSH1 0x20 DUP6 DUP9 ADD ADD GT ISZERO PUSH2 0x1288 JUMPI PUSH1 0x0 DUP1 REVERT JUMPDEST DUP4 PUSH1 0x20 DUP8 ADD PUSH1 0x20 DUP4 ADD CALLDATACOPY PUSH1 0x0 PUSH1 0x20 DUP6 DUP4 ADD ADD MSTORE DUP1 SWAP5 POP POP POP POP POP SWAP3 SWAP2 POP POP JUMP JUMPDEST PUSH1 0x0 DUP1 PUSH1 0x0 PUSH1 0x60 DUP5 DUP7 SUB SLT ISZERO PUSH2 0x12BD JUMPI PUSH1 0x0 DUP1 REVERT JUMPDEST DUP4 CALLDATALOAD SWAP3 POP PUSH1 0x20 DUP5 ADD CALLDATALOAD PUSH8 0xFFFFFFFFFFFFFFFF DUP1 DUP3 GT ISZERO PUSH2 0x12DC JUMPI PUSH1 0x0 DUP1 REVERT JUMPDEST PUSH2 0x12E8 DUP8 DUP4 DUP9 ADD PUSH2 0x121B JUMP JUMPDEST SWAP4 POP PUSH1 0x40 DUP7 ADD CALLDATALOAD SWAP2 POP DUP1 DUP3 GT ISZERO PUSH2 0x12FE JUMPI PUSH1 0x0 DUP1 REVERT JUMPDEST POP PUSH2 0x130B DUP7 DUP3 DUP8 ADD PUSH2 0x121B JUMP JUMPDEST SWAP2 POP POP SWAP3 POP SWAP3 POP SWAP3 JUMP JUMPDEST PUSH1 0x0 JUMPDEST DUP4 DUP2 LT ISZERO PUSH2 0x1330 JUMPI DUP2 DUP2 ADD MLOAD DUP4 DUP3 ADD MSTORE PUSH1 0x20 ADD PUSH2 0x1318 JUMP JUMPDEST POP POP PUSH1 0x0 SWAP2 ADD MSTORE JUMP JUMPDEST PUSH1 0x0 DUP2 MLOAD DUP1 DUP5 MSTORE PUSH2 0x1351 DUP2 PUSH1 0x20 DUP7 ADD PUSH1 0x20 DUP7 ADD PUSH2 0x1315 JUMP JUMPDEST PUSH1 0x1F ADD PUSH1 0x1F NOT AND SWAP3 SWAP1 SWAP3 ADD PUSH1 0x20 ADD SWAP3 SWAP2 POP POP JUMP JUMPDEST PUSH1 0x20 DUP2 MSTORE PUSH1 0x0 PUSH2 0xFDC PUSH1 0x20 DUP4 ADD DUP5 PUSH2 0x1339 JUMP JUMPDEST DUP1 CALLDATALOAD PUSH4 0xFFFFFFFF DUP2 AND DUP2 EQ PUSH2 0x138C JUMPI PUSH1 0x0 DUP1 REVERT JUMPDEST SWAP2 SWAP1 POP JUMP JUMPDEST PUSH1 0x0 DUP1 PUSH1 0x0 DUP1 PUSH1 0x0 PUSH1 0x80 DUP7 DUP9 SUB SLT ISZERO PUSH2 0x13A9 JUMPI PUSH1 0x0 DUP1 REVERT JUMPDEST DUP6 CALLDATALOAD PUSH8 0xFFFFFFFFFFFFFFFF DUP1 DUP3 GT ISZERO PUSH2 0x13C1 JUMPI PUSH1 0x0 DUP1 REVERT JUMPDEST DUP2 DUP9 ADD SWAP2 POP DUP9 PUSH1 0x1F DUP4 ADD SLT PUSH2 0x13D5 JUMPI PUSH1 0x0 DUP1 REVERT JUMPDEST DUP2 CALLDATALOAD DUP2 DUP2 GT ISZERO PUSH2 0x13E4 JUMPI PUSH1 0x0 DUP1 REVERT JUMPDEST DUP10 PUSH1 0x20 DUP3 DUP6 ADD ADD GT ISZERO PUSH2 0x13F6 JUMPI PUSH1 0x0 DUP1 REVERT JUMPDEST PUSH1 0x20 SWAP3 DUP4 ADD SWAP8 POP SWAP6 POP SWAP1 DUP8 ADD CALLDATALOAD SWAP1 DUP1 DUP3 AND DUP3 EQ PUSH2 0x1412 JUMPI PUSH1 0x0 DUP1 REVERT JUMPDEST POP SWAP3 POP PUSH2 0x1421 PUSH1 0x40 DUP8 ADD PUSH2 0x1378 JUMP JUMPDEST SWAP5 SWAP8 SWAP4 SWAP7 POP SWAP2 SWAP5 PUSH1 0x60 ADD CALLDATALOAD SWAP3 SWAP2 POP POP JUMP JUMPDEST PUSH1 0x0 DUP1 PUSH1 0x40 DUP4 DUP6 SUB SLT ISZERO PUSH2 0x1445 JUMPI PUSH1 0x0 DUP1 REVERT JUMPDEST DUP3 CALLDATALOAD PUSH8 0xFFFFFFFFFFFFFFFF DUP1 DUP3 GT ISZERO PUSH2 0x145D JUMPI PUSH1 0x0 DUP1 REVERT JUMPDEST PUSH2 0x1469 DUP7 DUP4 DUP8 ADD PUSH2 0x121B JUMP JUMPDEST SWAP4 POP PUSH1 0x20 DUP6 ADD CALLDATALOAD SWAP2 POP DUP1 DUP3 GT ISZERO PUSH2 0x147F JUMPI PUSH1 0x0 DUP1 REVERT JUMPDEST POP PUSH2 0x148C DUP6 DUP3 DUP7 ADD PUSH2 0x121B JUMP JUMPDEST SWAP2 POP POP SWAP3 POP SWAP3 SWAP1 POP JUMP JUMPDEST PUSH1 0x0 PUSH1 0x20 DUP3 DUP5 SUB SLT ISZERO PUSH2 0x14A8 JUMPI PUSH1 0x0 DUP1 REVERT JUMPDEST DUP2 CALLDATALOAD PUSH1 0x1 PUSH1 0x1 PUSH1 0xA0 SHL SUB DUP2 AND DUP2 EQ PUSH2 0xFDC JUMPI PUSH1 0x0 DUP1 REVERT JUMPDEST PUSH1 0x1 DUP2 DUP2 SHR SWAP1 DUP3 AND DUP1 PUSH2 0x14D3 JUMPI PUSH1 0x7F DUP3 AND SWAP2 POP JUMPDEST PUSH1 0x20 DUP3 LT DUP2 SUB PUSH2 0x14F3 JUMPI PUSH4 0x4E487B71 PUSH1 0xE0 SHL PUSH1 0x0 MSTORE PUSH1 0x22 PUSH1 0x4 MSTORE PUSH1 0x24 PUSH1 0x0 REVERT JUMPDEST POP SWAP2 SWAP1 POP JUMP JUMPDEST PUSH1 0x1F DUP3 GT ISZERO PUSH2 0x47E JUMPI PUSH1 0x0 DUP2 DUP2 MSTORE PUSH1 0x20 DUP2 KECCAK256 PUSH1 0x1F DUP6 ADD PUSH1 0x5 SHR DUP2 ADD PUSH1 0x20 DUP7 LT ISZERO PUSH2 0x1520 JUMPI POP DUP1 JUMPDEST PUSH1 0x1F DUP6 ADD PUSH1 0x5 SHR DUP3 ADD SWAP2 POP JUMPDEST DUP2 DUP2 LT ISZERO PUSH2 0x153F JUMPI DUP3 DUP2 SSTORE PUSH1 0x1 ADD PUSH2 0x152C JUMP JUMPDEST POP POP POP POP POP POP JUMP JUMPDEST PUSH8 0xFFFFFFFFFFFFFFFF DUP4 GT ISZERO PUSH2 0x155F JUMPI PUSH2 0x155F PUSH2 0x1205 JUMP JUMPDEST PUSH2 0x1573 DUP4 PUSH2 0x156D DUP4 SLOAD PUSH2 0x14BF JUMP JUMPDEST DUP4 PUSH2 0x14F9 JUMP JUMPDEST PUSH1 0x0 PUSH1 0x1F DUP5 GT PUSH1 0x1 DUP2 EQ PUSH2 0x15A7 JUMPI PUSH1 0x0 DUP6 ISZERO PUSH2 0x158F JUMPI POP DUP4 DUP3 ADD CALLDATALOAD JUMPDEST PUSH1 0x0 NOT PUSH1 0x3 DUP8 SWAP1 SHL SHR NOT AND PUSH1 0x1 DUP7 SWAP1 SHL OR DUP4 SSTORE PUSH2 0x1601 JUMP JUMPDEST PUSH1 0x0 DUP4 DUP2 MSTORE PUSH1 0x20 SWAP1 KECCAK256 PUSH1 0x1F NOT DUP7 AND SWAP1 DUP4 JUMPDEST DUP3 DUP2 LT ISZERO PUSH2 0x15D8 JUMPI DUP7 DUP6 ADD CALLDATALOAD DUP3 SSTORE PUSH1 0x20 SWAP5 DUP6 ADD SWAP5 PUSH1 0x1 SWAP1 SWAP3 ADD SWAP2 ADD PUSH2 0x15B8 JUMP JUMPDEST POP DUP7 DUP3 LT ISZERO PUSH2 0x15F5 JUMPI PUSH1 0x0 NOT PUSH1 0xF8 DUP9 PUSH1 0x3 SHL AND SHR NOT DUP5 DUP8 ADD CALLDATALOAD AND DUP2 SSTORE JUMPDEST POP POP PUSH1 0x1 DUP6 PUSH1 0x1 SHL ADD DUP4 SSTORE JUMPDEST POP POP POP POP POP JUMP JUMPDEST DUP2 MLOAD PUSH8 0xFFFFFFFFFFFFFFFF DUP2 GT ISZERO PUSH2 0x1622 JUMPI PUSH2 0x1622 PUSH2 0x1205 JUMP JUMPDEST PUSH2 0x1636 DUP2 PUSH2 0x1630 DUP5 SLOAD PUSH2 0x14BF JUMP JUMPDEST DUP5 PUSH2 0x14F9 JUMP JUMPDEST PUSH1 0x20 DUP1 PUSH1 0x1F DUP4 GT PUSH1 0x1 DUP2 EQ PUSH2 0x166B JUMPI PUSH1 0x0 DUP5 ISZERO PUSH2 0x1653 JUMPI POP DUP6 DUP4 ADD MLOAD JUMPDEST PUSH1 0x0 NOT PUSH1 0x3 DUP7 SWAP1 SHL SHR NOT AND PUSH1 0x1 DUP6 SWAP1 SHL OR DUP6 SSTORE PUSH2 0x153F JUMP JUMPDEST PUSH1 0x0 DUP6 DUP2 MSTORE PUSH1 0x20 DUP2 KECCAK256 PUSH1 0x1F NOT DUP7 AND SWAP2 JUMPDEST DUP3 DUP2 LT ISZERO PUSH2 0x169A JUMPI DUP9 DUP7 ADD MLOAD DUP3 SSTORE SWAP5 DUP5 ADD SWAP5 PUSH1 0x1 SWAP1 SWAP2 ADD SWAP1 DUP5 ADD PUSH2 0x167B JUMP JUMPDEST POP DUP6 DUP3 LT ISZERO PUSH2 0x16B8 JUMPI DUP8 DUP6 ADD MLOAD PUSH1 0x0 NOT PUSH1 0x3 DUP9 SWAP1 SHL PUSH1 0xF8 AND SHR NOT AND DUP2 SSTORE JUMPDEST POP POP POP POP POP PUSH1 0x1 SWAP1 DUP2 SHL ADD SWAP1 SSTORE POP JUMP JUMPDEST PUSH1 0x40 DUP2 MSTORE PUSH1 0x0 PUSH2 0x16DB PUSH1 0x40 DUP4 ADD DUP6 PUSH2 0x1339 JUMP JUMPDEST DUP3 DUP2 SUB PUSH1 0x20 DUP5 ADD MSTORE PUSH2 0x16ED DUP2 DUP6 PUSH2 0x1339 JUMP JUMPDEST SWAP6 SWAP5 POP POP POP POP POP JUMP JUMPDEST PUSH1 0x0 DUP3 MLOAD PUSH2 0x1708 DUP2 DUP5 PUSH1 0x20 DUP8 ADD PUSH2 0x1315 JUMP JUMPDEST SWAP2 SWAP1 SWAP2 ADD SWAP3 SWAP2 POP POP JUMP JUMPDEST PUSH1 0x0 PUSH1 0x20 DUP1 DUP4 MSTORE PUSH1 0x0 DUP5 SLOAD PUSH2 0x1726 DUP2 PUSH2 0x14BF JUMP JUMPDEST DUP1 DUP5 DUP8 ADD MSTORE PUSH1 0x40 PUSH1 0x1 DUP1 DUP5 AND PUSH1 0x0 DUP2 EQ PUSH2 0x1747 JUMPI PUSH1 0x1 DUP2 EQ PUSH2 0x1761 JUMPI PUSH2 0x178F JUMP JUMPDEST PUSH1 0xFF NOT DUP6 AND DUP10 DUP5 ADD MSTORE DUP4 ISZERO ISZERO PUSH1 0x5 SHL DUP10 ADD DUP4 ADD SWAP6 POP PUSH2 0x178F JUMP JUMPDEST DUP10 PUSH1 0x0 MSTORE DUP7 PUSH1 0x0 KECCAK256 PUSH1 0x0 JUMPDEST DUP6 DUP2 LT ISZERO PUSH2 0x1787 JUMPI DUP2 SLOAD DUP12 DUP3 ADD DUP7 ADD MSTORE SWAP1 DUP4 ADD SWAP1 DUP9 ADD PUSH2 0x176C JUMP JUMPDEST DUP11 ADD DUP5 ADD SWAP7 POP POP JUMPDEST POP SWAP4 SWAP9 SWAP8 POP POP POP POP POP POP POP POP JUMP JUMPDEST PUSH4 0x4E487B71 PUSH1 0xE0 SHL PUSH1 0x0 MSTORE PUSH1 0x32 PUSH1 0x4 MSTORE PUSH1 0x24 PUSH1 0x0 REVERT JUMPDEST PUSH4 0x4E487B71 PUSH1 0xE0 SHL PUSH1 0x0 MSTORE PUSH1 0x21 PUSH1 0x4 MSTORE PUSH1 0x24 PUSH1 0x0 REVERT JUMPDEST PUSH4 0x4E487B71 PUSH1 0xE0 SHL PUSH1 0x0 MSTORE PUSH1 0x11 PUSH1 0x4 MSTORE PUSH1 0x24 PUSH1 0x0 REVERT JUMPDEST PUSH1 0x0 PUSH1 0x1 DUP3 ADD PUSH2 0x17F1 JUMPI PUSH2 0x17F1 PUSH2 0x17C9 JUMP JUMPDEST POP PUSH1 0x1 ADD SWAP1 JUMP JUMPDEST PUSH8 0xFFFFFFFFFFFFFFFF DUP7 AND DUP2 MSTORE PUSH1 0xA0 PUSH1 0x20 DUP3 ADD MSTORE PUSH1 0x0 PUSH2 0x181B PUSH1 0xA0 DUP4 ADD DUP8 PUSH2 0x1339 JUMP JUMPDEST PUSH2 0xFFFF SWAP6 SWAP1 SWAP6 AND PUSH1 0x40 DUP4 ADD MSTORE POP PUSH4 0xFFFFFFFF SWAP3 SWAP1 SWAP3 AND PUSH1 0x60 DUP4 ADD MSTORE PUSH1 0x80 SWAP1 SWAP2 ADD MSTORE SWAP3 SWAP2 POP POP JUMP JUMPDEST PUSH1 0x0 PUSH1 0x20 DUP3 DUP5 SUB SLT ISZERO PUSH2 0x1854 JUMPI PUSH1 0x0 DUP1 REVERT JUMPDEST POP MLOAD SWAP2 SWAP1 POP JUMP JUMPDEST DUP1 DUP3 ADD DUP1 DUP3 GT ISZERO PUSH2 0x770 JUMPI PUSH2 0x770 PUSH2 0x17C9 JUMP JUMPDEST DUP2 DUP2 SUB DUP2 DUP2 GT ISZERO PUSH2 0x770 JUMPI PUSH2 0x770 PUSH2 0x17C9 JUMP JUMPDEST PUSH1 0x0 DUP3 PUSH2 0x189E JUMPI PUSH4 0x4E487B71 PUSH1 0xE0 SHL PUSH1 0x0 MSTORE PUSH1 0x12 PUSH1 0x4 MSTORE PUSH1 0x24 PUSH1 0x0 REVERT JUMPDEST POP MOD SWAP1 JUMP JUMPDEST DUP1 DUP3 MUL DUP2 ISZERO DUP3 DUP3 DIV DUP5 EQ OR PUSH2 0x770 JUMPI PUSH2 0x770 PUSH2 0x17C9 JUMP JUMPDEST PUSH1 0x1 DUP2 DUP2 JUMPDEST DUP1 DUP6 GT ISZERO PUSH2 0x18F5 JUMPI DUP2 PUSH1 0x0 NOT DIV DUP3 GT ISZERO PUSH2 0x18DB JUMPI PUSH2 0x18DB PUSH2 0x17C9 JUMP JUMPDEST DUP1 DUP6 AND ISZERO PUSH2 0x18E8 JUMPI SWAP2 DUP2 MUL SWAP2 JUMPDEST SWAP4 DUP5 SHR SWAP4 SWAP1 DUP1 MUL SWAP1 PUSH2 0x18BF JUMP JUMPDEST POP SWAP3 POP SWAP3 SWAP1 POP JUMP JUMPDEST PUSH1 0x0 DUP3 PUSH2 0x190C JUMPI POP PUSH1 0x1 PUSH2 0x770 JUMP JUMPDEST DUP2 PUSH2 0x1919 JUMPI POP PUSH1 0x0 PUSH2 0x770 JUMP JUMPDEST DUP2 PUSH1 0x1 DUP2 EQ PUSH2 0x192F JUMPI PUSH1 0x2 DUP2 EQ PUSH2 0x1939 JUMPI PUSH2 0x1955 JUMP JUMPDEST PUSH1 0x1 SWAP2 POP POP PUSH2 0x770 JUMP JUMPDEST PUSH1 0xFF DUP5 GT ISZERO PUSH2 0x194A JUMPI PUSH2 0x194A PUSH2 0x17C9 JUMP JUMPDEST POP POP PUSH1 0x1 DUP3 SHL PUSH2 0x770 JUMP JUMPDEST POP PUSH1 0x20 DUP4 LT PUSH2 0x133 DUP4 LT AND PUSH1 0x4E DUP5 LT PUSH1 0xB DUP5 LT AND OR ISZERO PUSH2 0x1978 JUMPI POP DUP2 DUP2 EXP PUSH2 0x770 JUMP JUMPDEST PUSH2 0x1982 DUP4 DUP4 PUSH2 0x18BA JUMP JUMPDEST DUP1 PUSH1 0x0 NOT DIV DUP3 GT ISZERO PUSH2 0x1996 JUMPI PUSH2 0x1996 PUSH2 0x17C9 JUMP JUMPDEST MUL SWAP4 SWAP3 POP POP POP JUMP JUMPDEST PUSH1 0x0 PUSH2 0xFDC DUP4 DUP4 PUSH2 0x18FD JUMP INVALID LOG2 PUSH5 0x6970667358 0x22 SLT KECCAK256 0xC0 MSTORE8 CALLVALUE CALLDATASIZE 0xB6 ADDRESS 0xB9 0xC6 PUSH4 0x5E5D3DBF 0xBA 0xB8 0xB5 PUSH3 0x47E301 PUSH4 0x606452 0x5F AND 0x5D SGT 0xE1 DUP9 0xE4 PUSH5 0x736F6C6343 STOP ADDMOD SGT STOP CALLER "},"methodIdentifiers":{"acceptOwnership()":"79ba5097","callbackGasLimit()":"24f74697","donId()":"8dbe7b9d","getAttribute(string,string)":"bf2d0daf","handleOracleFulfillment(bytes32,bytes,bytes)":"0ca76175","latestError()":"fffeb84e","latestRequestId()":"1aa46f59","latestResponse()":"bef3a2f0","latestResult()":"6a2ea57e","owner()":"8da5cb5b","source()":"67e828bf","subscriptionId()":"09c1ba2e","transferOwnership(address)":"f2fde38b","updateRequest(string,uint64,uint32,bytes32)":"ae0ccd2e"}},"storageLayout":{"storage":[{"astId":991,"contract":"contracts/GenrateImagesFunctionConsumer.sol:GenerateImagesFunctionsConsumer","label":"s_owner","offset":0,"slot":"0","type":"t_address"},{"astId":993,"contract":"contracts/GenrateImagesFunctionConsumer.sol:GenerateImagesFunctionsConsumer","label":"s_pendingOwner","offset":0,"slot":"1","type":"t_address"},{"astId":2460,"contract":"contracts/GenrateImagesFunctionConsumer.sol:GenerateImagesFunctionsConsumer","label":"source","offset":0,"slot":"2","type":"t_string_storage"},{"astId":2462,"contract":"contracts/GenrateImagesFunctionConsumer.sol:GenerateImagesFunctionsConsumer","label":"subscriptionId","offset":0,"slot":"3","type":"t_uint64"},{"astId":2464,"contract":"contracts/GenrateImagesFunctionConsumer.sol:GenerateImagesFunctionsConsumer","label":"callbackGasLimit","offset":8,"slot":"3","type":"t_uint32"},{"astId":2466,"contract":"contracts/GenrateImagesFunctionConsumer.sol:GenerateImagesFunctionsConsumer","label":"donId","offset":0,"slot":"4","type":"t_bytes32"},{"astId":2468,"contract":"contracts/GenrateImagesFunctionConsumer.sol:GenerateImagesFunctionsConsumer","label":"latestRequestId","offset":0,"slot":"5","type":"t_bytes32"},{"astId":2470,"contract":"contracts/GenrateImagesFunctionConsumer.sol:GenerateImagesFunctionsConsumer","label":"latestResponse","offset":0,"slot":"6","type":"t_bytes_storage"},{"astId":2472,"contract":"contracts/GenrateImagesFunctionConsumer.sol:GenerateImagesFunctionsConsumer","label":"latestError","offset":0,"slot":"7","type":"t_bytes_storage"},{"astId":2474,"contract":"contracts/GenrateImagesFunctionConsumer.sol:GenerateImagesFunctionsConsumer","label":"latestResult","offset":0,"slot":"8","type":"t_string_storage"}],"types":{"t_address":{"encoding":"inplace","label":"address","numberOfBytes":"20"},"t_bytes32":{"encoding":"inplace","label":"bytes32","numberOfBytes":"32"},"t_bytes_storage":{"encoding":"bytes","label":"bytes","numberOfBytes":"32"},"t_string_storage":{"encoding":"bytes","label":"string","numberOfBytes":"32"},"t_uint32":{"encoding":"inplace","label":"uint32","numberOfBytes":"4"},"t_uint64":{"encoding":"inplace","label":"uint64","numberOfBytes":"8"}}}}}}