{"contracts/GenerateAttributesFunctionsConsumer.sol":{"FunctionsConsumer":{"abi":[{"inputs":[{"internalType":"address","name":"router","type":"address"}],"stateMutability":"nonpayable","type":"constructor"},{"inputs":[],"name":"EmptyArgs","type":"error"},{"inputs":[],"name":"EmptySource","type":"error"},{"inputs":[],"name":"NoInlineSecrets","type":"error"},{"inputs":[],"name":"OnlyRouterCanFulfill","type":"error"},{"inputs":[{"internalType":"bytes32","name":"requestId","type":"bytes32"}],"name":"UnexpectedRequestID","type":"error"},{"anonymous":false,"inputs":[{"indexed":false,"internalType":"string","name":"latestResult","type":"string"}],"name":"Attributes","type":"event"},{"anonymous":false,"inputs":[{"indexed":true,"internalType":"bytes32","name":"requestId","type":"bytes32"},{"indexed":false,"internalType":"bytes","name":"result","type":"bytes"},{"indexed":false,"internalType":"bytes","name":"err","type":"bytes"}],"name":"OCRResponse","type":"event"},{"anonymous":false,"inputs":[{"indexed":true,"internalType":"address","name":"from","type":"address"},{"indexed":true,"internalType":"address","name":"to","type":"address"}],"name":"OwnershipTransferRequested","type":"event"},{"anonymous":false,"inputs":[{"indexed":true,"internalType":"address","name":"from","type":"address"},{"indexed":true,"internalType":"address","name":"to","type":"address"}],"name":"OwnershipTransferred","type":"event"},{"anonymous":false,"inputs":[{"indexed":true,"internalType":"bytes32","name":"id","type":"bytes32"}],"name":"RequestFulfilled","type":"event"},{"anonymous":false,"inputs":[{"indexed":true,"internalType":"bytes32","name":"id","type":"bytes32"}],"name":"RequestSent","type":"event"},{"inputs":[],"name":"acceptOwnership","outputs":[],"stateMutability":"nonpayable","type":"function"},{"inputs":[],"name":"callbackGasLimit","outputs":[{"internalType":"uint32","name":"","type":"uint32"}],"stateMutability":"view","type":"function"},{"inputs":[],"name":"donId","outputs":[{"internalType":"bytes32","name":"","type":"bytes32"}],"stateMutability":"view","type":"function"},{"inputs":[{"internalType":"string","name":"_prompt","type":"string"}],"name":"getAttribute","outputs":[],"stateMutability":"nonpayable","type":"function"},{"inputs":[{"internalType":"bytes32","name":"requestId","type":"bytes32"},{"internalType":"bytes","name":"response","type":"bytes"},{"internalType":"bytes","name":"err","type":"bytes"}],"name":"handleOracleFulfillment","outputs":[],"stateMutability":"nonpayable","type":"function"},{"inputs":[],"name":"latestError","outputs":[{"internalType":"bytes","name":"","type":"bytes"}],"stateMutability":"view","type":"function"},{"inputs":[],"name":"latestRequestId","outputs":[{"internalType":"bytes32","name":"","type":"bytes32"}],"stateMutability":"view","type":"function"},{"inputs":[],"name":"latestResponse","outputs":[{"internalType":"bytes","name":"","type":"bytes"}],"stateMutability":"view","type":"function"},{"inputs":[],"name":"latestResult","outputs":[{"internalType":"string","name":"","type":"string"}],"stateMutability":"view","type":"function"},{"inputs":[],"name":"owner","outputs":[{"internalType":"address","name":"","type":"address"}],"stateMutability":"view","type":"function"},{"inputs":[],"name":"source","outputs":[{"internalType":"string","name":"","type":"string"}],"stateMutability":"view","type":"function"},{"inputs":[],"name":"subscriptionId","outputs":[{"internalType":"uint64","name":"","type":"uint64"}],"stateMutability":"view","type":"function"},{"inputs":[{"internalType":"address","name":"to","type":"address"}],"name":"transferOwnership","outputs":[],"stateMutability":"nonpayable","type":"function"},{"inputs":[{"internalType":"string","name":"_source","type":"string"},{"internalType":"uint64","name":"_subscriptionId","type":"uint64"},{"internalType":"uint32","name":"_callbackGasLimit","type":"uint32"},{"internalType":"bytes32","name":"_donId","type":"bytes32"}],"name":"updateRequest","outputs":[],"stateMutability":"nonpayable","type":"function"}],"evm":{"bytecode":{"linkReferences":{},"object":"60a06040523480156200001157600080fd5b5060405162001b8538038062001b85833981016040819052620000349162000180565b6001600160a01b0381166080523380600081620000985760405162461bcd60e51b815260206004820152601860248201527f43616e6e6f7420736574206f776e657220746f207a65726f000000000000000060448201526064015b60405180910390fd5b600080546001600160a01b0319166001600160a01b0384811691909117909155811615620000cb57620000cb81620000d5565b50505050620001b2565b336001600160a01b038216036200012f5760405162461bcd60e51b815260206004820152601760248201527f43616e6e6f74207472616e7366657220746f2073656c6600000000000000000060448201526064016200008f565b600180546001600160a01b0319166001600160a01b0383811691821790925560008054604051929316917fed8889f560326eb138920d842192f0eb3dd22b4f139c87a2c57538e05bae12789190a350565b6000602082840312156200019357600080fd5b81516001600160a01b0381168114620001ab57600080fd5b9392505050565b6080516119b0620001d56000396000818161021b0152610c6501526119b06000f3fe608060405234801561001057600080fd5b50600436106100ea5760003560e01c80638da5cb5b1161008c578063bef3a2f011610066578063bef3a2f0146101da578063e8a51fca146101e2578063f2fde38b146101f5578063fffeb84e1461020857600080fd5b80638da5cb5b146101a35780638dbe7b9d146101be578063ae0ccd2e146101c757600080fd5b806324f74697116100c857806324f746971461014d57806367e828bf1461017e5780636a2ea57e1461019357806379ba50971461019b57600080fd5b806309c1ba2e146100ef5780630ca76175146101215780631aa46f5914610136575b600080fd5b6003546101039067ffffffffffffffff1681565b60405167ffffffffffffffff90911681526020015b60405180910390f35b61013461012f366004611290565b610210565b005b61013f60055481565b604051908152602001610118565b6003546101699068010000000000000000900463ffffffff1681565b60405163ffffffff9091168152602001610118565b6101866102ad565b604051610118919061134d565b61018661033b565b610134610348565b6000546040516001600160a01b039091168152602001610118565b61013f60045481565b6101346101d5366004611374565b61040b565b610186610467565b6101346101f0366004611415565b610474565b610134610203366004611466565b610481565b610186610495565b336001600160a01b037f00000000000000000000000000000000000000000000000000000000000000001614610272576040517fc6829f8300000000000000000000000000000000000000000000000000000000815260040160405180910390fd5b61027d8383836104a2565b60405183907f85e1543bf2f84fe80c6badbce3648c8539ad1df4d2b3d822938ca0538be727e690600090a2505050565b600280546102ba9061148f565b80601f01602080910402602001604051908101604052809291908181526020018280546102e69061148f565b80156103335780601f1061030857610100808354040283529160200191610333565b820191906000526020600020905b81548152906001019060200180831161031657829003601f168201915b505050505081565b600880546102ba9061148f565b6001546001600160a01b031633146103a75760405162461bcd60e51b815260206004820152601660248201527f4d7573742062652070726f706f736564206f776e65720000000000000000000060448201526064015b60405180910390fd5b600080543373ffffffffffffffffffffffffffffffffffffffff19808316821784556001805490911690556040516001600160a01b0390921692909183917f8be0079c531659141344cd1fd0a4f28419497f9722a3daafe3b4186f6b6457e091a350565b610413610562565b6002610420858783611517565b506003805463ffffffff90931668010000000000000000026bffffffffffffffffffffffff1990931667ffffffffffffffff90941693909317919091179091556004555050565b600680546102ba9061148f565b61047d816105be565b5050565b610489610562565b61049281610751565b50565b600780546102ba9061148f565b60066104ae83826115d8565b5060076104bb82826115d8565b50827f7bab0ec163b5c132c72b8146ac4d6e067e82ed58f8b131150aa71c925891156283836040516104ee929190611698565b60405180910390a28160405160200161050791906116c6565b6040516020818303038152906040526008908161052491906115d8565b507f52d7bd047435a6a678d62544f6963d4a396087e6d16e5a9cec313501967f6033600860405161055591906116e2565b60405180910390a1505050565b6000546001600160a01b031633146105bc5760405162461bcd60e51b815260206004820152601660248201527f4f6e6c792063616c6c61626c65206279206f776e657200000000000000000000604482015260640161039e565b565b60006105c8610562565b6106096040805160e0810190915280600081526020016000815260200160008152602001606081526020016060815260200160608152602001606081525090565b6106ab6000806002805461061c9061148f565b80601f01602080910402602001604051908101604052809291908181526020018280546106489061148f565b80156106955780601f1061066a57610100808354040283529160200191610695565b820191906000526020600020905b81548152906001019060200180831161067857829003601f168201915b505050505084610807909392919063ffffffff16565b604080516001808252818301909252600091816020015b60608152602001906001900390816106c257905050905083816000815181106106ed576106ed61176d565b602090810291909101015280511561070957610709828261089e565b6000610741610717846108e1565b60035460045467ffffffffffffffff82169168010000000000000000900463ffffffff1690610c60565b600581905593505050505b919050565b336001600160a01b038216036107a95760405162461bcd60e51b815260206004820152601760248201527f43616e6e6f74207472616e7366657220746f2073656c66000000000000000000604482015260640161039e565b6001805473ffffffffffffffffffffffffffffffffffffffff19166001600160a01b0383811691821790925560008054604051929316917fed8889f560326eb138920d842192f0eb3dd22b4f139c87a2c57538e05bae12789190a350565b8051600003610842576040517f22ce3edd00000000000000000000000000000000000000000000000000000000815260040160405180910390fd5b8383600281111561085557610855611783565b9081600281111561086857610868611783565b9052506040840182801561087e5761087e611783565b9081801561088e5761088e611783565b9052506060909301929092525050565b80516000036108d9576040517ffe936cb700000000000000000000000000000000000000000000000000000000815260040160405180910390fd5b60a090910152565b606060006108f0610100610d32565b905061093a6040518060400160405280600c81526020017f636f64654c6f636174696f6e000000000000000000000000000000000000000081525082610d5390919063ffffffff16565b825161095890600281111561095157610951611783565b8290610d71565b60408051808201909152600881527f6c616e67756167650000000000000000000000000000000000000000000000006020820152610997908290610d53565b60408301516109ae90801561095157610951611783565b60408051808201909152600681527f736f75726365000000000000000000000000000000000000000000000000000060208201526109ed908290610d53565b60608301516109fd908290610d53565b60a08301515115610aaa5760408051808201909152600481527f61726773000000000000000000000000000000000000000000000000000000006020820152610a47908290610d53565b610a5081610daa565b60005b8360a0015151811015610aa057610a908460a001518281518110610a7957610a7961176d565b602002602001015183610d5390919063ffffffff16565b610a99816117af565b9050610a53565b50610aaa81610dce565b60808301515115610bab57600083602001516002811115610acd57610acd611783565b03610b04576040517fa80d31f700000000000000000000000000000000000000000000000000000000815260040160405180910390fd5b60408051808201909152600f81527f736563726574734c6f636174696f6e00000000000000000000000000000000006020820152610b43908290610d53565b610b5c8360200151600281111561095157610951611783565b60408051808201909152600781527f73656372657473000000000000000000000000000000000000000000000000006020820152610b9b908290610d53565b6080830151610bab908290610dec565b60c08301515115610c585760408051808201909152600981527f62797465734172677300000000000000000000000000000000000000000000006020820152610bf5908290610d53565b610bfe81610daa565b60005b8360c0015151811015610c4e57610c3e8460c001518281518110610c2757610c2761176d565b602002602001015183610dec90919063ffffffff16565b610c47816117af565b9050610c01565b50610c5881610dce565b515192915050565b6000807f00000000000000000000000000000000000000000000000000000000000000006001600160a01b031663461d27628688600188886040518663ffffffff1660e01b8152600401610cb89594939291906117c8565b6020604051808303816000875af1158015610cd7573d6000803e3d6000fd5b505050506040513d601f19601f82011682018060405250810190610cfb9190611812565b60405190915081907f1131472297a800fee664d1d89cfa8f7676ff07189ecc53f80bbb5f4969099db890600090a295945050505050565b610d3a6111af565b8051610d469083610df9565b5060006020820152919050565b610d608260038351610e73565b8151610d6c9082610f9a565b505050565b8151610d7e9060c2610fc2565b5061047d8282604051602001610d9691815260200190565b604051602081830303815290604052610dec565b610db581600461102b565b600181602001818151610dc8919061182b565b90525050565b610dd981600761102b565b600181602001818151610dc8919061183e565b610d608260028351610e73565b604080518082019091526060815260006020820152610e19602083611851565b15610e4157610e29602083611851565b610e3490602061183e565b610e3e908361182b565b91505b602080840183905260405180855260008152908184010181811015610e6557600080fd5b604052508290505b92915050565b60178167ffffffffffffffff1611610ea0578251610e9a9060e0600585901b168317610fc2565b50505050565b60ff8167ffffffffffffffff1611610ee2578251610ec9906018611fe0600586901b1617610fc2565b508251610e9a9067ffffffffffffffff83166001611042565b61ffff8167ffffffffffffffff1611610f25578251610f0c906019611fe0600586901b1617610fc2565b508251610e9a9067ffffffffffffffff83166002611042565b63ffffffff8167ffffffffffffffff1611610f6a578251610f5190601a611fe0600586901b1617610fc2565b508251610e9a9067ffffffffffffffff83166004611042565b8251610f8190601b611fe0600586901b1617610fc2565b508251610e9a9067ffffffffffffffff83166008611042565b604080518082019091526060815260006020820152610fbb838384516110c7565b9392505050565b6040805180820190915260608152600060208201528251516000610fe782600161182b565b9050846020015182106110085761100885611003836002611873565b611198565b8451602083820101858153508051821115611021578181525b5093949350505050565b8151610d6c90601f611fe0600585901b1617610fc2565b6040805180820190915260608152600060208201528351516000611066828561182b565b905085602001518111156110835761108386611003836002611873565b600060016110938661010061196e565b61109d919061183e565b905086518281018783198251161781525080518311156110bb578281525b50959695505050505050565b60408051808201909152606081526000602082015282518211156110ea57600080fd5b83515160006110f9848361182b565b905085602001518111156111165761111686611003836002611873565b855180518382016020019160009180851115611130578482525b505050602086015b60208610611170578051825261114f60208361182b565b915061115c60208261182b565b905061116960208761183e565b9550611138565b51815160001960208890036101000a0190811690199190911617905250849150509392505050565b81516111a48383610df9565b50610e9a8382610f9a565b60405180604001604052806111d7604051806040016040528060608152602001600081525090565b8152602001600081525090565b634e487b7160e01b600052604160045260246000fd5b600067ffffffffffffffff80841115611215576112156111e4565b604051601f8501601f19908116603f0116810190828211818310171561123d5761123d6111e4565b8160405280935085815286868601111561125657600080fd5b858560208301376000602087830101525050509392505050565b600082601f83011261128157600080fd5b610fbb838335602085016111fa565b6000806000606084860312156112a557600080fd5b83359250602084013567ffffffffffffffff808211156112c457600080fd5b6112d087838801611270565b935060408601359150808211156112e657600080fd5b506112f386828701611270565b9150509250925092565b60005b83811015611318578181015183820152602001611300565b50506000910152565b600081518084526113398160208601602086016112fd565b601f01601f19169290920160200192915050565b602081526000610fbb6020830184611321565b803563ffffffff8116811461074c57600080fd5b60008060008060006080868803121561138c57600080fd5b853567ffffffffffffffff808211156113a457600080fd5b818801915088601f8301126113b857600080fd5b8135818111156113c757600080fd5b8960208285010111156113d957600080fd5b602092830197509550908701359080821682146113f557600080fd5b50925061140460408701611360565b949793965091946060013592915050565b60006020828403121561142757600080fd5b813567ffffffffffffffff81111561143e57600080fd5b8201601f8101841361144f57600080fd5b61145e848235602084016111fa565b949350505050565b60006020828403121561147857600080fd5b81356001600160a01b0381168114610fbb57600080fd5b600181811c908216806114a357607f821691505b6020821081036114c357634e487b7160e01b600052602260045260246000fd5b50919050565b601f821115610d6c57600081815260208120601f850160051c810160208610156114f05750805b601f850160051c820191505b8181101561150f578281556001016114fc565b505050505050565b67ffffffffffffffff83111561152f5761152f6111e4565b6115438361153d835461148f565b836114c9565b6000601f841160018114611577576000851561155f5750838201355b600019600387901b1c1916600186901b1783556115d1565b600083815260209020601f19861690835b828110156115a85786850135825560209485019460019092019101611588565b50868210156115c55760001960f88860031b161c19848701351681555b505060018560011b0183555b5050505050565b815167ffffffffffffffff8111156115f2576115f26111e4565b61160681611600845461148f565b846114c9565b602080601f83116001811461163b57600084156116235750858301515b600019600386901b1c1916600185901b17855561150f565b600085815260208120601f198616915b8281101561166a5788860151825594840194600190910190840161164b565b50858210156116885787850151600019600388901b60f8161c191681555b5050505050600190811b01905550565b6040815260006116ab6040830185611321565b82810360208401526116bd8185611321565b95945050505050565b600082516116d88184602087016112fd565b9190910192915050565b60006020808352600084546116f68161148f565b8084870152604060018084166000811461171757600181146117315761175f565b60ff1985168984015283151560051b89018301955061175f565b896000528660002060005b858110156117575781548b820186015290830190880161173c565b8a0184019650505b509398975050505050505050565b634e487b7160e01b600052603260045260246000fd5b634e487b7160e01b600052602160045260246000fd5b634e487b7160e01b600052601160045260246000fd5b6000600182016117c1576117c1611799565b5060010190565b67ffffffffffffffff8616815260a0602082015260006117eb60a0830187611321565b61ffff9590951660408301525063ffffffff92909216606083015260809091015292915050565b60006020828403121561182457600080fd5b5051919050565b80820180821115610e6d57610e6d611799565b81810381811115610e6d57610e6d611799565b60008261186e57634e487b7160e01b600052601260045260246000fd5b500690565b8082028115828204841417610e6d57610e6d611799565b600181815b808511156118c55781600019048211156118ab576118ab611799565b808516156118b857918102915b93841c939080029061188f565b509250929050565b6000826118dc57506001610e6d565b816118e957506000610e6d565b81600181146118ff576002811461190957611925565b6001915050610e6d565b60ff84111561191a5761191a611799565b50506001821b610e6d565b5060208310610133831016604e8410600b8410161715611948575081810a610e6d565b611952838361188a565b806000190482111561196657611966611799565b029392505050565b6000610fbb83836118cd56fea2646970667358221220cb277793ac4b907e507c00eed76f4b80f577ee3c5dac2ca1fd79bbc3e12792f264736f6c63430008130033","opcodes":"PUSH1 0xA0 PUSH1 0x40 MSTORE CALLVALUE DUP1 ISZERO PUSH3 0x11 JUMPI PUSH1 0x0 DUP1 REVERT JUMPDEST POP PUSH1 0x40 MLOAD PUSH3 0x1B85 CODESIZE SUB DUP1 PUSH3 0x1B85 DUP4 CODECOPY DUP2 ADD PUSH1 0x40 DUP2 SWAP1 MSTORE PUSH3 0x34 SWAP2 PUSH3 0x180 JUMP JUMPDEST PUSH1 0x1 PUSH1 0x1 PUSH1 0xA0 SHL SUB DUP2 AND PUSH1 0x80 MSTORE CALLER DUP1 PUSH1 0x0 DUP2 PUSH3 0x98 JUMPI PUSH1 0x40 MLOAD PUSH3 0x461BCD PUSH1 0xE5 SHL DUP2 MSTORE PUSH1 0x20 PUSH1 0x4 DUP3 ADD MSTORE PUSH1 0x18 PUSH1 0x24 DUP3 ADD MSTORE PUSH32 0x43616E6E6F7420736574206F776E657220746F207A65726F0000000000000000 PUSH1 0x44 DUP3 ADD MSTORE PUSH1 0x64 ADD JUMPDEST PUSH1 0x40 MLOAD DUP1 SWAP2 SUB SWAP1 REVERT JUMPDEST PUSH1 0x0 DUP1 SLOAD PUSH1 0x1 PUSH1 0x1 PUSH1 0xA0 SHL SUB NOT AND PUSH1 0x1 PUSH1 0x1 PUSH1 0xA0 SHL SUB DUP5 DUP2 AND SWAP2 SWAP1 SWAP2 OR SWAP1 SWAP2 SSTORE DUP2 AND ISZERO PUSH3 0xCB JUMPI PUSH3 0xCB DUP2 PUSH3 0xD5 JUMP JUMPDEST POP POP POP POP PUSH3 0x1B2 JUMP JUMPDEST CALLER PUSH1 0x1 PUSH1 0x1 PUSH1 0xA0 SHL SUB DUP3 AND SUB PUSH3 0x12F JUMPI PUSH1 0x40 MLOAD PUSH3 0x461BCD PUSH1 0xE5 SHL DUP2 MSTORE PUSH1 0x20 PUSH1 0x4 DUP3 ADD MSTORE PUSH1 0x17 PUSH1 0x24 DUP3 ADD MSTORE PUSH32 0x43616E6E6F74207472616E7366657220746F2073656C66000000000000000000 PUSH1 0x44 DUP3 ADD MSTORE PUSH1 0x64 ADD PUSH3 0x8F JUMP JUMPDEST PUSH1 0x1 DUP1 SLOAD PUSH1 0x1 PUSH1 0x1 PUSH1 0xA0 SHL SUB NOT AND PUSH1 0x1 PUSH1 0x1 PUSH1 0xA0 SHL SUB DUP4 DUP2 AND SWAP2 DUP3 OR SWAP1 SWAP3 SSTORE PUSH1 0x0 DUP1 SLOAD PUSH1 0x40 MLOAD SWAP3 SWAP4 AND SWAP2 PUSH32 0xED8889F560326EB138920D842192F0EB3DD22B4F139C87A2C57538E05BAE1278 SWAP2 SWAP1 LOG3 POP JUMP JUMPDEST PUSH1 0x0 PUSH1 0x20 DUP3 DUP5 SUB SLT ISZERO PUSH3 0x193 JUMPI PUSH1 0x0 DUP1 REVERT JUMPDEST DUP2 MLOAD PUSH1 0x1 PUSH1 0x1 PUSH1 0xA0 SHL SUB DUP2 AND DUP2 EQ PUSH3 0x1AB JUMPI PUSH1 0x0 DUP1 REVERT JUMPDEST SWAP4 SWAP3 POP POP POP JUMP JUMPDEST PUSH1 0x80 MLOAD PUSH2 0x19B0 PUSH3 0x1D5 PUSH1 0x0 CODECOPY PUSH1 0x0 DUP2 DUP2 PUSH2 0x21B ADD MSTORE PUSH2 0xC65 ADD MSTORE PUSH2 0x19B0 PUSH1 0x0 RETURN INVALID PUSH1 0x80 PUSH1 0x40 MSTORE CALLVALUE DUP1 ISZERO PUSH2 0x10 JUMPI PUSH1 0x0 DUP1 REVERT JUMPDEST POP PUSH1 0x4 CALLDATASIZE LT PUSH2 0xEA JUMPI PUSH1 0x0 CALLDATALOAD PUSH1 0xE0 SHR DUP1 PUSH4 0x8DA5CB5B GT PUSH2 0x8C JUMPI DUP1 PUSH4 0xBEF3A2F0 GT PUSH2 0x66 JUMPI DUP1 PUSH4 0xBEF3A2F0 EQ PUSH2 0x1DA JUMPI DUP1 PUSH4 0xE8A51FCA EQ PUSH2 0x1E2 JUMPI DUP1 PUSH4 0xF2FDE38B EQ PUSH2 0x1F5 JUMPI DUP1 PUSH4 0xFFFEB84E EQ PUSH2 0x208 JUMPI PUSH1 0x0 DUP1 REVERT JUMPDEST DUP1 PUSH4 0x8DA5CB5B EQ PUSH2 0x1A3 JUMPI DUP1 PUSH4 0x8DBE7B9D EQ PUSH2 0x1BE JUMPI DUP1 PUSH4 0xAE0CCD2E EQ PUSH2 0x1C7 JUMPI PUSH1 0x0 DUP1 REVERT JUMPDEST DUP1 PUSH4 0x24F74697 GT PUSH2 0xC8 JUMPI DUP1 PUSH4 0x24F74697 EQ PUSH2 0x14D JUMPI DUP1 PUSH4 0x67E828BF EQ PUSH2 0x17E JUMPI DUP1 PUSH4 0x6A2EA57E EQ PUSH2 0x193 JUMPI DUP1 PUSH4 0x79BA5097 EQ PUSH2 0x19B JUMPI PUSH1 0x0 DUP1 REVERT JUMPDEST DUP1 PUSH4 0x9C1BA2E EQ PUSH2 0xEF JUMPI DUP1 PUSH4 0xCA76175 EQ PUSH2 0x121 JUMPI DUP1 PUSH4 0x1AA46F59 EQ PUSH2 0x136 JUMPI JUMPDEST PUSH1 0x0 DUP1 REVERT JUMPDEST PUSH1 0x3 SLOAD PUSH2 0x103 SWAP1 PUSH8 0xFFFFFFFFFFFFFFFF AND DUP2 JUMP JUMPDEST PUSH1 0x40 MLOAD PUSH8 0xFFFFFFFFFFFFFFFF SWAP1 SWAP2 AND DUP2 MSTORE PUSH1 0x20 ADD JUMPDEST PUSH1 0x40 MLOAD DUP1 SWAP2 SUB SWAP1 RETURN JUMPDEST PUSH2 0x134 PUSH2 0x12F CALLDATASIZE PUSH1 0x4 PUSH2 0x1290 JUMP JUMPDEST PUSH2 0x210 JUMP JUMPDEST STOP JUMPDEST PUSH2 0x13F PUSH1 0x5 SLOAD DUP2 JUMP JUMPDEST PUSH1 0x40 MLOAD SWAP1 DUP2 MSTORE PUSH1 0x20 ADD PUSH2 0x118 JUMP JUMPDEST PUSH1 0x3 SLOAD PUSH2 0x169 SWAP1 PUSH9 0x10000000000000000 SWAP1 DIV PUSH4 0xFFFFFFFF AND DUP2 JUMP JUMPDEST PUSH1 0x40 MLOAD PUSH4 0xFFFFFFFF SWAP1 SWAP2 AND DUP2 MSTORE PUSH1 0x20 ADD PUSH2 0x118 JUMP JUMPDEST PUSH2 0x186 PUSH2 0x2AD JUMP JUMPDEST PUSH1 0x40 MLOAD PUSH2 0x118 SWAP2 SWAP1 PUSH2 0x134D JUMP JUMPDEST PUSH2 0x186 PUSH2 0x33B JUMP JUMPDEST PUSH2 0x134 PUSH2 0x348 JUMP JUMPDEST PUSH1 0x0 SLOAD PUSH1 0x40 MLOAD PUSH1 0x1 PUSH1 0x1 PUSH1 0xA0 SHL SUB SWAP1 SWAP2 AND DUP2 MSTORE PUSH1 0x20 ADD PUSH2 0x118 JUMP JUMPDEST PUSH2 0x13F PUSH1 0x4 SLOAD DUP2 JUMP JUMPDEST PUSH2 0x134 PUSH2 0x1D5 CALLDATASIZE PUSH1 0x4 PUSH2 0x1374 JUMP JUMPDEST PUSH2 0x40B JUMP JUMPDEST PUSH2 0x186 PUSH2 0x467 JUMP JUMPDEST PUSH2 0x134 PUSH2 0x1F0 CALLDATASIZE PUSH1 0x4 PUSH2 0x1415 JUMP JUMPDEST PUSH2 0x474 JUMP JUMPDEST PUSH2 0x134 PUSH2 0x203 CALLDATASIZE PUSH1 0x4 PUSH2 0x1466 JUMP JUMPDEST PUSH2 0x481 JUMP JUMPDEST PUSH2 0x186 PUSH2 0x495 JUMP JUMPDEST CALLER PUSH1 0x1 PUSH1 0x1 PUSH1 0xA0 SHL SUB PUSH32 0x0 AND EQ PUSH2 0x272 JUMPI PUSH1 0x40 MLOAD PUSH32 0xC6829F8300000000000000000000000000000000000000000000000000000000 DUP2 MSTORE PUSH1 0x4 ADD PUSH1 0x40 MLOAD DUP1 SWAP2 SUB SWAP1 REVERT JUMPDEST PUSH2 0x27D DUP4 DUP4 DUP4 PUSH2 0x4A2 JUMP JUMPDEST PUSH1 0x40 MLOAD DUP4 SWAP1 PUSH32 0x85E1543BF2F84FE80C6BADBCE3648C8539AD1DF4D2B3D822938CA0538BE727E6 SWAP1 PUSH1 0x0 SWAP1 LOG2 POP POP POP JUMP JUMPDEST PUSH1 0x2 DUP1 SLOAD PUSH2 0x2BA SWAP1 PUSH2 0x148F JUMP JUMPDEST DUP1 PUSH1 0x1F ADD PUSH1 0x20 DUP1 SWAP2 DIV MUL PUSH1 0x20 ADD PUSH1 0x40 MLOAD SWAP1 DUP2 ADD PUSH1 0x40 MSTORE DUP1 SWAP3 SWAP2 SWAP1 DUP2 DUP2 MSTORE PUSH1 0x20 ADD DUP3 DUP1 SLOAD PUSH2 0x2E6 SWAP1 PUSH2 0x148F JUMP JUMPDEST DUP1 ISZERO PUSH2 0x333 JUMPI DUP1 PUSH1 0x1F LT PUSH2 0x308 JUMPI PUSH2 0x100 DUP1 DUP4 SLOAD DIV MUL DUP4 MSTORE SWAP2 PUSH1 0x20 ADD SWAP2 PUSH2 0x333 JUMP JUMPDEST DUP3 ADD SWAP2 SWAP1 PUSH1 0x0 MSTORE PUSH1 0x20 PUSH1 0x0 KECCAK256 SWAP1 JUMPDEST DUP2 SLOAD DUP2 MSTORE SWAP1 PUSH1 0x1 ADD SWAP1 PUSH1 0x20 ADD DUP1 DUP4 GT PUSH2 0x316 JUMPI DUP3 SWAP1 SUB PUSH1 0x1F AND DUP3 ADD SWAP2 JUMPDEST POP POP POP POP POP DUP2 JUMP JUMPDEST PUSH1 0x8 DUP1 SLOAD PUSH2 0x2BA SWAP1 PUSH2 0x148F JUMP JUMPDEST PUSH1 0x1 SLOAD PUSH1 0x1 PUSH1 0x1 PUSH1 0xA0 SHL SUB AND CALLER EQ PUSH2 0x3A7 JUMPI PUSH1 0x40 MLOAD PUSH3 0x461BCD PUSH1 0xE5 SHL DUP2 MSTORE PUSH1 0x20 PUSH1 0x4 DUP3 ADD MSTORE PUSH1 0x16 PUSH1 0x24 DUP3 ADD MSTORE PUSH32 0x4D7573742062652070726F706F736564206F776E657200000000000000000000 PUSH1 0x44 DUP3 ADD MSTORE PUSH1 0x64 ADD JUMPDEST PUSH1 0x40 MLOAD DUP1 SWAP2 SUB SWAP1 REVERT JUMPDEST PUSH1 0x0 DUP1 SLOAD CALLER PUSH20 0xFFFFFFFFFFFFFFFFFFFFFFFFFFFFFFFFFFFFFFFF NOT DUP1 DUP4 AND DUP3 OR DUP5 SSTORE PUSH1 0x1 DUP1 SLOAD SWAP1 SWAP2 AND SWAP1 SSTORE PUSH1 0x40 MLOAD PUSH1 0x1 PUSH1 0x1 PUSH1 0xA0 SHL SUB SWAP1 SWAP3 AND SWAP3 SWAP1 SWAP2 DUP4 SWAP2 PUSH32 0x8BE0079C531659141344CD1FD0A4F28419497F9722A3DAAFE3B4186F6B6457E0 SWAP2 LOG3 POP JUMP JUMPDEST PUSH2 0x413 PUSH2 0x562 JUMP JUMPDEST PUSH1 0x2 PUSH2 0x420 DUP6 DUP8 DUP4 PUSH2 0x1517 JUMP JUMPDEST POP PUSH1 0x3 DUP1 SLOAD PUSH4 0xFFFFFFFF SWAP1 SWAP4 AND PUSH9 0x10000000000000000 MUL PUSH12 0xFFFFFFFFFFFFFFFFFFFFFFFF NOT SWAP1 SWAP4 AND PUSH8 0xFFFFFFFFFFFFFFFF SWAP1 SWAP5 AND SWAP4 SWAP1 SWAP4 OR SWAP2 SWAP1 SWAP2 OR SWAP1 SWAP2 SSTORE PUSH1 0x4 SSTORE POP POP JUMP JUMPDEST PUSH1 0x6 DUP1 SLOAD PUSH2 0x2BA SWAP1 PUSH2 0x148F JUMP JUMPDEST PUSH2 0x47D DUP2 PUSH2 0x5BE JUMP JUMPDEST POP POP JUMP JUMPDEST PUSH2 0x489 PUSH2 0x562 JUMP JUMPDEST PUSH2 0x492 DUP2 PUSH2 0x751 JUMP JUMPDEST POP JUMP JUMPDEST PUSH1 0x7 DUP1 SLOAD PUSH2 0x2BA SWAP1 PUSH2 0x148F JUMP JUMPDEST PUSH1 0x6 PUSH2 0x4AE DUP4 DUP3 PUSH2 0x15D8 JUMP JUMPDEST POP PUSH1 0x7 PUSH2 0x4BB DUP3 DUP3 PUSH2 0x15D8 JUMP JUMPDEST POP DUP3 PUSH32 0x7BAB0EC163B5C132C72B8146AC4D6E067E82ED58F8B131150AA71C9258911562 DUP4 DUP4 PUSH1 0x40 MLOAD PUSH2 0x4EE SWAP3 SWAP2 SWAP1 PUSH2 0x1698 JUMP JUMPDEST PUSH1 0x40 MLOAD DUP1 SWAP2 SUB SWAP1 LOG2 DUP2 PUSH1 0x40 MLOAD PUSH1 0x20 ADD PUSH2 0x507 SWAP2 SWAP1 PUSH2 0x16C6 JUMP JUMPDEST PUSH1 0x40 MLOAD PUSH1 0x20 DUP2 DUP4 SUB SUB DUP2 MSTORE SWAP1 PUSH1 0x40 MSTORE PUSH1 0x8 SWAP1 DUP2 PUSH2 0x524 SWAP2 SWAP1 PUSH2 0x15D8 JUMP JUMPDEST POP PUSH32 0x52D7BD047435A6A678D62544F6963D4A396087E6D16E5A9CEC313501967F6033 PUSH1 0x8 PUSH1 0x40 MLOAD PUSH2 0x555 SWAP2 SWAP1 PUSH2 0x16E2 JUMP JUMPDEST PUSH1 0x40 MLOAD DUP1 SWAP2 SUB SWAP1 LOG1 POP POP POP JUMP JUMPDEST PUSH1 0x0 SLOAD PUSH1 0x1 PUSH1 0x1 PUSH1 0xA0 SHL SUB AND CALLER EQ PUSH2 0x5BC JUMPI PUSH1 0x40 MLOAD PUSH3 0x461BCD PUSH1 0xE5 SHL DUP2 MSTORE PUSH1 0x20 PUSH1 0x4 DUP3 ADD MSTORE PUSH1 0x16 PUSH1 0x24 DUP3 ADD MSTORE PUSH32 0x4F6E6C792063616C6C61626C65206279206F776E657200000000000000000000 PUSH1 0x44 DUP3 ADD MSTORE PUSH1 0x64 ADD PUSH2 0x39E JUMP JUMPDEST JUMP JUMPDEST PUSH1 0x0 PUSH2 0x5C8 PUSH2 0x562 JUMP JUMPDEST PUSH2 0x609 PUSH1 0x40 DUP1 MLOAD PUSH1 0xE0 DUP2 ADD SWAP1 SWAP2 MSTORE DUP1 PUSH1 0x0 DUP2 MSTORE PUSH1 0x20 ADD PUSH1 0x0 DUP2 MSTORE PUSH1 0x20 ADD PUSH1 0x0 DUP2 MSTORE PUSH1 0x20 ADD PUSH1 0x60 DUP2 MSTORE PUSH1 0x20 ADD PUSH1 0x60 DUP2 MSTORE PUSH1 0x20 ADD PUSH1 0x60 DUP2 MSTORE PUSH1 0x20 ADD PUSH1 0x60 DUP2 MSTORE POP SWAP1 JUMP JUMPDEST PUSH2 0x6AB PUSH1 0x0 DUP1 PUSH1 0x2 DUP1 SLOAD PUSH2 0x61C SWAP1 PUSH2 0x148F JUMP JUMPDEST DUP1 PUSH1 0x1F ADD PUSH1 0x20 DUP1 SWAP2 DIV MUL PUSH1 0x20 ADD PUSH1 0x40 MLOAD SWAP1 DUP2 ADD PUSH1 0x40 MSTORE DUP1 SWAP3 SWAP2 SWAP1 DUP2 DUP2 MSTORE PUSH1 0x20 ADD DUP3 DUP1 SLOAD PUSH2 0x648 SWAP1 PUSH2 0x148F JUMP JUMPDEST DUP1 ISZERO PUSH2 0x695 JUMPI DUP1 PUSH1 0x1F LT PUSH2 0x66A JUMPI PUSH2 0x100 DUP1 DUP4 SLOAD DIV MUL DUP4 MSTORE SWAP2 PUSH1 0x20 ADD SWAP2 PUSH2 0x695 JUMP JUMPDEST DUP3 ADD SWAP2 SWAP1 PUSH1 0x0 MSTORE PUSH1 0x20 PUSH1 0x0 KECCAK256 SWAP1 JUMPDEST DUP2 SLOAD DUP2 MSTORE SWAP1 PUSH1 0x1 ADD SWAP1 PUSH1 0x20 ADD DUP1 DUP4 GT PUSH2 0x678 JUMPI DUP3 SWAP1 SUB PUSH1 0x1F AND DUP3 ADD SWAP2 JUMPDEST POP POP POP POP POP DUP5 PUSH2 0x807 SWAP1 SWAP4 SWAP3 SWAP2 SWAP1 PUSH4 0xFFFFFFFF AND JUMP JUMPDEST PUSH1 0x40 DUP1 MLOAD PUSH1 0x1 DUP1 DUP3 MSTORE DUP2 DUP4 ADD SWAP1 SWAP3 MSTORE PUSH1 0x0 SWAP2 DUP2 PUSH1 0x20 ADD JUMPDEST PUSH1 0x60 DUP2 MSTORE PUSH1 0x20 ADD SWAP1 PUSH1 0x1 SWAP1 SUB SWAP1 DUP2 PUSH2 0x6C2 JUMPI SWAP1 POP POP SWAP1 POP DUP4 DUP2 PUSH1 0x0 DUP2 MLOAD DUP2 LT PUSH2 0x6ED JUMPI PUSH2 0x6ED PUSH2 0x176D JUMP JUMPDEST PUSH1 0x20 SWAP1 DUP2 MUL SWAP2 SWAP1 SWAP2 ADD ADD MSTORE DUP1 MLOAD ISZERO PUSH2 0x709 JUMPI PUSH2 0x709 DUP3 DUP3 PUSH2 0x89E JUMP JUMPDEST PUSH1 0x0 PUSH2 0x741 PUSH2 0x717 DUP5 PUSH2 0x8E1 JUMP JUMPDEST PUSH1 0x3 SLOAD PUSH1 0x4 SLOAD PUSH8 0xFFFFFFFFFFFFFFFF DUP3 AND SWAP2 PUSH9 0x10000000000000000 SWAP1 DIV PUSH4 0xFFFFFFFF AND SWAP1 PUSH2 0xC60 JUMP JUMPDEST PUSH1 0x5 DUP2 SWAP1 SSTORE SWAP4 POP POP POP POP JUMPDEST SWAP2 SWAP1 POP JUMP JUMPDEST CALLER PUSH1 0x1 PUSH1 0x1 PUSH1 0xA0 SHL SUB DUP3 AND SUB PUSH2 0x7A9 JUMPI PUSH1 0x40 MLOAD PUSH3 0x461BCD PUSH1 0xE5 SHL DUP2 MSTORE PUSH1 0x20 PUSH1 0x4 DUP3 ADD MSTORE PUSH1 0x17 PUSH1 0x24 DUP3 ADD MSTORE PUSH32 0x43616E6E6F74207472616E7366657220746F2073656C66000000000000000000 PUSH1 0x44 DUP3 ADD MSTORE PUSH1 0x64 ADD PUSH2 0x39E JUMP JUMPDEST PUSH1 0x1 DUP1 SLOAD PUSH20 0xFFFFFFFFFFFFFFFFFFFFFFFFFFFFFFFFFFFFFFFF NOT AND PUSH1 0x1 PUSH1 0x1 PUSH1 0xA0 SHL SUB DUP4 DUP2 AND SWAP2 DUP3 OR SWAP1 SWAP3 SSTORE PUSH1 0x0 DUP1 SLOAD PUSH1 0x40 MLOAD SWAP3 SWAP4 AND SWAP2 PUSH32 0xED8889F560326EB138920D842192F0EB3DD22B4F139C87A2C57538E05BAE1278 SWAP2 SWAP1 LOG3 POP JUMP JUMPDEST DUP1 MLOAD PUSH1 0x0 SUB PUSH2 0x842 JUMPI PUSH1 0x40 MLOAD PUSH32 0x22CE3EDD00000000000000000000000000000000000000000000000000000000 DUP2 MSTORE PUSH1 0x4 ADD PUSH1 0x40 MLOAD DUP1 SWAP2 SUB SWAP1 REVERT JUMPDEST DUP4 DUP4 PUSH1 0x2 DUP2 GT ISZERO PUSH2 0x855 JUMPI PUSH2 0x855 PUSH2 0x1783 JUMP JUMPDEST SWAP1 DUP2 PUSH1 0x2 DUP2 GT ISZERO PUSH2 0x868 JUMPI PUSH2 0x868 PUSH2 0x1783 JUMP JUMPDEST SWAP1 MSTORE POP PUSH1 0x40 DUP5 ADD DUP3 DUP1 ISZERO PUSH2 0x87E JUMPI PUSH2 0x87E PUSH2 0x1783 JUMP JUMPDEST SWAP1 DUP2 DUP1 ISZERO PUSH2 0x88E JUMPI PUSH2 0x88E PUSH2 0x1783 JUMP JUMPDEST SWAP1 MSTORE POP PUSH1 0x60 SWAP1 SWAP4 ADD SWAP3 SWAP1 SWAP3 MSTORE POP POP JUMP JUMPDEST DUP1 MLOAD PUSH1 0x0 SUB PUSH2 0x8D9 JUMPI PUSH1 0x40 MLOAD PUSH32 0xFE936CB700000000000000000000000000000000000000000000000000000000 DUP2 MSTORE PUSH1 0x4 ADD PUSH1 0x40 MLOAD DUP1 SWAP2 SUB SWAP1 REVERT JUMPDEST PUSH1 0xA0 SWAP1 SWAP2 ADD MSTORE JUMP JUMPDEST PUSH1 0x60 PUSH1 0x0 PUSH2 0x8F0 PUSH2 0x100 PUSH2 0xD32 JUMP JUMPDEST SWAP1 POP PUSH2 0x93A PUSH1 0x40 MLOAD DUP1 PUSH1 0x40 ADD PUSH1 0x40 MSTORE DUP1 PUSH1 0xC DUP2 MSTORE PUSH1 0x20 ADD PUSH32 0x636F64654C6F636174696F6E0000000000000000000000000000000000000000 DUP2 MSTORE POP DUP3 PUSH2 0xD53 SWAP1 SWAP2 SWAP1 PUSH4 0xFFFFFFFF AND JUMP JUMPDEST DUP3 MLOAD PUSH2 0x958 SWAP1 PUSH1 0x2 DUP2 GT ISZERO PUSH2 0x951 JUMPI PUSH2 0x951 PUSH2 0x1783 JUMP JUMPDEST DUP3 SWAP1 PUSH2 0xD71 JUMP JUMPDEST PUSH1 0x40 DUP1 MLOAD DUP1 DUP3 ADD SWAP1 SWAP2 MSTORE PUSH1 0x8 DUP2 MSTORE PUSH32 0x6C616E6775616765000000000000000000000000000000000000000000000000 PUSH1 0x20 DUP3 ADD MSTORE PUSH2 0x997 SWAP1 DUP3 SWAP1 PUSH2 0xD53 JUMP JUMPDEST PUSH1 0x40 DUP4 ADD MLOAD PUSH2 0x9AE SWAP1 DUP1 ISZERO PUSH2 0x951 JUMPI PUSH2 0x951 PUSH2 0x1783 JUMP JUMPDEST PUSH1 0x40 DUP1 MLOAD DUP1 DUP3 ADD SWAP1 SWAP2 MSTORE PUSH1 0x6 DUP2 MSTORE PUSH32 0x736F757263650000000000000000000000000000000000000000000000000000 PUSH1 0x20 DUP3 ADD MSTORE PUSH2 0x9ED SWAP1 DUP3 SWAP1 PUSH2 0xD53 JUMP JUMPDEST PUSH1 0x60 DUP4 ADD MLOAD PUSH2 0x9FD SWAP1 DUP3 SWAP1 PUSH2 0xD53 JUMP JUMPDEST PUSH1 0xA0 DUP4 ADD MLOAD MLOAD ISZERO PUSH2 0xAAA JUMPI PUSH1 0x40 DUP1 MLOAD DUP1 DUP3 ADD SWAP1 SWAP2 MSTORE PUSH1 0x4 DUP2 MSTORE PUSH32 0x6172677300000000000000000000000000000000000000000000000000000000 PUSH1 0x20 DUP3 ADD MSTORE PUSH2 0xA47 SWAP1 DUP3 SWAP1 PUSH2 0xD53 JUMP JUMPDEST PUSH2 0xA50 DUP2 PUSH2 0xDAA JUMP JUMPDEST PUSH1 0x0 JUMPDEST DUP4 PUSH1 0xA0 ADD MLOAD MLOAD DUP2 LT ISZERO PUSH2 0xAA0 JUMPI PUSH2 0xA90 DUP5 PUSH1 0xA0 ADD MLOAD DUP3 DUP2 MLOAD DUP2 LT PUSH2 0xA79 JUMPI PUSH2 0xA79 PUSH2 0x176D JUMP JUMPDEST PUSH1 0x20 MUL PUSH1 0x20 ADD ADD MLOAD DUP4 PUSH2 0xD53 SWAP1 SWAP2 SWAP1 PUSH4 0xFFFFFFFF AND JUMP JUMPDEST PUSH2 0xA99 DUP2 PUSH2 0x17AF JUMP JUMPDEST SWAP1 POP PUSH2 0xA53 JUMP JUMPDEST POP PUSH2 0xAAA DUP2 PUSH2 0xDCE JUMP JUMPDEST PUSH1 0x80 DUP4 ADD MLOAD MLOAD ISZERO PUSH2 0xBAB JUMPI PUSH1 0x0 DUP4 PUSH1 0x20 ADD MLOAD PUSH1 0x2 DUP2 GT ISZERO PUSH2 0xACD JUMPI PUSH2 0xACD PUSH2 0x1783 JUMP JUMPDEST SUB PUSH2 0xB04 JUMPI PUSH1 0x40 MLOAD PUSH32 0xA80D31F700000000000000000000000000000000000000000000000000000000 DUP2 MSTORE PUSH1 0x4 ADD PUSH1 0x40 MLOAD DUP1 SWAP2 SUB SWAP1 REVERT JUMPDEST PUSH1 0x40 DUP1 MLOAD DUP1 DUP3 ADD SWAP1 SWAP2 MSTORE PUSH1 0xF DUP2 MSTORE PUSH32 0x736563726574734C6F636174696F6E0000000000000000000000000000000000 PUSH1 0x20 DUP3 ADD MSTORE PUSH2 0xB43 SWAP1 DUP3 SWAP1 PUSH2 0xD53 JUMP JUMPDEST PUSH2 0xB5C DUP4 PUSH1 0x20 ADD MLOAD PUSH1 0x2 DUP2 GT ISZERO PUSH2 0x951 JUMPI PUSH2 0x951 PUSH2 0x1783 JUMP JUMPDEST PUSH1 0x40 DUP1 MLOAD DUP1 DUP3 ADD SWAP1 SWAP2 MSTORE PUSH1 0x7 DUP2 MSTORE PUSH32 0x7365637265747300000000000000000000000000000000000000000000000000 PUSH1 0x20 DUP3 ADD MSTORE PUSH2 0xB9B SWAP1 DUP3 SWAP1 PUSH2 0xD53 JUMP JUMPDEST PUSH1 0x80 DUP4 ADD MLOAD PUSH2 0xBAB SWAP1 DUP3 SWAP1 PUSH2 0xDEC JUMP JUMPDEST PUSH1 0xC0 DUP4 ADD MLOAD MLOAD ISZERO PUSH2 0xC58 JUMPI PUSH1 0x40 DUP1 MLOAD DUP1 DUP3 ADD SWAP1 SWAP2 MSTORE PUSH1 0x9 DUP2 MSTORE PUSH32 0x6279746573417267730000000000000000000000000000000000000000000000 PUSH1 0x20 DUP3 ADD MSTORE PUSH2 0xBF5 SWAP1 DUP3 SWAP1 PUSH2 0xD53 JUMP JUMPDEST PUSH2 0xBFE DUP2 PUSH2 0xDAA JUMP JUMPDEST PUSH1 0x0 JUMPDEST DUP4 PUSH1 0xC0 ADD MLOAD MLOAD DUP2 LT ISZERO PUSH2 0xC4E JUMPI PUSH2 0xC3E DUP5 PUSH1 0xC0 ADD MLOAD DUP3 DUP2 MLOAD DUP2 LT PUSH2 0xC27 JUMPI PUSH2 0xC27 PUSH2 0x176D JUMP JUMPDEST PUSH1 0x20 MUL PUSH1 0x20 ADD ADD MLOAD DUP4 PUSH2 0xDEC SWAP1 SWAP2 SWAP1 PUSH4 0xFFFFFFFF AND JUMP JUMPDEST PUSH2 0xC47 DUP2 PUSH2 0x17AF JUMP JUMPDEST SWAP1 POP PUSH2 0xC01 JUMP JUMPDEST POP PUSH2 0xC58 DUP2 PUSH2 0xDCE JUMP JUMPDEST MLOAD MLOAD SWAP3 SWAP2 POP POP JUMP JUMPDEST PUSH1 0x0 DUP1 PUSH32 0x0 PUSH1 0x1 PUSH1 0x1 PUSH1 0xA0 SHL SUB AND PUSH4 0x461D2762 DUP7 DUP9 PUSH1 0x1 DUP9 DUP9 PUSH1 0x40 MLOAD DUP7 PUSH4 0xFFFFFFFF AND PUSH1 0xE0 SHL DUP2 MSTORE PUSH1 0x4 ADD PUSH2 0xCB8 SWAP6 SWAP5 SWAP4 SWAP3 SWAP2 SWAP1 PUSH2 0x17C8 JUMP JUMPDEST PUSH1 0x20 PUSH1 0x40 MLOAD DUP1 DUP4 SUB DUP2 PUSH1 0x0 DUP8 GAS CALL ISZERO DUP1 ISZERO PUSH2 0xCD7 JUMPI RETURNDATASIZE PUSH1 0x0 DUP1 RETURNDATACOPY RETURNDATASIZE PUSH1 0x0 REVERT JUMPDEST POP POP POP POP PUSH1 0x40 MLOAD RETURNDATASIZE PUSH1 0x1F NOT PUSH1 0x1F DUP3 ADD AND DUP3 ADD DUP1 PUSH1 0x40 MSTORE POP DUP2 ADD SWAP1 PUSH2 0xCFB SWAP2 SWAP1 PUSH2 0x1812 JUMP JUMPDEST PUSH1 0x40 MLOAD SWAP1 SWAP2 POP DUP2 SWAP1 PUSH32 0x1131472297A800FEE664D1D89CFA8F7676FF07189ECC53F80BBB5F4969099DB8 SWAP1 PUSH1 0x0 SWAP1 LOG2 SWAP6 SWAP5 POP POP POP POP POP JUMP JUMPDEST PUSH2 0xD3A PUSH2 0x11AF JUMP JUMPDEST DUP1 MLOAD PUSH2 0xD46 SWAP1 DUP4 PUSH2 0xDF9 JUMP JUMPDEST POP PUSH1 0x0 PUSH1 0x20 DUP3 ADD MSTORE SWAP2 SWAP1 POP JUMP JUMPDEST PUSH2 0xD60 DUP3 PUSH1 0x3 DUP4 MLOAD PUSH2 0xE73 JUMP JUMPDEST DUP2 MLOAD PUSH2 0xD6C SWAP1 DUP3 PUSH2 0xF9A JUMP JUMPDEST POP POP POP JUMP JUMPDEST DUP2 MLOAD PUSH2 0xD7E SWAP1 PUSH1 0xC2 PUSH2 0xFC2 JUMP JUMPDEST POP PUSH2 0x47D DUP3 DUP3 PUSH1 0x40 MLOAD PUSH1 0x20 ADD PUSH2 0xD96 SWAP2 DUP2 MSTORE PUSH1 0x20 ADD SWAP1 JUMP JUMPDEST PUSH1 0x40 MLOAD PUSH1 0x20 DUP2 DUP4 SUB SUB DUP2 MSTORE SWAP1 PUSH1 0x40 MSTORE PUSH2 0xDEC JUMP JUMPDEST PUSH2 0xDB5 DUP2 PUSH1 0x4 PUSH2 0x102B JUMP JUMPDEST PUSH1 0x1 DUP2 PUSH1 0x20 ADD DUP2 DUP2 MLOAD PUSH2 0xDC8 SWAP2 SWAP1 PUSH2 0x182B JUMP JUMPDEST SWAP1 MSTORE POP POP JUMP JUMPDEST PUSH2 0xDD9 DUP2 PUSH1 0x7 PUSH2 0x102B JUMP JUMPDEST PUSH1 0x1 DUP2 PUSH1 0x20 ADD DUP2 DUP2 MLOAD PUSH2 0xDC8 SWAP2 SWAP1 PUSH2 0x183E JUMP JUMPDEST PUSH2 0xD60 DUP3 PUSH1 0x2 DUP4 MLOAD PUSH2 0xE73 JUMP JUMPDEST PUSH1 0x40 DUP1 MLOAD DUP1 DUP3 ADD SWAP1 SWAP2 MSTORE PUSH1 0x60 DUP2 MSTORE PUSH1 0x0 PUSH1 0x20 DUP3 ADD MSTORE PUSH2 0xE19 PUSH1 0x20 DUP4 PUSH2 0x1851 JUMP JUMPDEST ISZERO PUSH2 0xE41 JUMPI PUSH2 0xE29 PUSH1 0x20 DUP4 PUSH2 0x1851 JUMP JUMPDEST PUSH2 0xE34 SWAP1 PUSH1 0x20 PUSH2 0x183E JUMP JUMPDEST PUSH2 0xE3E SWAP1 DUP4 PUSH2 0x182B JUMP JUMPDEST SWAP2 POP JUMPDEST PUSH1 0x20 DUP1 DUP5 ADD DUP4 SWAP1 MSTORE PUSH1 0x40 MLOAD DUP1 DUP6 MSTORE PUSH1 0x0 DUP2 MSTORE SWAP1 DUP2 DUP5 ADD ADD DUP2 DUP2 LT ISZERO PUSH2 0xE65 JUMPI PUSH1 0x0 DUP1 REVERT JUMPDEST PUSH1 0x40 MSTORE POP DUP3 SWAP1 POP JUMPDEST SWAP3 SWAP2 POP POP JUMP JUMPDEST PUSH1 0x17 DUP2 PUSH8 0xFFFFFFFFFFFFFFFF AND GT PUSH2 0xEA0 JUMPI DUP3 MLOAD PUSH2 0xE9A SWAP1 PUSH1 0xE0 PUSH1 0x5 DUP6 SWAP1 SHL AND DUP4 OR PUSH2 0xFC2 JUMP JUMPDEST POP POP POP POP JUMP JUMPDEST PUSH1 0xFF DUP2 PUSH8 0xFFFFFFFFFFFFFFFF AND GT PUSH2 0xEE2 JUMPI DUP3 MLOAD PUSH2 0xEC9 SWAP1 PUSH1 0x18 PUSH2 0x1FE0 PUSH1 0x5 DUP7 SWAP1 SHL AND OR PUSH2 0xFC2 JUMP JUMPDEST POP DUP3 MLOAD PUSH2 0xE9A SWAP1 PUSH8 0xFFFFFFFFFFFFFFFF DUP4 AND PUSH1 0x1 PUSH2 0x1042 JUMP JUMPDEST PUSH2 0xFFFF DUP2 PUSH8 0xFFFFFFFFFFFFFFFF AND GT PUSH2 0xF25 JUMPI DUP3 MLOAD PUSH2 0xF0C SWAP1 PUSH1 0x19 PUSH2 0x1FE0 PUSH1 0x5 DUP7 SWAP1 SHL AND OR PUSH2 0xFC2 JUMP JUMPDEST POP DUP3 MLOAD PUSH2 0xE9A SWAP1 PUSH8 0xFFFFFFFFFFFFFFFF DUP4 AND PUSH1 0x2 PUSH2 0x1042 JUMP JUMPDEST PUSH4 0xFFFFFFFF DUP2 PUSH8 0xFFFFFFFFFFFFFFFF AND GT PUSH2 0xF6A JUMPI DUP3 MLOAD PUSH2 0xF51 SWAP1 PUSH1 0x1A PUSH2 0x1FE0 PUSH1 0x5 DUP7 SWAP1 SHL AND OR PUSH2 0xFC2 JUMP JUMPDEST POP DUP3 MLOAD PUSH2 0xE9A SWAP1 PUSH8 0xFFFFFFFFFFFFFFFF DUP4 AND PUSH1 0x4 PUSH2 0x1042 JUMP JUMPDEST DUP3 MLOAD PUSH2 0xF81 SWAP1 PUSH1 0x1B PUSH2 0x1FE0 PUSH1 0x5 DUP7 SWAP1 SHL AND OR PUSH2 0xFC2 JUMP JUMPDEST POP DUP3 MLOAD PUSH2 0xE9A SWAP1 PUSH8 0xFFFFFFFFFFFFFFFF DUP4 AND PUSH1 0x8 PUSH2 0x1042 JUMP JUMPDEST PUSH1 0x40 DUP1 MLOAD DUP1 DUP3 ADD SWAP1 SWAP2 MSTORE PUSH1 0x60 DUP2 MSTORE PUSH1 0x0 PUSH1 0x20 DUP3 ADD MSTORE PUSH2 0xFBB DUP4 DUP4 DUP5 MLOAD PUSH2 0x10C7 JUMP JUMPDEST SWAP4 SWAP3 POP POP POP JUMP JUMPDEST PUSH1 0x40 DUP1 MLOAD DUP1 DUP3 ADD SWAP1 SWAP2 MSTORE PUSH1 0x60 DUP2 MSTORE PUSH1 0x0 PUSH1 0x20 DUP3 ADD MSTORE DUP3 MLOAD MLOAD PUSH1 0x0 PUSH2 0xFE7 DUP3 PUSH1 0x1 PUSH2 0x182B JUMP JUMPDEST SWAP1 POP DUP5 PUSH1 0x20 ADD MLOAD DUP3 LT PUSH2 0x1008 JUMPI PUSH2 0x1008 DUP6 PUSH2 0x1003 DUP4 PUSH1 0x2 PUSH2 0x1873 JUMP JUMPDEST PUSH2 0x1198 JUMP JUMPDEST DUP5 MLOAD PUSH1 0x20 DUP4 DUP3 ADD ADD DUP6 DUP2 MSTORE8 POP DUP1 MLOAD DUP3 GT ISZERO PUSH2 0x1021 JUMPI DUP2 DUP2 MSTORE JUMPDEST POP SWAP4 SWAP5 SWAP4 POP POP POP POP JUMP JUMPDEST DUP2 MLOAD PUSH2 0xD6C SWAP1 PUSH1 0x1F PUSH2 0x1FE0 PUSH1 0x5 DUP6 SWAP1 SHL AND OR PUSH2 0xFC2 JUMP JUMPDEST PUSH1 0x40 DUP1 MLOAD DUP1 DUP3 ADD SWAP1 SWAP2 MSTORE PUSH1 0x60 DUP2 MSTORE PUSH1 0x0 PUSH1 0x20 DUP3 ADD MSTORE DUP4 MLOAD MLOAD PUSH1 0x0 PUSH2 0x1066 DUP3 DUP6 PUSH2 0x182B JUMP JUMPDEST SWAP1 POP DUP6 PUSH1 0x20 ADD MLOAD DUP2 GT ISZERO PUSH2 0x1083 JUMPI PUSH2 0x1083 DUP7 PUSH2 0x1003 DUP4 PUSH1 0x2 PUSH2 0x1873 JUMP JUMPDEST PUSH1 0x0 PUSH1 0x1 PUSH2 0x1093 DUP7 PUSH2 0x100 PUSH2 0x196E JUMP JUMPDEST PUSH2 0x109D SWAP2 SWAP1 PUSH2 0x183E JUMP JUMPDEST SWAP1 POP DUP7 MLOAD DUP3 DUP2 ADD DUP8 DUP4 NOT DUP3 MLOAD AND OR DUP2 MSTORE POP DUP1 MLOAD DUP4 GT ISZERO PUSH2 0x10BB JUMPI DUP3 DUP2 MSTORE JUMPDEST POP SWAP6 SWAP7 SWAP6 POP POP POP POP POP POP JUMP JUMPDEST PUSH1 0x40 DUP1 MLOAD DUP1 DUP3 ADD SWAP1 SWAP2 MSTORE PUSH1 0x60 DUP2 MSTORE PUSH1 0x0 PUSH1 0x20 DUP3 ADD MSTORE DUP3 MLOAD DUP3 GT ISZERO PUSH2 0x10EA JUMPI PUSH1 0x0 DUP1 REVERT JUMPDEST DUP4 MLOAD MLOAD PUSH1 0x0 PUSH2 0x10F9 DUP5 DUP4 PUSH2 0x182B JUMP JUMPDEST SWAP1 POP DUP6 PUSH1 0x20 ADD MLOAD DUP2 GT ISZERO PUSH2 0x1116 JUMPI PUSH2 0x1116 DUP7 PUSH2 0x1003 DUP4 PUSH1 0x2 PUSH2 0x1873 JUMP JUMPDEST DUP6 MLOAD DUP1 MLOAD DUP4 DUP3 ADD PUSH1 0x20 ADD SWAP2 PUSH1 0x0 SWAP2 DUP1 DUP6 GT ISZERO PUSH2 0x1130 JUMPI DUP5 DUP3 MSTORE JUMPDEST POP POP POP PUSH1 0x20 DUP7 ADD JUMPDEST PUSH1 0x20 DUP7 LT PUSH2 0x1170 JUMPI DUP1 MLOAD DUP3 MSTORE PUSH2 0x114F PUSH1 0x20 DUP4 PUSH2 0x182B JUMP JUMPDEST SWAP2 POP PUSH2 0x115C PUSH1 0x20 DUP3 PUSH2 0x182B JUMP JUMPDEST SWAP1 POP PUSH2 0x1169 PUSH1 0x20 DUP8 PUSH2 0x183E JUMP JUMPDEST SWAP6 POP PUSH2 0x1138 JUMP JUMPDEST MLOAD DUP2 MLOAD PUSH1 0x0 NOT PUSH1 0x20 DUP9 SWAP1 SUB PUSH2 0x100 EXP ADD SWAP1 DUP2 AND SWAP1 NOT SWAP2 SWAP1 SWAP2 AND OR SWAP1 MSTORE POP DUP5 SWAP2 POP POP SWAP4 SWAP3 POP POP POP JUMP JUMPDEST DUP2 MLOAD PUSH2 0x11A4 DUP4 DUP4 PUSH2 0xDF9 JUMP JUMPDEST POP PUSH2 0xE9A DUP4 DUP3 PUSH2 0xF9A JUMP JUMPDEST PUSH1 0x40 MLOAD DUP1 PUSH1 0x40 ADD PUSH1 0x40 MSTORE DUP1 PUSH2 0x11D7 PUSH1 0x40 MLOAD DUP1 PUSH1 0x40 ADD PUSH1 0x40 MSTORE DUP1 PUSH1 0x60 DUP2 MSTORE PUSH1 0x20 ADD PUSH1 0x0 DUP2 MSTORE POP SWAP1 JUMP JUMPDEST DUP2 MSTORE PUSH1 0x20 ADD PUSH1 0x0 DUP2 MSTORE POP SWAP1 JUMP JUMPDEST PUSH4 0x4E487B71 PUSH1 0xE0 SHL PUSH1 0x0 MSTORE PUSH1 0x41 PUSH1 0x4 MSTORE PUSH1 0x24 PUSH1 0x0 REVERT JUMPDEST PUSH1 0x0 PUSH8 0xFFFFFFFFFFFFFFFF DUP1 DUP5 GT ISZERO PUSH2 0x1215 JUMPI PUSH2 0x1215 PUSH2 0x11E4 JUMP JUMPDEST PUSH1 0x40 MLOAD PUSH1 0x1F DUP6 ADD PUSH1 0x1F NOT SWAP1 DUP2 AND PUSH1 0x3F ADD AND DUP2 ADD SWAP1 DUP3 DUP3 GT DUP2 DUP4 LT OR ISZERO PUSH2 0x123D JUMPI PUSH2 0x123D PUSH2 0x11E4 JUMP JUMPDEST DUP2 PUSH1 0x40 MSTORE DUP1 SWAP4 POP DUP6 DUP2 MSTORE DUP7 DUP7 DUP7 ADD GT ISZERO PUSH2 0x1256 JUMPI PUSH1 0x0 DUP1 REVERT JUMPDEST DUP6 DUP6 PUSH1 0x20 DUP4 ADD CALLDATACOPY PUSH1 0x0 PUSH1 0x20 DUP8 DUP4 ADD ADD MSTORE POP POP POP SWAP4 SWAP3 POP POP POP JUMP JUMPDEST PUSH1 0x0 DUP3 PUSH1 0x1F DUP4 ADD SLT PUSH2 0x1281 JUMPI PUSH1 0x0 DUP1 REVERT JUMPDEST PUSH2 0xFBB DUP4 DUP4 CALLDATALOAD PUSH1 0x20 DUP6 ADD PUSH2 0x11FA JUMP JUMPDEST PUSH1 0x0 DUP1 PUSH1 0x0 PUSH1 0x60 DUP5 DUP7 SUB SLT ISZERO PUSH2 0x12A5 JUMPI PUSH1 0x0 DUP1 REVERT JUMPDEST DUP4 CALLDATALOAD SWAP3 POP PUSH1 0x20 DUP5 ADD CALLDATALOAD PUSH8 0xFFFFFFFFFFFFFFFF DUP1 DUP3 GT ISZERO PUSH2 0x12C4 JUMPI PUSH1 0x0 DUP1 REVERT JUMPDEST PUSH2 0x12D0 DUP8 DUP4 DUP9 ADD PUSH2 0x1270 JUMP JUMPDEST SWAP4 POP PUSH1 0x40 DUP7 ADD CALLDATALOAD SWAP2 POP DUP1 DUP3 GT ISZERO PUSH2 0x12E6 JUMPI PUSH1 0x0 DUP1 REVERT JUMPDEST POP PUSH2 0x12F3 DUP7 DUP3 DUP8 ADD PUSH2 0x1270 JUMP JUMPDEST SWAP2 POP POP SWAP3 POP SWAP3 POP SWAP3 JUMP JUMPDEST PUSH1 0x0 JUMPDEST DUP4 DUP2 LT ISZERO PUSH2 0x1318 JUMPI DUP2 DUP2 ADD MLOAD DUP4 DUP3 ADD MSTORE PUSH1 0x20 ADD PUSH2 0x1300 JUMP JUMPDEST POP POP PUSH1 0x0 SWAP2 ADD MSTORE JUMP JUMPDEST PUSH1 0x0 DUP2 MLOAD DUP1 DUP5 MSTORE PUSH2 0x1339 DUP2 PUSH1 0x20 DUP7 ADD PUSH1 0x20 DUP7 ADD PUSH2 0x12FD JUMP JUMPDEST PUSH1 0x1F ADD PUSH1 0x1F NOT AND SWAP3 SWAP1 SWAP3 ADD PUSH1 0x20 ADD SWAP3 SWAP2 POP POP JUMP JUMPDEST PUSH1 0x20 DUP2 MSTORE PUSH1 0x0 PUSH2 0xFBB PUSH1 0x20 DUP4 ADD DUP5 PUSH2 0x1321 JUMP JUMPDEST DUP1 CALLDATALOAD PUSH4 0xFFFFFFFF DUP2 AND DUP2 EQ PUSH2 0x74C JUMPI PUSH1 0x0 DUP1 REVERT JUMPDEST PUSH1 0x0 DUP1 PUSH1 0x0 DUP1 PUSH1 0x0 PUSH1 0x80 DUP7 DUP9 SUB SLT ISZERO PUSH2 0x138C JUMPI PUSH1 0x0 DUP1 REVERT JUMPDEST DUP6 CALLDATALOAD PUSH8 0xFFFFFFFFFFFFFFFF DUP1 DUP3 GT ISZERO PUSH2 0x13A4 JUMPI PUSH1 0x0 DUP1 REVERT JUMPDEST DUP2 DUP9 ADD SWAP2 POP DUP9 PUSH1 0x1F DUP4 ADD SLT PUSH2 0x13B8 JUMPI PUSH1 0x0 DUP1 REVERT JUMPDEST DUP2 CALLDATALOAD DUP2 DUP2 GT ISZERO PUSH2 0x13C7 JUMPI PUSH1 0x0 DUP1 REVERT JUMPDEST DUP10 PUSH1 0x20 DUP3 DUP6 ADD ADD GT ISZERO PUSH2 0x13D9 JUMPI PUSH1 0x0 DUP1 REVERT JUMPDEST PUSH1 0x20 SWAP3 DUP4 ADD SWAP8 POP SWAP6 POP SWAP1 DUP8 ADD CALLDATALOAD SWAP1 DUP1 DUP3 AND DUP3 EQ PUSH2 0x13F5 JUMPI PUSH1 0x0 DUP1 REVERT JUMPDEST POP SWAP3 POP PUSH2 0x1404 PUSH1 0x40 DUP8 ADD PUSH2 0x1360 JUMP JUMPDEST SWAP5 SWAP8 SWAP4 SWAP7 POP SWAP2 SWAP5 PUSH1 0x60 ADD CALLDATALOAD SWAP3 SWAP2 POP POP JUMP JUMPDEST PUSH1 0x0 PUSH1 0x20 DUP3 DUP5 SUB SLT ISZERO PUSH2 0x1427 JUMPI PUSH1 0x0 DUP1 REVERT JUMPDEST DUP2 CALLDATALOAD PUSH8 0xFFFFFFFFFFFFFFFF DUP2 GT ISZERO PUSH2 0x143E JUMPI PUSH1 0x0 DUP1 REVERT JUMPDEST DUP3 ADD PUSH1 0x1F DUP2 ADD DUP5 SGT PUSH2 0x144F JUMPI PUSH1 0x0 DUP1 REVERT JUMPDEST PUSH2 0x145E DUP5 DUP3 CALLDATALOAD PUSH1 0x20 DUP5 ADD PUSH2 0x11FA JUMP JUMPDEST SWAP5 SWAP4 POP POP POP POP JUMP JUMPDEST PUSH1 0x0 PUSH1 0x20 DUP3 DUP5 SUB SLT ISZERO PUSH2 0x1478 JUMPI PUSH1 0x0 DUP1 REVERT JUMPDEST DUP2 CALLDATALOAD PUSH1 0x1 PUSH1 0x1 PUSH1 0xA0 SHL SUB DUP2 AND DUP2 EQ PUSH2 0xFBB JUMPI PUSH1 0x0 DUP1 REVERT JUMPDEST PUSH1 0x1 DUP2 DUP2 SHR SWAP1 DUP3 AND DUP1 PUSH2 0x14A3 JUMPI PUSH1 0x7F DUP3 AND SWAP2 POP JUMPDEST PUSH1 0x20 DUP3 LT DUP2 SUB PUSH2 0x14C3 JUMPI PUSH4 0x4E487B71 PUSH1 0xE0 SHL PUSH1 0x0 MSTORE PUSH1 0x22 PUSH1 0x4 MSTORE PUSH1 0x24 PUSH1 0x0 REVERT JUMPDEST POP SWAP2 SWAP1 POP JUMP JUMPDEST PUSH1 0x1F DUP3 GT ISZERO PUSH2 0xD6C JUMPI PUSH1 0x0 DUP2 DUP2 MSTORE PUSH1 0x20 DUP2 KECCAK256 PUSH1 0x1F DUP6 ADD PUSH1 0x5 SHR DUP2 ADD PUSH1 0x20 DUP7 LT ISZERO PUSH2 0x14F0 JUMPI POP DUP1 JUMPDEST PUSH1 0x1F DUP6 ADD PUSH1 0x5 SHR DUP3 ADD SWAP2 POP JUMPDEST DUP2 DUP2 LT ISZERO PUSH2 0x150F JUMPI DUP3 DUP2 SSTORE PUSH1 0x1 ADD PUSH2 0x14FC JUMP JUMPDEST POP POP POP POP POP POP JUMP JUMPDEST PUSH8 0xFFFFFFFFFFFFFFFF DUP4 GT ISZERO PUSH2 0x152F JUMPI PUSH2 0x152F PUSH2 0x11E4 JUMP JUMPDEST PUSH2 0x1543 DUP4 PUSH2 0x153D DUP4 SLOAD PUSH2 0x148F JUMP JUMPDEST DUP4 PUSH2 0x14C9 JUMP JUMPDEST PUSH1 0x0 PUSH1 0x1F DUP5 GT PUSH1 0x1 DUP2 EQ PUSH2 0x1577 JUMPI PUSH1 0x0 DUP6 ISZERO PUSH2 0x155F JUMPI POP DUP4 DUP3 ADD CALLDATALOAD JUMPDEST PUSH1 0x0 NOT PUSH1 0x3 DUP8 SWAP1 SHL SHR NOT AND PUSH1 0x1 DUP7 SWAP1 SHL OR DUP4 SSTORE PUSH2 0x15D1 JUMP JUMPDEST PUSH1 0x0 DUP4 DUP2 MSTORE PUSH1 0x20 SWAP1 KECCAK256 PUSH1 0x1F NOT DUP7 AND SWAP1 DUP4 JUMPDEST DUP3 DUP2 LT ISZERO PUSH2 0x15A8 JUMPI DUP7 DUP6 ADD CALLDATALOAD DUP3 SSTORE PUSH1 0x20 SWAP5 DUP6 ADD SWAP5 PUSH1 0x1 SWAP1 SWAP3 ADD SWAP2 ADD PUSH2 0x1588 JUMP JUMPDEST POP DUP7 DUP3 LT ISZERO PUSH2 0x15C5 JUMPI PUSH1 0x0 NOT PUSH1 0xF8 DUP9 PUSH1 0x3 SHL AND SHR NOT DUP5 DUP8 ADD CALLDATALOAD AND DUP2 SSTORE JUMPDEST POP POP PUSH1 0x1 DUP6 PUSH1 0x1 SHL ADD DUP4 SSTORE JUMPDEST POP POP POP POP POP JUMP JUMPDEST DUP2 MLOAD PUSH8 0xFFFFFFFFFFFFFFFF DUP2 GT ISZERO PUSH2 0x15F2 JUMPI PUSH2 0x15F2 PUSH2 0x11E4 JUMP JUMPDEST PUSH2 0x1606 DUP2 PUSH2 0x1600 DUP5 SLOAD PUSH2 0x148F JUMP JUMPDEST DUP5 PUSH2 0x14C9 JUMP JUMPDEST PUSH1 0x20 DUP1 PUSH1 0x1F DUP4 GT PUSH1 0x1 DUP2 EQ PUSH2 0x163B JUMPI PUSH1 0x0 DUP5 ISZERO PUSH2 0x1623 JUMPI POP DUP6 DUP4 ADD MLOAD JUMPDEST PUSH1 0x0 NOT PUSH1 0x3 DUP7 SWAP1 SHL SHR NOT AND PUSH1 0x1 DUP6 SWAP1 SHL OR DUP6 SSTORE PUSH2 0x150F JUMP JUMPDEST PUSH1 0x0 DUP6 DUP2 MSTORE PUSH1 0x20 DUP2 KECCAK256 PUSH1 0x1F NOT DUP7 AND SWAP2 JUMPDEST DUP3 DUP2 LT ISZERO PUSH2 0x166A JUMPI DUP9 DUP7 ADD MLOAD DUP3 SSTORE SWAP5 DUP5 ADD SWAP5 PUSH1 0x1 SWAP1 SWAP2 ADD SWAP1 DUP5 ADD PUSH2 0x164B JUMP JUMPDEST POP DUP6 DUP3 LT ISZERO PUSH2 0x1688 JUMPI DUP8 DUP6 ADD MLOAD PUSH1 0x0 NOT PUSH1 0x3 DUP9 SWAP1 SHL PUSH1 0xF8 AND SHR NOT AND DUP2 SSTORE JUMPDEST POP POP POP POP POP PUSH1 0x1 SWAP1 DUP2 SHL ADD SWAP1 SSTORE POP JUMP JUMPDEST PUSH1 0x40 DUP2 MSTORE PUSH1 0x0 PUSH2 0x16AB PUSH1 0x40 DUP4 ADD DUP6 PUSH2 0x1321 JUMP JUMPDEST DUP3 DUP2 SUB PUSH1 0x20 DUP5 ADD MSTORE PUSH2 0x16BD DUP2 DUP6 PUSH2 0x1321 JUMP JUMPDEST SWAP6 SWAP5 POP POP POP POP POP JUMP JUMPDEST PUSH1 0x0 DUP3 MLOAD PUSH2 0x16D8 DUP2 DUP5 PUSH1 0x20 DUP8 ADD PUSH2 0x12FD JUMP JUMPDEST SWAP2 SWAP1 SWAP2 ADD SWAP3 SWAP2 POP POP JUMP JUMPDEST PUSH1 0x0 PUSH1 0x20 DUP1 DUP4 MSTORE PUSH1 0x0 DUP5 SLOAD PUSH2 0x16F6 DUP2 PUSH2 0x148F JUMP JUMPDEST DUP1 DUP5 DUP8 ADD MSTORE PUSH1 0x40 PUSH1 0x1 DUP1 DUP5 AND PUSH1 0x0 DUP2 EQ PUSH2 0x1717 JUMPI PUSH1 0x1 DUP2 EQ PUSH2 0x1731 JUMPI PUSH2 0x175F JUMP JUMPDEST PUSH1 0xFF NOT DUP6 AND DUP10 DUP5 ADD MSTORE DUP4 ISZERO ISZERO PUSH1 0x5 SHL DUP10 ADD DUP4 ADD SWAP6 POP PUSH2 0x175F JUMP JUMPDEST DUP10 PUSH1 0x0 MSTORE DUP7 PUSH1 0x0 KECCAK256 PUSH1 0x0 JUMPDEST DUP6 DUP2 LT ISZERO PUSH2 0x1757 JUMPI DUP2 SLOAD DUP12 DUP3 ADD DUP7 ADD MSTORE SWAP1 DUP4 ADD SWAP1 DUP9 ADD PUSH2 0x173C JUMP JUMPDEST DUP11 ADD DUP5 ADD SWAP7 POP POP JUMPDEST POP SWAP4 SWAP9 SWAP8 POP POP POP POP POP POP POP POP JUMP JUMPDEST PUSH4 0x4E487B71 PUSH1 0xE0 SHL PUSH1 0x0 MSTORE PUSH1 0x32 PUSH1 0x4 MSTORE PUSH1 0x24 PUSH1 0x0 REVERT JUMPDEST PUSH4 0x4E487B71 PUSH1 0xE0 SHL PUSH1 0x0 MSTORE PUSH1 0x21 PUSH1 0x4 MSTORE PUSH1 0x24 PUSH1 0x0 REVERT JUMPDEST PUSH4 0x4E487B71 PUSH1 0xE0 SHL PUSH1 0x0 MSTORE PUSH1 0x11 PUSH1 0x4 MSTORE PUSH1 0x24 PUSH1 0x0 REVERT JUMPDEST PUSH1 0x0 PUSH1 0x1 DUP3 ADD PUSH2 0x17C1 JUMPI PUSH2 0x17C1 PUSH2 0x1799 JUMP JUMPDEST POP PUSH1 0x1 ADD SWAP1 JUMP JUMPDEST PUSH8 0xFFFFFFFFFFFFFFFF DUP7 AND DUP2 MSTORE PUSH1 0xA0 PUSH1 0x20 DUP3 ADD MSTORE PUSH1 0x0 PUSH2 0x17EB PUSH1 0xA0 DUP4 ADD DUP8 PUSH2 0x1321 JUMP JUMPDEST PUSH2 0xFFFF SWAP6 SWAP1 SWAP6 AND PUSH1 0x40 DUP4 ADD MSTORE POP PUSH4 0xFFFFFFFF SWAP3 SWAP1 SWAP3 AND PUSH1 0x60 DUP4 ADD MSTORE PUSH1 0x80 SWAP1 SWAP2 ADD MSTORE SWAP3 SWAP2 POP POP JUMP JUMPDEST PUSH1 0x0 PUSH1 0x20 DUP3 DUP5 SUB SLT ISZERO PUSH2 0x1824 JUMPI PUSH1 0x0 DUP1 REVERT JUMPDEST POP MLOAD SWAP2 SWAP1 POP JUMP JUMPDEST DUP1 DUP3 ADD DUP1 DUP3 GT ISZERO PUSH2 0xE6D JUMPI PUSH2 0xE6D PUSH2 0x1799 JUMP JUMPDEST DUP2 DUP2 SUB DUP2 DUP2 GT ISZERO PUSH2 0xE6D JUMPI PUSH2 0xE6D PUSH2 0x1799 JUMP JUMPDEST PUSH1 0x0 DUP3 PUSH2 0x186E JUMPI PUSH4 0x4E487B71 PUSH1 0xE0 SHL PUSH1 0x0 MSTORE PUSH1 0x12 PUSH1 0x4 MSTORE PUSH1 0x24 PUSH1 0x0 REVERT JUMPDEST POP MOD SWAP1 JUMP JUMPDEST DUP1 DUP3 MUL DUP2 ISZERO DUP3 DUP3 DIV DUP5 EQ OR PUSH2 0xE6D JUMPI PUSH2 0xE6D PUSH2 0x1799 JUMP JUMPDEST PUSH1 0x1 DUP2 DUP2 JUMPDEST DUP1 DUP6 GT ISZERO PUSH2 0x18C5 JUMPI DUP2 PUSH1 0x0 NOT DIV DUP3 GT ISZERO PUSH2 0x18AB JUMPI PUSH2 0x18AB PUSH2 0x1799 JUMP JUMPDEST DUP1 DUP6 AND ISZERO PUSH2 0x18B8 JUMPI SWAP2 DUP2 MUL SWAP2 JUMPDEST SWAP4 DUP5 SHR SWAP4 SWAP1 DUP1 MUL SWAP1 PUSH2 0x188F JUMP JUMPDEST POP SWAP3 POP SWAP3 SWAP1 POP JUMP JUMPDEST PUSH1 0x0 DUP3 PUSH2 0x18DC JUMPI POP PUSH1 0x1 PUSH2 0xE6D JUMP JUMPDEST DUP2 PUSH2 0x18E9 JUMPI POP PUSH1 0x0 PUSH2 0xE6D JUMP JUMPDEST DUP2 PUSH1 0x1 DUP2 EQ PUSH2 0x18FF JUMPI PUSH1 0x2 DUP2 EQ PUSH2 0x1909 JUMPI PUSH2 0x1925 JUMP JUMPDEST PUSH1 0x1 SWAP2 POP POP PUSH2 0xE6D JUMP JUMPDEST PUSH1 0xFF DUP5 GT ISZERO PUSH2 0x191A JUMPI PUSH2 0x191A PUSH2 0x1799 JUMP JUMPDEST POP POP PUSH1 0x1 DUP3 SHL PUSH2 0xE6D JUMP JUMPDEST POP PUSH1 0x20 DUP4 LT PUSH2 0x133 DUP4 LT AND PUSH1 0x4E DUP5 LT PUSH1 0xB DUP5 LT AND OR ISZERO PUSH2 0x1948 JUMPI POP DUP2 DUP2 EXP PUSH2 0xE6D JUMP JUMPDEST PUSH2 0x1952 DUP4 DUP4 PUSH2 0x188A JUMP JUMPDEST DUP1 PUSH1 0x0 NOT DIV DUP3 GT ISZERO PUSH2 0x1966 JUMPI PUSH2 0x1966 PUSH2 0x1799 JUMP JUMPDEST MUL SWAP4 SWAP3 POP POP POP JUMP JUMPDEST PUSH1 0x0 PUSH2 0xFBB DUP4 DUP4 PUSH2 0x18CD JUMP INVALID LOG2 PUSH5 0x6970667358 0x22 SLT KECCAK256 0xCB 0x27 PUSH24 0x93AC4B907E507C00EED76F4B80F577EE3C5DAC2CA1FD79BB 0xC3 0xE1 0x27 SWAP3 CALLCODE PUSH5 0x736F6C6343 STOP ADDMOD SGT STOP CALLER "},"methodIdentifiers":{"acceptOwnership()":"79ba5097","callbackGasLimit()":"24f74697","donId()":"8dbe7b9d","getAttribute(string)":"e8a51fca","handleOracleFulfillment(bytes32,bytes,bytes)":"0ca76175","latestError()":"fffeb84e","latestRequestId()":"1aa46f59","latestResponse()":"bef3a2f0","latestResult()":"6a2ea57e","owner()":"8da5cb5b","source()":"67e828bf","subscriptionId()":"09c1ba2e","transferOwnership(address)":"f2fde38b","updateRequest(string,uint64,uint32,bytes32)":"ae0ccd2e"}},"storageLayout":{"storage":[{"astId":991,"contract":"contracts/GenerateAttributesFunctionsConsumer.sol:FunctionsConsumer","label":"s_owner","offset":0,"slot":"0","type":"t_address"},{"astId":993,"contract":"contracts/GenerateAttributesFunctionsConsumer.sol:FunctionsConsumer","label":"s_pendingOwner","offset":0,"slot":"1","type":"t_address"},{"astId":2460,"contract":"contracts/GenerateAttributesFunctionsConsumer.sol:FunctionsConsumer","label":"source","offset":0,"slot":"2","type":"t_string_storage"},{"astId":2462,"contract":"contracts/GenerateAttributesFunctionsConsumer.sol:FunctionsConsumer","label":"subscriptionId","offset":0,"slot":"3","type":"t_uint64"},{"astId":2464,"contract":"contracts/GenerateAttributesFunctionsConsumer.sol:FunctionsConsumer","label":"callbackGasLimit","offset":8,"slot":"3","type":"t_uint32"},{"astId":2466,"contract":"contracts/GenerateAttributesFunctionsConsumer.sol:FunctionsConsumer","label":"donId","offset":0,"slot":"4","type":"t_bytes32"},{"astId":2468,"contract":"contracts/GenerateAttributesFunctionsConsumer.sol:FunctionsConsumer","label":"latestRequestId","offset":0,"slot":"5","type":"t_bytes32"},{"astId":2470,"contract":"contracts/GenerateAttributesFunctionsConsumer.sol:FunctionsConsumer","label":"latestResponse","offset":0,"slot":"6","type":"t_bytes_storage"},{"astId":2472,"contract":"contracts/GenerateAttributesFunctionsConsumer.sol:FunctionsConsumer","label":"latestError","offset":0,"slot":"7","type":"t_bytes_storage"},{"astId":2474,"contract":"contracts/GenerateAttributesFunctionsConsumer.sol:FunctionsConsumer","label":"latestResult","offset":0,"slot":"8","type":"t_string_storage"}],"types":{"t_address":{"encoding":"inplace","label":"address","numberOfBytes":"20"},"t_bytes32":{"encoding":"inplace","label":"bytes32","numberOfBytes":"32"},"t_bytes_storage":{"encoding":"bytes","label":"bytes","numberOfBytes":"32"},"t_string_storage":{"encoding":"bytes","label":"string","numberOfBytes":"32"},"t_uint32":{"encoding":"inplace","label":"uint32","numberOfBytes":"4"},"t_uint64":{"encoding":"inplace","label":"uint64","numberOfBytes":"8"}}}}}}