{
  "_format": "hh-sol-artifact-1",
  "contractName": "GenerateImagesFunctionsConsumer",
  "sourceName": "contracts/GenrateImagesFunctionConsumer.sol",
  "abi": [
    {
      "inputs": [
        {
          "internalType": "address",
          "name": "router",
          "type": "address"
        }
      ],
      "stateMutability": "nonpayable",
      "type": "constructor"
    },
    {
      "inputs": [],
      "name": "EmptyArgs",
      "type": "error"
    },
    {
      "inputs": [],
      "name": "EmptySource",
      "type": "error"
    },
    {
      "inputs": [],
      "name": "NoInlineSecrets",
      "type": "error"
    },
    {
      "inputs": [],
      "name": "OnlyRouterCanFulfill",
      "type": "error"
    },
    {
      "inputs": [
        {
          "internalType": "bytes32",
          "name": "requestId",
          "type": "bytes32"
        }
      ],
      "name": "UnexpectedRequestID",
      "type": "error"
    },
    {
      "anonymous": false,
      "inputs": [
        {
          "indexed": false,
          "internalType": "string",
          "name": "latestResult",
          "type": "string"
        }
      ],
      "name": "Attributes",
      "type": "event"
    },
    {
      "anonymous": false,
      "inputs": [
        {
          "indexed": true,
          "internalType": "bytes32",
          "name": "requestId",
          "type": "bytes32"
        },
        {
          "indexed": false,
          "internalType": "bytes",
          "name": "result",
          "type": "bytes"
        },
        {
          "indexed": false,
          "internalType": "bytes",
          "name": "err",
          "type": "bytes"
        }
      ],
      "name": "OCRResponse",
      "type": "event"
    },
    {
      "anonymous": false,
      "inputs": [
        {
          "indexed": true,
          "internalType": "address",
          "name": "from",
          "type": "address"
        },
        {
          "indexed": true,
          "internalType": "address",
          "name": "to",
          "type": "address"
        }
      ],
      "name": "OwnershipTransferRequested",
      "type": "event"
    },
    {
      "anonymous": false,
      "inputs": [
        {
          "indexed": true,
          "internalType": "address",
          "name": "from",
          "type": "address"
        },
        {
          "indexed": true,
          "internalType": "address",
          "name": "to",
          "type": "address"
        }
      ],
      "name": "OwnershipTransferred",
      "type": "event"
    },
    {
      "anonymous": false,
      "inputs": [
        {
          "indexed": true,
          "internalType": "bytes32",
          "name": "id",
          "type": "bytes32"
        }
      ],
      "name": "RequestFulfilled",
      "type": "event"
    },
    {
      "anonymous": false,
      "inputs": [
        {
          "indexed": true,
          "internalType": "bytes32",
          "name": "id",
          "type": "bytes32"
        }
      ],
      "name": "RequestSent",
      "type": "event"
    },
    {
      "inputs": [],
      "name": "acceptOwnership",
      "outputs": [],
      "stateMutability": "nonpayable",
      "type": "function"
    },
    {
      "inputs": [],
      "name": "callbackGasLimit",
      "outputs": [
        {
          "internalType": "uint32",
          "name": "",
          "type": "uint32"
        }
      ],
      "stateMutability": "view",
      "type": "function"
    },
    {
      "inputs": [],
      "name": "donId",
      "outputs": [
        {
          "internalType": "bytes32",
          "name": "",
          "type": "bytes32"
        }
      ],
      "stateMutability": "view",
      "type": "function"
    },
    {
      "inputs": [
        {
          "internalType": "string",
          "name": "_prompt",
          "type": "string"
        },
        {
          "internalType": "string",
          "name": "_size",
          "type": "string"
        }
      ],
      "name": "getAttribute",
      "outputs": [],
      "stateMutability": "nonpayable",
      "type": "function"
    },
    {
      "inputs": [
        {
          "internalType": "bytes32",
          "name": "requestId",
          "type": "bytes32"
        },
        {
          "internalType": "bytes",
          "name": "response",
          "type": "bytes"
        },
        {
          "internalType": "bytes",
          "name": "err",
          "type": "bytes"
        }
      ],
      "name": "handleOracleFulfillment",
      "outputs": [],
      "stateMutability": "nonpayable",
      "type": "function"
    },
    {
      "inputs": [],
      "name": "latestError",
      "outputs": [
        {
          "internalType": "bytes",
          "name": "",
          "type": "bytes"
        }
      ],
      "stateMutability": "view",
      "type": "function"
    },
    {
      "inputs": [],
      "name": "latestRequestId",
      "outputs": [
        {
          "internalType": "bytes32",
          "name": "",
          "type": "bytes32"
        }
      ],
      "stateMutability": "view",
      "type": "function"
    },
    {
      "inputs": [],
      "name": "latestResponse",
      "outputs": [
        {
          "internalType": "bytes",
          "name": "",
          "type": "bytes"
        }
      ],
      "stateMutability": "view",
      "type": "function"
    },
    {
      "inputs": [],
      "name": "latestResult",
      "outputs": [
        {
          "internalType": "string",
          "name": "",
          "type": "string"
        }
      ],
      "stateMutability": "view",
      "type": "function"
    },
    {
      "inputs": [],
      "name": "owner",
      "outputs": [
        {
          "internalType": "address",
          "name": "",
          "type": "address"
        }
      ],
      "stateMutability": "view",
      "type": "function"
    },
    {
      "inputs": [],
      "name": "source",
      "outputs": [
        {
          "internalType": "string",
          "name": "",
          "type": "string"
        }
      ],
      "stateMutability": "view",
      "type": "function"
    },
    {
      "inputs": [],
      "name": "subscriptionId",
      "outputs": [
        {
          "internalType": "uint64",
          "name": "",
          "type": "uint64"
        }
      ],
      "stateMutability": "view",
      "type": "function"
    },
    {
      "inputs": [
        {
          "internalType": "address",
          "name": "to",
          "type": "address"
        }
      ],
      "name": "transferOwnership",
      "outputs": [],
      "stateMutability": "nonpayable",
      "type": "function"
    },
    {
      "inputs": [
        {
          "internalType": "string",
          "name": "_source",
          "type": "string"
        },
        {
          "internalType": "uint64",
          "name": "_subscriptionId",
          "type": "uint64"
        },
        {
          "internalType": "uint32",
          "name": "_callbackGasLimit",
          "type": "uint32"
        },
        {
          "internalType": "bytes32",
          "name": "_donId",
          "type": "bytes32"
        }
      ],
      "name": "updateRequest",
      "outputs": [],
      "stateMutability": "nonpayable",
      "type": "function"
    }
  ],
  "bytecode": "0x60a06040523480156200001157600080fd5b5060405162001bb538038062001bb5833981016040819052620000349162000180565b6001600160a01b0381166080523380600081620000985760405162461bcd60e51b815260206004820152601860248201527f43616e6e6f7420736574206f776e657220746f207a65726f000000000000000060448201526064015b60405180910390fd5b600080546001600160a01b0319166001600160a01b0384811691909117909155811615620000cb57620000cb81620000d5565b50505050620001b2565b336001600160a01b038216036200012f5760405162461bcd60e51b815260206004820152601760248201527f43616e6e6f74207472616e7366657220746f2073656c6600000000000000000060448201526064016200008f565b600180546001600160a01b0319166001600160a01b0383811691821790925560008054604051929316917fed8889f560326eb138920d842192f0eb3dd22b4f139c87a2c57538e05bae12789190a350565b6000602082840312156200019357600080fd5b81516001600160a01b0381168114620001ab57600080fd5b9392505050565b6080516119e0620001d56000396000818161021b0152610c8a01526119e06000f3fe608060405234801561001057600080fd5b50600436106100ea5760003560e01c80638da5cb5b1161008c578063bef3a2f011610066578063bef3a2f0146101da578063bf2d0daf146101e2578063f2fde38b146101f5578063fffeb84e1461020857600080fd5b80638da5cb5b146101a35780638dbe7b9d146101be578063ae0ccd2e146101c757600080fd5b806324f74697116100c857806324f746971461014d57806367e828bf1461017e5780636a2ea57e1461019357806379ba50971461019b57600080fd5b806309c1ba2e146100ef5780630ca76175146101215780631aa46f5914610136575b600080fd5b6003546101039067ffffffffffffffff1681565b60405167ffffffffffffffff90911681526020015b60405180910390f35b61013461012f3660046112a8565b610210565b005b61013f60055481565b604051908152602001610118565b6003546101699068010000000000000000900463ffffffff1681565b60405163ffffffff9091168152602001610118565b6101866102ad565b6040516101189190611365565b61018661033b565b610134610348565b6000546040516001600160a01b039091168152602001610118565b61013f60045481565b6101346101d5366004611391565b61040b565b610186610467565b6101346101f0366004611432565b610474565b610134610203366004611496565b610483565b610186610497565b336001600160a01b037f00000000000000000000000000000000000000000000000000000000000000001614610272576040517fc6829f8300000000000000000000000000000000000000000000000000000000815260040160405180910390fd5b61027d8383836104a4565b60405183907f85e1543bf2f84fe80c6badbce3648c8539ad1df4d2b3d822938ca0538be727e690600090a2505050565b600280546102ba906114bf565b80601f01602080910402602001604051908101604052809291908181526020018280546102e6906114bf565b80156103335780601f1061030857610100808354040283529160200191610333565b820191906000526020600020905b81548152906001019060200180831161031657829003601f168201915b505050505081565b600880546102ba906114bf565b6001546001600160a01b031633146103a75760405162461bcd60e51b815260206004820152601660248201527f4d7573742062652070726f706f736564206f776e65720000000000000000000060448201526064015b60405180910390fd5b600080543373ffffffffffffffffffffffffffffffffffffffff19808316821784556001805490911690556040516001600160a01b0390921692909183917f8be0079c531659141344cd1fd0a4f28419497f9722a3daafe3b4186f6b6457e091a350565b610413610564565b6002610420858783611547565b506003805463ffffffff90931668010000000000000000026bffffffffffffffffffffffff1990931667ffffffffffffffff90941693909317919091179091556004555050565b600680546102ba906114bf565b61047e82826105c0565b505050565b61048b610564565b61049481610776565b50565b600780546102ba906114bf565b60066104b08382611608565b5060076104bd8282611608565b50827f7bab0ec163b5c132c72b8146ac4d6e067e82ed58f8b131150aa71c925891156283836040516104f09291906116c8565b60405180910390a28160405160200161050991906116f6565b604051602081830303815290604052600890816105269190611608565b507f52d7bd047435a6a678d62544f6963d4a396087e6d16e5a9cec313501967f603360086040516105579190611712565b60405180910390a1505050565b6000546001600160a01b031633146105be5760405162461bcd60e51b815260206004820152601660248201527f4f6e6c792063616c6c61626c65206279206f776e657200000000000000000000604482015260640161039e565b565b60006105ca610564565b61060b6040805160e0810190915280600081526020016000815260200160008152602001606081526020016060815260200160608152602001606081525090565b6106ad6000806002805461061e906114bf565b80601f016020809104026020016040519081016040528092919081815260200182805461064a906114bf565b80156106975780601f1061066c57610100808354040283529160200191610697565b820191906000526020600020905b81548152906001019060200180831161067a57829003601f168201915b50505050508461082c909392919063ffffffff16565b604080516001808252818301909252600091816020015b60608152602001906001900390816106c457905050905084816000815181106106ef576106ef61179d565b6020026020010181905250838160018151811061070e5761070e61179d565b602002602001018190525060018151111561072d5761072d82826108c3565b600061076561073b84610906565b60035460045467ffffffffffffffff82169168010000000000000000900463ffffffff1690610c85565b600581905593505050505b92915050565b336001600160a01b038216036107ce5760405162461bcd60e51b815260206004820152601760248201527f43616e6e6f74207472616e7366657220746f2073656c66000000000000000000604482015260640161039e565b6001805473ffffffffffffffffffffffffffffffffffffffff19166001600160a01b0383811691821790925560008054604051929316917fed8889f560326eb138920d842192f0eb3dd22b4f139c87a2c57538e05bae12789190a350565b8051600003610867576040517f22ce3edd00000000000000000000000000000000000000000000000000000000815260040160405180910390fd5b8383600281111561087a5761087a6117b3565b9081600281111561088d5761088d6117b3565b905250604084018280156108a3576108a36117b3565b908180156108b3576108b36117b3565b9052506060909301929092525050565b80516000036108fe576040517ffe936cb700000000000000000000000000000000000000000000000000000000815260040160405180910390fd5b60a090910152565b60606000610915610100610d57565b905061095f6040518060400160405280600c81526020017f636f64654c6f636174696f6e000000000000000000000000000000000000000081525082610d7890919063ffffffff16565b825161097d906002811115610976576109766117b3565b8290610d91565b60408051808201909152600881527f6c616e677561676500000000000000000000000000000000000000000000000060208201526109bc908290610d78565b60408301516109d3908015610976576109766117b3565b60408051808201909152600681527f736f7572636500000000000000000000000000000000000000000000000000006020820152610a12908290610d78565b6060830151610a22908290610d78565b60a08301515115610acf5760408051808201909152600481527f61726773000000000000000000000000000000000000000000000000000000006020820152610a6c908290610d78565b610a7581610dce565b60005b8360a0015151811015610ac557610ab58460a001518281518110610a9e57610a9e61179d565b602002602001015183610d7890919063ffffffff16565b610abe816117df565b9050610a78565b50610acf81610df2565b60808301515115610bd057600083602001516002811115610af257610af26117b3565b03610b29576040517fa80d31f700000000000000000000000000000000000000000000000000000000815260040160405180910390fd5b60408051808201909152600f81527f736563726574734c6f636174696f6e00000000000000000000000000000000006020820152610b68908290610d78565b610b8183602001516002811115610976576109766117b3565b60408051808201909152600781527f73656372657473000000000000000000000000000000000000000000000000006020820152610bc0908290610d78565b6080830151610bd0908290610e10565b60c08301515115610c7d5760408051808201909152600981527f62797465734172677300000000000000000000000000000000000000000000006020820152610c1a908290610d78565b610c2381610dce565b60005b8360c0015151811015610c7357610c638460c001518281518110610c4c57610c4c61179d565b602002602001015183610e1090919063ffffffff16565b610c6c816117df565b9050610c26565b50610c7d81610df2565b515192915050565b6000807f00000000000000000000000000000000000000000000000000000000000000006001600160a01b031663461d27628688600188886040518663ffffffff1660e01b8152600401610cdd9594939291906117f8565b6020604051808303816000875af1158015610cfc573d6000803e3d6000fd5b505050506040513d601f19601f82011682018060405250810190610d209190611842565b60405190915081907f1131472297a800fee664d1d89cfa8f7676ff07189ecc53f80bbb5f4969099db890600090a295945050505050565b610d5f6111d0565b8051610d6b9083610e1d565b5060006020820152919050565b610d858260038351610e94565b815161047e9082610fbb565b8151610d9e9060c2610fe3565b50610dca8282604051602001610db691815260200190565b604051602081830303815290604052610e10565b5050565b610dd981600461104c565b600181602001818151610dec919061185b565b90525050565b610dfd81600761104c565b600181602001818151610dec919061186e565b610d858260028351610e94565b604080518082019091526060815260006020820152610e3d602083611881565b15610e6557610e4d602083611881565b610e5890602061186e565b610e62908361185b565b91505b602080840183905260405180855260008152908184010181811015610e8957600080fd5b604052509192915050565b60178167ffffffffffffffff1611610ec1578251610ebb9060e0600585901b168317610fe3565b50505050565b60ff8167ffffffffffffffff1611610f03578251610eea906018611fe0600586901b1617610fe3565b508251610ebb9067ffffffffffffffff83166001611063565b61ffff8167ffffffffffffffff1611610f46578251610f2d906019611fe0600586901b1617610fe3565b508251610ebb9067ffffffffffffffff83166002611063565b63ffffffff8167ffffffffffffffff1611610f8b578251610f7290601a611fe0600586901b1617610fe3565b508251610ebb9067ffffffffffffffff83166004611063565b8251610fa290601b611fe0600586901b1617610fe3565b508251610ebb9067ffffffffffffffff83166008611063565b604080518082019091526060815260006020820152610fdc838384516110e8565b9392505050565b604080518082019091526060815260006020820152825151600061100882600161185b565b90508460200151821061102957611029856110248360026118a3565b6111b9565b8451602083820101858153508051821115611042578181525b5093949350505050565b815161047e90601f611fe0600585901b1617610fe3565b6040805180820190915260608152600060208201528351516000611087828561185b565b905085602001518111156110a4576110a4866110248360026118a3565b600060016110b48661010061199e565b6110be919061186e565b905086518281018783198251161781525080518311156110dc578281525b50959695505050505050565b604080518082019091526060815260006020820152825182111561110b57600080fd5b835151600061111a848361185b565b9050856020015181111561113757611137866110248360026118a3565b855180518382016020019160009180851115611151578482525b505050602086015b60208610611191578051825261117060208361185b565b915061117d60208261185b565b905061118a60208761186e565b9550611159565b51815160001960208890036101000a0190811690199190911617905250849150509392505050565b81516111c58383610e1d565b50610ebb8382610fbb565b60405180604001604052806111f8604051806040016040528060608152602001600081525090565b8152602001600081525090565b634e487b7160e01b600052604160045260246000fd5b600082601f83011261122c57600080fd5b813567ffffffffffffffff8082111561124757611247611205565b604051601f8301601f19908116603f0116810190828211818310171561126f5761126f611205565b8160405283815286602085880101111561128857600080fd5b836020870160208301376000602085830101528094505050505092915050565b6000806000606084860312156112bd57600080fd5b83359250602084013567ffffffffffffffff808211156112dc57600080fd5b6112e88783880161121b565b935060408601359150808211156112fe57600080fd5b5061130b8682870161121b565b9150509250925092565b60005b83811015611330578181015183820152602001611318565b50506000910152565b60008151808452611351816020860160208601611315565b601f01601f19169290920160200192915050565b602081526000610fdc6020830184611339565b803563ffffffff8116811461138c57600080fd5b919050565b6000806000806000608086880312156113a957600080fd5b853567ffffffffffffffff808211156113c157600080fd5b818801915088601f8301126113d557600080fd5b8135818111156113e457600080fd5b8960208285010111156113f657600080fd5b6020928301975095509087013590808216821461141257600080fd5b50925061142160408701611378565b949793965091946060013592915050565b6000806040838503121561144557600080fd5b823567ffffffffffffffff8082111561145d57600080fd5b6114698683870161121b565b9350602085013591508082111561147f57600080fd5b5061148c8582860161121b565b9150509250929050565b6000602082840312156114a857600080fd5b81356001600160a01b0381168114610fdc57600080fd5b600181811c908216806114d357607f821691505b6020821081036114f357634e487b7160e01b600052602260045260246000fd5b50919050565b601f82111561047e57600081815260208120601f850160051c810160208610156115205750805b601f850160051c820191505b8181101561153f5782815560010161152c565b505050505050565b67ffffffffffffffff83111561155f5761155f611205565b6115738361156d83546114bf565b836114f9565b6000601f8411600181146115a7576000851561158f5750838201355b600019600387901b1c1916600186901b178355611601565b600083815260209020601f19861690835b828110156115d857868501358255602094850194600190920191016115b8565b50868210156115f55760001960f88860031b161c19848701351681555b505060018560011b0183555b5050505050565b815167ffffffffffffffff81111561162257611622611205565b6116368161163084546114bf565b846114f9565b602080601f83116001811461166b57600084156116535750858301515b600019600386901b1c1916600185901b17855561153f565b600085815260208120601f198616915b8281101561169a5788860151825594840194600190910190840161167b565b50858210156116b85787850151600019600388901b60f8161c191681555b5050505050600190811b01905550565b6040815260006116db6040830185611339565b82810360208401526116ed8185611339565b95945050505050565b60008251611708818460208701611315565b9190910192915050565b6000602080835260008454611726816114bf565b8084870152604060018084166000811461174757600181146117615761178f565b60ff1985168984015283151560051b89018301955061178f565b896000528660002060005b858110156117875781548b820186015290830190880161176c565b8a0184019650505b509398975050505050505050565b634e487b7160e01b600052603260045260246000fd5b634e487b7160e01b600052602160045260246000fd5b634e487b7160e01b600052601160045260246000fd5b6000600182016117f1576117f16117c9565b5060010190565b67ffffffffffffffff8616815260a06020820152600061181b60a0830187611339565b61ffff9590951660408301525063ffffffff92909216606083015260809091015292915050565b60006020828403121561185457600080fd5b5051919050565b80820180821115610770576107706117c9565b81810381811115610770576107706117c9565b60008261189e57634e487b7160e01b600052601260045260246000fd5b500690565b8082028115828204841417610770576107706117c9565b600181815b808511156118f55781600019048211156118db576118db6117c9565b808516156118e857918102915b93841c93908002906118bf565b509250929050565b60008261190c57506001610770565b8161191957506000610770565b816001811461192f576002811461193957611955565b6001915050610770565b60ff84111561194a5761194a6117c9565b50506001821b610770565b5060208310610133831016604e8410600b8410161715611978575081810a610770565b61198283836118ba565b8060001904821115611996576119966117c9565b029392505050565b6000610fdc83836118fd56fea2646970667358221220c0533436b630b9c6635e5d3dbfbab8b56247e30163006064525f165d13e188e464736f6c63430008130033",
  "linkReferences": {},
  "deployedLinkReferences": {}
}