{
  "_format": "hh-sol-artifact-1",
  "contractName": "GenerateAttributesFunctionsConsumer",
  "sourceName": "contracts/GenerateAttributesFunctionsConsumer.sol",
  "abi": [
    {
      "inputs": [
        {
          "internalType": "address",
          "name": "router",
          "type": "address"
        }
      ],
      "stateMutability": "nonpayable",
      "type": "constructor"
    },
    {
      "inputs": [],
      "name": "EmptyArgs",
      "type": "error"
    },
    {
      "inputs": [],
      "name": "EmptySource",
      "type": "error"
    },
    {
      "inputs": [],
      "name": "NoInlineSecrets",
      "type": "error"
    },
    {
      "inputs": [],
      "name": "OnlyRouterCanFulfill",
      "type": "error"
    },
    {
      "inputs": [
        {
          "internalType": "bytes32",
          "name": "requestId",
          "type": "bytes32"
        }
      ],
      "name": "UnexpectedRequestID",
      "type": "error"
    },
    {
      "anonymous": false,
      "inputs": [
        {
          "indexed": false,
          "internalType": "string",
          "name": "latestResult",
          "type": "string"
        }
      ],
      "name": "Attributes",
      "type": "event"
    },
    {
      "anonymous": false,
      "inputs": [
        {
          "indexed": true,
          "internalType": "bytes32",
          "name": "requestId",
          "type": "bytes32"
        },
        {
          "indexed": false,
          "internalType": "bytes",
          "name": "result",
          "type": "bytes"
        },
        {
          "indexed": false,
          "internalType": "bytes",
          "name": "err",
          "type": "bytes"
        }
      ],
      "name": "OCRResponse",
      "type": "event"
    },
    {
      "anonymous": false,
      "inputs": [
        {
          "indexed": true,
          "internalType": "address",
          "name": "from",
          "type": "address"
        },
        {
          "indexed": true,
          "internalType": "address",
          "name": "to",
          "type": "address"
        }
      ],
      "name": "OwnershipTransferRequested",
      "type": "event"
    },
    {
      "anonymous": false,
      "inputs": [
        {
          "indexed": true,
          "internalType": "address",
          "name": "from",
          "type": "address"
        },
        {
          "indexed": true,
          "internalType": "address",
          "name": "to",
          "type": "address"
        }
      ],
      "name": "OwnershipTransferred",
      "type": "event"
    },
    {
      "anonymous": false,
      "inputs": [
        {
          "indexed": true,
          "internalType": "bytes32",
          "name": "id",
          "type": "bytes32"
        }
      ],
      "name": "RequestFulfilled",
      "type": "event"
    },
    {
      "anonymous": false,
      "inputs": [
        {
          "indexed": true,
          "internalType": "bytes32",
          "name": "id",
          "type": "bytes32"
        }
      ],
      "name": "RequestSent",
      "type": "event"
    },
    {
      "inputs": [],
      "name": "acceptOwnership",
      "outputs": [],
      "stateMutability": "nonpayable",
      "type": "function"
    },
    {
      "inputs": [],
      "name": "callbackGasLimit",
      "outputs": [
        {
          "internalType": "uint32",
          "name": "",
          "type": "uint32"
        }
      ],
      "stateMutability": "view",
      "type": "function"
    },
    {
      "inputs": [],
      "name": "donId",
      "outputs": [
        {
          "internalType": "bytes32",
          "name": "",
          "type": "bytes32"
        }
      ],
      "stateMutability": "view",
      "type": "function"
    },
    {
      "inputs": [
        {
          "internalType": "string",
          "name": "_prompt",
          "type": "string"
        }
      ],
      "name": "getAttribute",
      "outputs": [],
      "stateMutability": "nonpayable",
      "type": "function"
    },
    {
      "inputs": [
        {
          "internalType": "bytes32",
          "name": "requestId",
          "type": "bytes32"
        },
        {
          "internalType": "bytes",
          "name": "response",
          "type": "bytes"
        },
        {
          "internalType": "bytes",
          "name": "err",
          "type": "bytes"
        }
      ],
      "name": "handleOracleFulfillment",
      "outputs": [],
      "stateMutability": "nonpayable",
      "type": "function"
    },
    {
      "inputs": [],
      "name": "latestError",
      "outputs": [
        {
          "internalType": "bytes",
          "name": "",
          "type": "bytes"
        }
      ],
      "stateMutability": "view",
      "type": "function"
    },
    {
      "inputs": [],
      "name": "latestRequestId",
      "outputs": [
        {
          "internalType": "bytes32",
          "name": "",
          "type": "bytes32"
        }
      ],
      "stateMutability": "view",
      "type": "function"
    },
    {
      "inputs": [],
      "name": "latestResponse",
      "outputs": [
        {
          "internalType": "bytes",
          "name": "",
          "type": "bytes"
        }
      ],
      "stateMutability": "view",
      "type": "function"
    },
    {
      "inputs": [],
      "name": "latestResult",
      "outputs": [
        {
          "internalType": "string",
          "name": "",
          "type": "string"
        }
      ],
      "stateMutability": "view",
      "type": "function"
    },
    {
      "inputs": [],
      "name": "owner",
      "outputs": [
        {
          "internalType": "address",
          "name": "",
          "type": "address"
        }
      ],
      "stateMutability": "view",
      "type": "function"
    },
    {
      "inputs": [],
      "name": "source",
      "outputs": [
        {
          "internalType": "string",
          "name": "",
          "type": "string"
        }
      ],
      "stateMutability": "view",
      "type": "function"
    },
    {
      "inputs": [],
      "name": "subscriptionId",
      "outputs": [
        {
          "internalType": "uint64",
          "name": "",
          "type": "uint64"
        }
      ],
      "stateMutability": "view",
      "type": "function"
    },
    {
      "inputs": [
        {
          "internalType": "address",
          "name": "to",
          "type": "address"
        }
      ],
      "name": "transferOwnership",
      "outputs": [],
      "stateMutability": "nonpayable",
      "type": "function"
    },
    {
      "inputs": [
        {
          "internalType": "string",
          "name": "_source",
          "type": "string"
        },
        {
          "internalType": "uint64",
          "name": "_subscriptionId",
          "type": "uint64"
        },
        {
          "internalType": "uint32",
          "name": "_callbackGasLimit",
          "type": "uint32"
        },
        {
          "internalType": "bytes32",
          "name": "_donId",
          "type": "bytes32"
        }
      ],
      "name": "updateRequest",
      "outputs": [],
      "stateMutability": "nonpayable",
      "type": "function"
    }
  ],
  "bytecode": "0x60a06040523480156200001157600080fd5b5060405162001b8538038062001b85833981016040819052620000349162000180565b6001600160a01b0381166080523380600081620000985760405162461bcd60e51b815260206004820152601860248201527f43616e6e6f7420736574206f776e657220746f207a65726f000000000000000060448201526064015b60405180910390fd5b600080546001600160a01b0319166001600160a01b0384811691909117909155811615620000cb57620000cb81620000d5565b50505050620001b2565b336001600160a01b038216036200012f5760405162461bcd60e51b815260206004820152601760248201527f43616e6e6f74207472616e7366657220746f2073656c6600000000000000000060448201526064016200008f565b600180546001600160a01b0319166001600160a01b0383811691821790925560008054604051929316917fed8889f560326eb138920d842192f0eb3dd22b4f139c87a2c57538e05bae12789190a350565b6000602082840312156200019357600080fd5b81516001600160a01b0381168114620001ab57600080fd5b9392505050565b6080516119b0620001d56000396000818161021b0152610c6501526119b06000f3fe608060405234801561001057600080fd5b50600436106100ea5760003560e01c80638da5cb5b1161008c578063bef3a2f011610066578063bef3a2f0146101da578063e8a51fca146101e2578063f2fde38b146101f5578063fffeb84e1461020857600080fd5b80638da5cb5b146101a35780638dbe7b9d146101be578063ae0ccd2e146101c757600080fd5b806324f74697116100c857806324f746971461014d57806367e828bf1461017e5780636a2ea57e1461019357806379ba50971461019b57600080fd5b806309c1ba2e146100ef5780630ca76175146101215780631aa46f5914610136575b600080fd5b6003546101039067ffffffffffffffff1681565b60405167ffffffffffffffff90911681526020015b60405180910390f35b61013461012f366004611290565b610210565b005b61013f60055481565b604051908152602001610118565b6003546101699068010000000000000000900463ffffffff1681565b60405163ffffffff9091168152602001610118565b6101866102ad565b604051610118919061134d565b61018661033b565b610134610348565b6000546040516001600160a01b039091168152602001610118565b61013f60045481565b6101346101d5366004611374565b61040b565b610186610467565b6101346101f0366004611415565b610474565b610134610203366004611466565b610481565b610186610495565b336001600160a01b037f00000000000000000000000000000000000000000000000000000000000000001614610272576040517fc6829f8300000000000000000000000000000000000000000000000000000000815260040160405180910390fd5b61027d8383836104a2565b60405183907f85e1543bf2f84fe80c6badbce3648c8539ad1df4d2b3d822938ca0538be727e690600090a2505050565b600280546102ba9061148f565b80601f01602080910402602001604051908101604052809291908181526020018280546102e69061148f565b80156103335780601f1061030857610100808354040283529160200191610333565b820191906000526020600020905b81548152906001019060200180831161031657829003601f168201915b505050505081565b600880546102ba9061148f565b6001546001600160a01b031633146103a75760405162461bcd60e51b815260206004820152601660248201527f4d7573742062652070726f706f736564206f776e65720000000000000000000060448201526064015b60405180910390fd5b600080543373ffffffffffffffffffffffffffffffffffffffff19808316821784556001805490911690556040516001600160a01b0390921692909183917f8be0079c531659141344cd1fd0a4f28419497f9722a3daafe3b4186f6b6457e091a350565b610413610562565b6002610420858783611517565b506003805463ffffffff90931668010000000000000000026bffffffffffffffffffffffff1990931667ffffffffffffffff90941693909317919091179091556004555050565b600680546102ba9061148f565b61047d816105be565b5050565b610489610562565b61049281610751565b50565b600780546102ba9061148f565b60066104ae83826115d8565b5060076104bb82826115d8565b50827f7bab0ec163b5c132c72b8146ac4d6e067e82ed58f8b131150aa71c925891156283836040516104ee929190611698565b60405180910390a28160405160200161050791906116c6565b6040516020818303038152906040526008908161052491906115d8565b507f52d7bd047435a6a678d62544f6963d4a396087e6d16e5a9cec313501967f6033600860405161055591906116e2565b60405180910390a1505050565b6000546001600160a01b031633146105bc5760405162461bcd60e51b815260206004820152601660248201527f4f6e6c792063616c6c61626c65206279206f776e657200000000000000000000604482015260640161039e565b565b60006105c8610562565b6106096040805160e0810190915280600081526020016000815260200160008152602001606081526020016060815260200160608152602001606081525090565b6106ab6000806002805461061c9061148f565b80601f01602080910402602001604051908101604052809291908181526020018280546106489061148f565b80156106955780601f1061066a57610100808354040283529160200191610695565b820191906000526020600020905b81548152906001019060200180831161067857829003601f168201915b505050505084610807909392919063ffffffff16565b604080516001808252818301909252600091816020015b60608152602001906001900390816106c257905050905083816000815181106106ed576106ed61176d565b602090810291909101015280511561070957610709828261089e565b6000610741610717846108e1565b60035460045467ffffffffffffffff82169168010000000000000000900463ffffffff1690610c60565b600581905593505050505b919050565b336001600160a01b038216036107a95760405162461bcd60e51b815260206004820152601760248201527f43616e6e6f74207472616e7366657220746f2073656c66000000000000000000604482015260640161039e565b6001805473ffffffffffffffffffffffffffffffffffffffff19166001600160a01b0383811691821790925560008054604051929316917fed8889f560326eb138920d842192f0eb3dd22b4f139c87a2c57538e05bae12789190a350565b8051600003610842576040517f22ce3edd00000000000000000000000000000000000000000000000000000000815260040160405180910390fd5b8383600281111561085557610855611783565b9081600281111561086857610868611783565b9052506040840182801561087e5761087e611783565b9081801561088e5761088e611783565b9052506060909301929092525050565b80516000036108d9576040517ffe936cb700000000000000000000000000000000000000000000000000000000815260040160405180910390fd5b60a090910152565b606060006108f0610100610d32565b905061093a6040518060400160405280600c81526020017f636f64654c6f636174696f6e000000000000000000000000000000000000000081525082610d5390919063ffffffff16565b825161095890600281111561095157610951611783565b8290610d71565b60408051808201909152600881527f6c616e67756167650000000000000000000000000000000000000000000000006020820152610997908290610d53565b60408301516109ae90801561095157610951611783565b60408051808201909152600681527f736f75726365000000000000000000000000000000000000000000000000000060208201526109ed908290610d53565b60608301516109fd908290610d53565b60a08301515115610aaa5760408051808201909152600481527f61726773000000000000000000000000000000000000000000000000000000006020820152610a47908290610d53565b610a5081610daa565b60005b8360a0015151811015610aa057610a908460a001518281518110610a7957610a7961176d565b602002602001015183610d5390919063ffffffff16565b610a99816117af565b9050610a53565b50610aaa81610dce565b60808301515115610bab57600083602001516002811115610acd57610acd611783565b03610b04576040517fa80d31f700000000000000000000000000000000000000000000000000000000815260040160405180910390fd5b60408051808201909152600f81527f736563726574734c6f636174696f6e00000000000000000000000000000000006020820152610b43908290610d53565b610b5c8360200151600281111561095157610951611783565b60408051808201909152600781527f73656372657473000000000000000000000000000000000000000000000000006020820152610b9b908290610d53565b6080830151610bab908290610dec565b60c08301515115610c585760408051808201909152600981527f62797465734172677300000000000000000000000000000000000000000000006020820152610bf5908290610d53565b610bfe81610daa565b60005b8360c0015151811015610c4e57610c3e8460c001518281518110610c2757610c2761176d565b602002602001015183610dec90919063ffffffff16565b610c47816117af565b9050610c01565b50610c5881610dce565b515192915050565b6000807f00000000000000000000000000000000000000000000000000000000000000006001600160a01b031663461d27628688600188886040518663ffffffff1660e01b8152600401610cb89594939291906117c8565b6020604051808303816000875af1158015610cd7573d6000803e3d6000fd5b505050506040513d601f19601f82011682018060405250810190610cfb9190611812565b60405190915081907f1131472297a800fee664d1d89cfa8f7676ff07189ecc53f80bbb5f4969099db890600090a295945050505050565b610d3a6111af565b8051610d469083610df9565b5060006020820152919050565b610d608260038351610e73565b8151610d6c9082610f9a565b505050565b8151610d7e9060c2610fc2565b5061047d8282604051602001610d9691815260200190565b604051602081830303815290604052610dec565b610db581600461102b565b600181602001818151610dc8919061182b565b90525050565b610dd981600761102b565b600181602001818151610dc8919061183e565b610d608260028351610e73565b604080518082019091526060815260006020820152610e19602083611851565b15610e4157610e29602083611851565b610e3490602061183e565b610e3e908361182b565b91505b602080840183905260405180855260008152908184010181811015610e6557600080fd5b604052508290505b92915050565b60178167ffffffffffffffff1611610ea0578251610e9a9060e0600585901b168317610fc2565b50505050565b60ff8167ffffffffffffffff1611610ee2578251610ec9906018611fe0600586901b1617610fc2565b508251610e9a9067ffffffffffffffff83166001611042565b61ffff8167ffffffffffffffff1611610f25578251610f0c906019611fe0600586901b1617610fc2565b508251610e9a9067ffffffffffffffff83166002611042565b63ffffffff8167ffffffffffffffff1611610f6a578251610f5190601a611fe0600586901b1617610fc2565b508251610e9a9067ffffffffffffffff83166004611042565b8251610f8190601b611fe0600586901b1617610fc2565b508251610e9a9067ffffffffffffffff83166008611042565b604080518082019091526060815260006020820152610fbb838384516110c7565b9392505050565b6040805180820190915260608152600060208201528251516000610fe782600161182b565b9050846020015182106110085761100885611003836002611873565b611198565b8451602083820101858153508051821115611021578181525b5093949350505050565b8151610d6c90601f611fe0600585901b1617610fc2565b6040805180820190915260608152600060208201528351516000611066828561182b565b905085602001518111156110835761108386611003836002611873565b600060016110938661010061196e565b61109d919061183e565b905086518281018783198251161781525080518311156110bb578281525b50959695505050505050565b60408051808201909152606081526000602082015282518211156110ea57600080fd5b83515160006110f9848361182b565b905085602001518111156111165761111686611003836002611873565b855180518382016020019160009180851115611130578482525b505050602086015b60208610611170578051825261114f60208361182b565b915061115c60208261182b565b905061116960208761183e565b9550611138565b51815160001960208890036101000a0190811690199190911617905250849150509392505050565b81516111a48383610df9565b50610e9a8382610f9a565b60405180604001604052806111d7604051806040016040528060608152602001600081525090565b8152602001600081525090565b634e487b7160e01b600052604160045260246000fd5b600067ffffffffffffffff80841115611215576112156111e4565b604051601f8501601f19908116603f0116810190828211818310171561123d5761123d6111e4565b8160405280935085815286868601111561125657600080fd5b858560208301376000602087830101525050509392505050565b600082601f83011261128157600080fd5b610fbb838335602085016111fa565b6000806000606084860312156112a557600080fd5b83359250602084013567ffffffffffffffff808211156112c457600080fd5b6112d087838801611270565b935060408601359150808211156112e657600080fd5b506112f386828701611270565b9150509250925092565b60005b83811015611318578181015183820152602001611300565b50506000910152565b600081518084526113398160208601602086016112fd565b601f01601f19169290920160200192915050565b602081526000610fbb6020830184611321565b803563ffffffff8116811461074c57600080fd5b60008060008060006080868803121561138c57600080fd5b853567ffffffffffffffff808211156113a457600080fd5b818801915088601f8301126113b857600080fd5b8135818111156113c757600080fd5b8960208285010111156113d957600080fd5b602092830197509550908701359080821682146113f557600080fd5b50925061140460408701611360565b949793965091946060013592915050565b60006020828403121561142757600080fd5b813567ffffffffffffffff81111561143e57600080fd5b8201601f8101841361144f57600080fd5b61145e848235602084016111fa565b949350505050565b60006020828403121561147857600080fd5b81356001600160a01b0381168114610fbb57600080fd5b600181811c908216806114a357607f821691505b6020821081036114c357634e487b7160e01b600052602260045260246000fd5b50919050565b601f821115610d6c57600081815260208120601f850160051c810160208610156114f05750805b601f850160051c820191505b8181101561150f578281556001016114fc565b505050505050565b67ffffffffffffffff83111561152f5761152f6111e4565b6115438361153d835461148f565b836114c9565b6000601f841160018114611577576000851561155f5750838201355b600019600387901b1c1916600186901b1783556115d1565b600083815260209020601f19861690835b828110156115a85786850135825560209485019460019092019101611588565b50868210156115c55760001960f88860031b161c19848701351681555b505060018560011b0183555b5050505050565b815167ffffffffffffffff8111156115f2576115f26111e4565b61160681611600845461148f565b846114c9565b602080601f83116001811461163b57600084156116235750858301515b600019600386901b1c1916600185901b17855561150f565b600085815260208120601f198616915b8281101561166a5788860151825594840194600190910190840161164b565b50858210156116885787850151600019600388901b60f8161c191681555b5050505050600190811b01905550565b6040815260006116ab6040830185611321565b82810360208401526116bd8185611321565b95945050505050565b600082516116d88184602087016112fd565b9190910192915050565b60006020808352600084546116f68161148f565b8084870152604060018084166000811461171757600181146117315761175f565b60ff1985168984015283151560051b89018301955061175f565b896000528660002060005b858110156117575781548b820186015290830190880161173c565b8a0184019650505b509398975050505050505050565b634e487b7160e01b600052603260045260246000fd5b634e487b7160e01b600052602160045260246000fd5b634e487b7160e01b600052601160045260246000fd5b6000600182016117c1576117c1611799565b5060010190565b67ffffffffffffffff8616815260a0602082015260006117eb60a0830187611321565b61ffff9590951660408301525063ffffffff92909216606083015260809091015292915050565b60006020828403121561182457600080fd5b5051919050565b80820180821115610e6d57610e6d611799565b81810381811115610e6d57610e6d611799565b60008261186e57634e487b7160e01b600052601260045260246000fd5b500690565b8082028115828204841417610e6d57610e6d611799565b600181815b808511156118c55781600019048211156118ab576118ab611799565b808516156118b857918102915b93841c939080029061188f565b509250929050565b6000826118dc57506001610e6d565b816118e957506000610e6d565b81600181146118ff576002811461190957611925565b6001915050610e6d565b60ff84111561191a5761191a611799565b50506001821b610e6d565b5060208310610133831016604e8410600b8410161715611948575081810a610e6d565b611952838361188a565b806000190482111561196657611966611799565b029392505050565b6000610fbb83836118cd56fea2646970667358221220b06c8a76bd1fe5af9b448c5660375f5023e9e14c95fdf697052385c03d04590c64736f6c63430008130033",
  "linkReferences": {},
  "deployedLinkReferences": {}
}